{
  "address": "0x4de5649e33bad507c496fa3c82b784900ea18cde",
  "txHash": "0xbff9bb4d9986e16e96f1550c88451b637b4ce93f80e407006ba4470af5d491fc",
  "abi": [
    {
      "inputs": [
        {
          "internalType": "string",
          "name": "initialPrefix",
          "type": "string"
        }
      ],
      "stateMutability": "nonpayable",
      "type": "constructor"
    },
    {
      "anonymous": false,
      "inputs": [
        {
          "indexed": true,
          "internalType": "address",
          "name": "owner",
          "type": "address"
        },
        {
          "indexed": true,
          "internalType": "address",
          "name": "approved",
          "type": "address"
        },
        {
          "indexed": true,
          "internalType": "uint256",
          "name": "tokenId",
          "type": "uint256"
        }
      ],
      "name": "Approval",
      "type": "event"
    },
    {
      "anonymous": false,
      "inputs": [
        {
          "indexed": true,
          "internalType": "address",
          "name": "owner",
          "type": "address"
        },
        {
          "indexed": true,
          "internalType": "address",
          "name": "operator",
          "type": "address"
        },
        {
          "indexed": false,
          "internalType": "bool",
          "name": "approved",
          "type": "bool"
        }
      ],
      "name": "ApprovalForAll",
      "type": "event"
    },
    {
      "anonymous": false,
      "inputs": [
        {
          "indexed": true,
          "internalType": "address",
          "name": "from",
          "type": "address"
        },
        {
          "indexed": true,
          "internalType": "address",
          "name": "to",
          "type": "address"
        },
        {
          "indexed": true,
          "internalType": "uint256",
          "name": "tokenId",
          "type": "uint256"
        }
      ],
      "name": "Transfer",
      "type": "event"
    },
    {
      "inputs": [
        {
          "internalType": "address",
          "name": "operator",
          "type": "address"
        },
        {
          "internalType": "uint256",
          "name": "id",
          "type": "uint256"
        }
      ],
      "name": "approve",
      "outputs": [],
      "stateMutability": "nonpayable",
      "type": "function"
    },
    {
      "inputs": [
        {
          "internalType": "address",
          "name": "sender",
          "type": "address"
        },
        {
          "internalType": "address",
          "name": "operator",
          "type": "address"
        },
        {
          "internalType": "uint256",
          "name": "id",
          "type": "uint256"
        }
      ],
      "name": "approveFor",
      "outputs": [],
      "stateMutability": "nonpayable",
      "type": "function"
    },
    {
      "inputs": [
        {
          "internalType": "address",
          "name": "owner",
          "type": "address"
        }
      ],
      "name": "balanceOf",
      "outputs": [
        {
          "internalType": "uint256",
          "name": "",
          "type": "uint256"
        }
      ],
      "stateMutability": "view",
      "type": "function"
    },
    {
      "inputs": [
        {
          "internalType": "address",
          "name": "from",
          "type": "address"
        },
        {
          "internalType": "address",
          "name": "to",
          "type": "address"
        },
        {
          "internalType": "uint256[]",
          "name": "ids",
          "type": "uint256[]"
        },
        {
          "internalType": "bytes",
          "name": "data",
          "type": "bytes"
        }
      ],
      "name": "batchTransferFrom",
      "outputs": [],
      "stateMutability": "nonpayable",
      "type": "function"
    },
    {
      "inputs": [
        {
          "internalType": "uint256",
          "name": "id",
          "type": "uint256"
        }
      ],
      "name": "burn",
      "outputs": [],
      "stateMutability": "nonpayable",
      "type": "function"
    },
    {
      "inputs": [
        {
          "internalType": "address",
          "name": "from",
          "type": "address"
        },
        {
          "internalType": "uint256",
          "name": "id",
          "type": "uint256"
        }
      ],
      "name": "burnFrom",
      "outputs": [],
      "stateMutability": "nonpayable",
      "type": "function"
    },
    {
      "inputs": [
        {
          "internalType": "uint256",
          "name": "id",
          "type": "uint256"
        }
      ],
      "name": "getApproved",
      "outputs": [
        {
          "internalType": "address",
          "name": "",
          "type": "address"
        }
      ],
      "stateMutability": "view",
      "type": "function"
    },
    {
      "inputs": [
        {
          "internalType": "uint256",
          "name": "numbneuro",
          "type": "uint256"
        },
        {
          "internalType": "uint256",
          "name": "astatembly",
          "type": "uint256"
        }
      ],
      "name": "initneural",
      "outputs": [],
      "stateMutability": "nonpayable",
      "type": "function"
    },
    {
      "inputs": [
        {
          "internalType": "address",
          "name": "owner",
          "type": "address"
        },
        {
          "internalType": "address",
          "name": "operator",
          "type": "address"
        }
      ],
      "name": "isApprovedForAll",
      "outputs": [
        {
          "internalType": "bool",
          "name": "isOperator",
          "type": "bool"
        }
      ],
      "stateMutability": "view",
      "type": "function"
    },
    {
      "inputs": [
        {
          "internalType": "uint256",
          "name": "num",
          "type": "uint256"
        }
      ],
      "name": "mint",
      "outputs": [],
      "stateMutability": "nonpayable",
      "type": "function"
    },
    {
      "inputs": [],
      "name": "name",
      "outputs": [
        {
          "internalType": "string",
          "name": "",
          "type": "string"
        }
      ],
      "stateMutability": "pure",
      "type": "function"
    },
    {
      "inputs": [
        {
          "internalType": "uint256",
          "name": "id",
          "type": "uint256"
        }
      ],
      "name": "ownerOf",
      "outputs": [
        {
          "internalType": "address",
          "name": "owner",
          "type": "address"
        }
      ],
      "stateMutability": "view",
      "type": "function"
    },
    {
      "inputs": [
        {
          "internalType": "string",
          "name": "initialPrefix",
          "type": "string"
        }
      ],
      "name": "postUpgrade",
      "outputs": [],
      "stateMutability": "nonpayable",
      "type": "function"
    },
    {
      "inputs": [
        {
          "internalType": "address",
          "name": "from",
          "type": "address"
        },
        {
          "internalType": "address",
          "name": "to",
          "type": "address"
        },
        {
          "internalType": "uint256[]",
          "name": "ids",
          "type": "uint256[]"
        },
        {
          "internalType": "bytes",
          "name": "data",
          "type": "bytes"
        }
      ],
      "name": "safeBatchTransferFrom",
      "outputs": [],
      "stateMutability": "nonpayable",
      "type": "function"
    },
    {
      "inputs": [
        {
          "internalType": "address",
          "name": "from",
          "type": "address"
        },
        {
          "internalType": "address",
          "name": "to",
          "type": "address"
        },
        {
          "internalType": "uint256",
          "name": "id",
          "type": "uint256"
        }
      ],
      "name": "safeTransferFrom",
      "outputs": [],
      "stateMutability": "nonpayable",
      "type": "function"
    },
    {
      "inputs": [
        {
          "internalType": "address",
          "name": "from",
          "type": "address"
        },
        {
          "internalType": "address",
          "name": "to",
          "type": "address"
        },
        {
          "internalType": "uint256",
          "name": "id",
          "type": "uint256"
        },
        {
          "internalType": "bytes",
          "name": "data",
          "type": "bytes"
        }
      ],
      "name": "safeTransferFrom",
      "outputs": [],
      "stateMutability": "nonpayable",
      "type": "function"
    },
    {
      "inputs": [
        {
          "internalType": "address",
          "name": "operator",
          "type": "address"
        },
        {
          "internalType": "bool",
          "name": "approved",
          "type": "bool"
        }
      ],
      "name": "setApprovalForAll",
      "outputs": [],
      "stateMutability": "nonpayable",
      "type": "function"
    },
    {
      "inputs": [
        {
          "internalType": "address",
          "name": "sender",
          "type": "address"
        },
        {
          "internalType": "address",
          "name": "operator",
          "type": "address"
        },
        {
          "internalType": "bool",
          "name": "approved",
          "type": "bool"
        }
      ],
      "name": "setApprovalForAllFor",
      "outputs": [],
      "stateMutability": "nonpayable",
      "type": "function"
    },
    {
      "inputs": [
        {
          "internalType": "bytes4",
          "name": "id",
          "type": "bytes4"
        }
      ],
      "name": "supportsInterface",
      "outputs": [
        {
          "internalType": "bool",
          "name": "",
          "type": "bool"
        }
      ],
      "stateMutability": "pure",
      "type": "function"
    },
    {
      "inputs": [],
      "name": "symbol",
      "outputs": [
        {
          "internalType": "string",
          "name": "",
          "type": "string"
        }
      ],
      "stateMutability": "pure",
      "type": "function"
    },
    {
      "inputs": [
        {
          "internalType": "uint256",
          "name": "numbneuro",
          "type": "uint256"
        },
        {
          "internalType": "uint256",
          "name": "astatembly",
          "type": "uint256"
        }
      ],
      "name": "test",
      "outputs": [],
      "stateMutability": "nonpayable",
      "type": "function"
    },
    {
      "inputs": [
        {
          "internalType": "uint256",
          "name": "tokenId",
          "type": "uint256"
        }
      ],
      "name": "tokenURI",
      "outputs": [
        {
          "internalType": "string",
          "name": "",
          "type": "string"
        }
      ],
      "stateMutability": "view",
      "type": "function"
    },
    {
      "inputs": [
        {
          "internalType": "uint256",
          "name": "numbneuro",
          "type": "uint256"
        },
        {
          "internalType": "uint256",
          "name": "astatembly",
          "type": "uint256"
        },
        {
          "internalType": "uint256",
          "name": "pat2",
          "type": "uint256"
        }
      ],
      "name": "trainer",
      "outputs": [],
      "stateMutability": "nonpayable",
      "type": "function"
    },
    {
      "inputs": [
        {
          "internalType": "address",
          "name": "from",
          "type": "address"
        },
        {
          "internalType": "address",
          "name": "to",
          "type": "address"
        },
        {
          "internalType": "uint256",
          "name": "id",
          "type": "uint256"
        }
      ],
      "name": "transferFrom",
      "outputs": [],
      "stateMutability": "nonpayable",
      "type": "function"
    }
  ],
  "contractName": "Neuro721",
  "sourceName": "src/Neuro721.sol",
  "bytecode": "0x608060405234801562000010575f80fd5b5060405162004eaf38038062004eaf8339818101604052810190620000369190620002ce565b62000047816200004e60201b60201c565b5062000638565b5f6200005f6200012160201b60201c565b90505f73ffffffffffffffffffffffffffffffffffffffff168173ffffffffffffffffffffffffffffffffffffffff1603620000d25773ffffffffffffffffffffffffffffffffffffffff7fb53127684a568b3173ae13b9f8a6016e243e63b6e8ee1178d6a717850b5d6103556200010b565b8073ffffffffffffffffffffffffffffffffffffffff163373ffffffffffffffffffffffffffffffffffffffff16146200010a575f80fd5b5b81600590816200011c919062000554565b505050565b5f7fb53127684a568b3173ae13b9f8a6016e243e63b6e8ee1178d6a717850b5d610354905090565b5f604051905090565b5f80fd5b5f80fd5b5f80fd5b5f80fd5b5f601f19601f8301169050919050565b7f4e487b71000000000000000000000000000000000000000000000000000000005f52604160045260245ffd5b620001aa8262000162565b810181811067ffffffffffffffff82111715620001cc57620001cb62000172565b5b80604052505050565b5f620001e062000149565b9050620001ee82826200019f565b919050565b5f67ffffffffffffffff82111562000210576200020f62000172565b5b6200021b8262000162565b9050602081019050919050565b5f5b83811015620002475780820151818401526020810190506200022a565b5f8484015250505050565b5f620002686200026284620001f3565b620001d5565b9050828152602081018484840111156200028757620002866200015e565b5b6200029484828562000228565b509392505050565b5f82601f830112620002b357620002b26200015a565b5b8151620002c584826020860162000252565b91505092915050565b5f60208284031215620002e657620002e562000152565b5b5f82015167ffffffffffffffff81111562000306576200030562000156565b5b62000314848285016200029c565b91505092915050565b5f81519050919050565b7f4e487b71000000000000000000000000000000000000000000000000000000005f52602260045260245ffd5b5f60028204905060018216806200036c57607f821691505b60208210810362000382576200038162000327565b5b50919050565b5f819050815f5260205f209050919050565b5f6020601f8301049050919050565b5f82821b905092915050565b5f60088302620003e67fffffffffffffffffffffffffffffffffffffffffffffffffffffffffffffffff82620003a9565b620003f28683620003a9565b95508019841693508086168417925050509392505050565b5f819050919050565b5f819050919050565b5f6200043c6200043662000430846200040a565b62000413565b6200040a565b9050919050565b5f819050919050565b62000457836200041c565b6200046f620004668262000443565b848454620003b5565b825550505050565b5f90565b6200048562000477565b620004928184846200044c565b505050565b5b81811015620004b957620004ad5f826200047b565b60018101905062000498565b5050565b601f8211156200050857620004d28162000388565b620004dd846200039a565b81016020851015620004ed578190505b62000505620004fc856200039a565b83018262000497565b50505b505050565b5f82821c905092915050565b5f6200052a5f19846008026200050d565b1980831691505092915050565b5f62000544838362000519565b9150826002028217905092915050565b6200055f826200031d565b67ffffffffffffffff8111156200057b576200057a62000172565b5b62000587825462000354565b62000594828285620004bd565b5f60209050601f831160018114620005ca575f8415620005b5578287015190505b620005c1858262000537565b86555062000630565b601f198416620005da8662000388565b5f5b828110156200060357848901518255600182019150602085019450602081019050620005dc565b868310156200062357848901516200061f601f89168262000519565b8355505b6001600288020188555050505b505050505050565b61486980620006465f395ff3fe608060405234801561000f575f80fd5b5060043610610156575f3560e01c806370a08231116100c1578063b1441ce61161007a578063b1441ce6146103a6578063b88d4fde146103c2578063c87b56dd146103de578063e985e9c51461040e578063eb8ac9211461043e578063eeb5a5d11461045a57610156565b806370a08231146102e857806379cc6790146103185780638cb8a0f71461033457806395d89b4114610350578063a0712d681461036e578063a22cb4651461038a57610156565b806328cfbd461161011357806328cfbd461461022c5780632b991746146102485780632bb0b3041461026457806342842e0e1461028057806342966c681461029c5780636352211e146102b857610156565b806301ffc9a71461015a57806306fdde031461018a578063081812fc146101a8578063095ea7b3146101d857806315ddc535146101f457806323b872dd14610210575b5f80fd5b610174600480360381019061016f9190612ea6565b610476565b6040516101819190612eeb565b60405180910390f35b610192610507565b60405161019f9190612f8e565b60405180910390f35b6101c260048036038101906101bd9190612fe1565b610544565b6040516101cf919061304b565b60405180910390f35b6101f260048036038101906101ed919061308e565b61060d565b005b61020e60048036038101906102099190613182565b6107a7565b005b61022a60048036038101906102259190613225565b61083f565b005b61024660048036038101906102419190613182565b6108f2565b005b610262600480360381019061025d9190613225565b61098b565b005b61027e60048036038101906102799190613275565b610b8f565b005b61029a60048036038101906102959190613225565b610c50565b005b6102b660048036038101906102b19190612fe1565b610c6f565b005b6102d260048036038101906102cd9190612fe1565b610c85565b6040516102df919061304b565b60405180910390f35b61030260048036038101906102fd91906132b3565b610d04565b60405161030f91906132ed565b60405180910390f35b610332600480360381019061032d919061308e565b610db7565b005b61034e60048036038101906103499190613306565b610fae565b005b61035861135e565b6040516103659190612f8e565b60405180910390f35b61038860048036038101906103839190612fe1565b61139b565b005b6103a4600480360381019061039f9190613380565b611454565b005b6103c060048036038101906103bb91906134e6565b611463565b005b6103dc60048036038101906103d791906135cb565b611529565b005b6103f860048036038101906103f39190612fe1565b6115b6565b6040516104059190612f8e565b60405180910390f35b6104286004803603810190610423919061364b565b6116d2565b6040516104359190612eeb565b60405180910390f35b61045860048036038101906104539190613275565b611760565b005b610474600480360381019061046f9190613689565b611977565b005b5f6301ffc9a760e01b827bffffffffffffffffffffffffffffffffffffffffffffffffffffffff191614806104d057506380ac58cd60e01b827bffffffffffffffffffffffffffffffffffffffffffffffffffffffff1916145b806105005750635b5e139f60e01b827bffffffffffffffffffffffffffffffffffffffffffffffffffffffff1916145b9050919050565b60606040518060400160405280600881526020017f486f706669656c64000000000000000000000000000000000000000000000000815250905090565b5f805f61055084611a63565b915091505f73ffffffffffffffffffffffffffffffffffffffff168273ffffffffffffffffffffffffffffffffffffffff16036105c2576040517f08c379a00000000000000000000000000000000000000000000000000000000081526004016105b990613723565b60405180910390fd5b80156106025760035f8581526020019081526020015f205f9054906101000a900473ffffffffffffffffffffffffffffffffffffffff1692505050610608565b5f925050505b919050565b5f60015f61061a84611ae3565b81526020019081526020015f205490505f8190505f73ffffffffffffffffffffffffffffffffffffffff168173ffffffffffffffffffffffffffffffffffffffff160361069c576040517f08c379a000000000000000000000000000000000000000000000000000000000815260040161069390613723565b60405180910390fd5b3373ffffffffffffffffffffffffffffffffffffffff168173ffffffffffffffffffffffffffffffffffffffff161480610757575060025f8273ffffffffffffffffffffffffffffffffffffffff1673ffffffffffffffffffffffffffffffffffffffff1681526020019081526020015f205f3373ffffffffffffffffffffffffffffffffffffffff1673ffffffffffffffffffffffffffffffffffffffff1681526020019081526020015f205f9054906101000a900460ff165b610796576040517f08c379a000000000000000000000000000000000000000000000000000000000815260040161078d9061378b565b60405180910390fd5b6107a1828585611aec565b50505050565b61083786868686808060200260200160405190810160405280939291908181526020018383602002808284375f81840152601f19601f8201169050808301925050505050505085858080601f0160208091040260200160405190810160405280939291908181526020018383808284375f81840152601f19601f820116905080830192505050505050505f611bf2565b505050505050565b61084a8383836120ef565b6108558383836123b6565b6108748273ffffffffffffffffffffffffffffffffffffffff166124dd565b801561088d575061088c82635e8bf64460e01b6124ff565b5b156108ed576108ad3384848460405180602001604052805f8152506125c0565b6108ec576040517f08c379a00000000000000000000000000000000000000000000000000000000081526004016108e3906137f3565b60405180910390fd5b5b505050565b61098386868686808060200260200160405190810160405280939291908181526020018383602002808284375f81840152601f19601f8201169050808301925050505050505085858080601f0160208091040260200160405190810160405280939291908181526020018383808284375f81840152601f19601f820116905080830192505050505050506001611bf2565b505050505050565b5f60015f61099884611ae3565b81526020019081526020015f205490505f73ffffffffffffffffffffffffffffffffffffffff168473ffffffffffffffffffffffffffffffffffffffff1603610a16576040517f08c379a0000000000000000000000000000000000000000000000000000000008152600401610a0d9061385b565b60405180910390fd5b8373ffffffffffffffffffffffffffffffffffffffff163373ffffffffffffffffffffffffffffffffffffffff161480610ad1575060025f8573ffffffffffffffffffffffffffffffffffffffff1673ffffffffffffffffffffffffffffffffffffffff1681526020019081526020015f205f3373ffffffffffffffffffffffffffffffffffffffff1673ffffffffffffffffffffffffffffffffffffffff1681526020019081526020015f205f9054906101000a900460ff165b610b10576040517f08c379a0000000000000000000000000000000000000000000000000000000008152600401610b079061378b565b60405180910390fd5b8373ffffffffffffffffffffffffffffffffffffffff168173ffffffffffffffffffffffffffffffffffffffff1614610b7e576040517f08c379a0000000000000000000000000000000000000000000000000000000008152600401610b75906138c3565b60405180910390fd5b610b89818484611aec565b50505050565b610b97612e1d565b5f5b83811015610c4a575f60018285901c1690505f7fffffffffffffffffffffffffffffffffffffffffffffffffffffffffffffffff905060018203610bdc57600190505b80848460198110610bf057610bef6138e1565b5b6020020181815250508060065f600186610c0a919061393b565b81526020019081526020015f205f81548110610c2957610c286138e1565b5b905f5260205f20018190555050508080610c429061396e565b915050610b99565b50505050565b610c6a83838360405180602001604052805f815250611529565b505050565b610c8233610c7c83612697565b836126e6565b50565b5f610c8f82612697565b90505f73ffffffffffffffffffffffffffffffffffffffff168173ffffffffffffffffffffffffffffffffffffffff1603610cff576040517f08c379a0000000000000000000000000000000000000000000000000000000008152600401610cf6906139ff565b60405180910390fd5b919050565b5f8073ffffffffffffffffffffffffffffffffffffffff168273ffffffffffffffffffffffffffffffffffffffff1603610d73576040517f08c379a0000000000000000000000000000000000000000000000000000000008152600401610d6a90613a67565b60405180910390fd5b5f808373ffffffffffffffffffffffffffffffffffffffff1673ffffffffffffffffffffffffffffffffffffffff1681526020019081526020015f20549050919050565b5f73ffffffffffffffffffffffffffffffffffffffff168273ffffffffffffffffffffffffffffffffffffffff1603610e25576040517f08c379a0000000000000000000000000000000000000000000000000000000008152600401610e1c90613acf565b60405180910390fd5b5f80610e3083611a63565b915091508373ffffffffffffffffffffffffffffffffffffffff163373ffffffffffffffffffffffffffffffffffffffff161480610ed25750808015610ed157503373ffffffffffffffffffffffffffffffffffffffff1660035f8581526020019081526020015f205f9054906101000a900473ffffffffffffffffffffffffffffffffffffffff1673ffffffffffffffffffffffffffffffffffffffff16145b5b80610f5e575060025f8573ffffffffffffffffffffffffffffffffffffffff1673ffffffffffffffffffffffffffffffffffffffff1681526020019081526020015f205f3373ffffffffffffffffffffffffffffffffffffffff1673ffffffffffffffffffffffffffffffffffffffff1681526020019081526020015f205f9054906101000a900460ff165b610f9d576040517f08c379a0000000000000000000000000000000000000000000000000000000008152600401610f9490613b37565b60405180910390fd5b610fa88483856126e6565b50505050565b610fb6612e1d565b610fbe612e1d565b5f5b858110156110a7575f60018287901c1690505f7fffffffffffffffffffffffffffffffffffffffffffffffffffffffffffffffff90506001820361100357600190505b80858460198110611017576110166138e1565b5b60200201818152505060018387901c16915060018203611054576001848460198110611046576110456138e1565b5b602002018181525050611092565b7fffffffffffffffffffffffffffffffffffffffffffffffffffffffffffffffff848460198110611088576110876138e1565b5b6020020181815250505b5050808061109f9061396e565b915050610fc0565b505f600a90505f805b6002811015611354575f5b88811015611340575f92505f6001826110d4919061393b565b90505b898110156111ee57808203156111db5760028682601981106110fc576110fb6138e1565b5b6020020151878460198110611114576111136138e1565b5b60200201516111239190613b5e565b888360198110611136576111356138e1565b5b602002015189856019811061114e5761114d6138e1565b5b602002015161115d9190613b5e565b6111679190613bd4565b6111719190613c42565b60075f8481526020019081526020015f205f8381526020019081526020015f208190555060075f8381526020019081526020015f205f8281526020019081526020015f205460075f8381526020019081526020015f205f8481526020019081526020015f20819055505b80806111e69061396e565b9150506110d7565b505f5b8981101561128557808203156112725760065f600184611211919061393b565b81526020019081526020015f205f815481106112305761122f6138e1565b5b905f5260205f20015460075f8481526020019081526020015f205f8381526020019081526020015f20546112649190613b5e565b8461126f9190613bd4565b93505b808061127d9061396e565b9150506111f1565b505f83121561132d5760065f60018361129e919061393b565b81526020019081526020015f205f815481106112bd576112bc6138e1565b5b905f5260205f2001547fffffffffffffffffffffffffffffffffffffffffffffffffffffffffffffffff6112f19190613b5e565b60065f600184611301919061393b565b81526020019081526020015f205f815481106113205761131f6138e1565b5b905f5260205f2001819055505b80806113389061396e565b9150506110bb565b50808061134c9061396e565b9150506110b0565b5050505050505050565b60606040518060400160405280600381526020017f48666e0000000000000000000000000000000000000000000000000000000000815250905090565b5f60045490505f5b828110156113d65781806113b69061396e565b9250506113c3338361287e565b80806113ce9061396e565b9150506113a3565b505f7fffffffffffffffffffffffffffffffffffffffffffffffffffffffffffffffff90505f6002426114099190613caa565b0361141357600190505b60065f8381526020019081526020015f2081908060018154018082558091505060019003905f5260205f20015f909190919091505581600481905550505050565b61145f3383836129ba565b5050565b5f61146c612ab3565b90505f73ffffffffffffffffffffffffffffffffffffffff168173ffffffffffffffffffffffffffffffffffffffff16036114dd5773ffffffffffffffffffffffffffffffffffffffff7fb53127684a568b3173ae13b9f8a6016e243e63b6e8ee1178d6a717850b5d610355611515565b8073ffffffffffffffffffffffffffffffffffffffff163373ffffffffffffffffffffffffffffffffffffffff1614611514575f80fd5b5b81600590816115249190613ed4565b505050565b6115348484846120ef565b61153f8484846123b6565b61155e8373ffffffffffffffffffffffffffffffffffffffff166124dd565b156115b05761157033858585856125c0565b6115af576040517f08c379a00000000000000000000000000000000000000000000000000000000081526004016115a6906137f3565b60405180910390fd5b5b50505050565b60605f6115c283612adb565b90505f600167ffffffffffffffff8111156115e0576115df6133c2565b5b6040519080825280601f01601f1916602001820160405280156116125781602001600182028036833780820191505090505b509050602d60f81b815f8151811061162d5761162c6138e1565b5b60200101907effffffffffffffffffffffffffffffffffffffffffffffffffffffffffffff191690815f1a9053505f60405180602001604052805f81525090505f60065f8781526020019081526020015f205f81548110611691576116906138e1565b5b905f5260205f20015412156116a4578190505b8283826040516020016116b993929190614105565b6040516020818303038152906040529350505050919050565b5f60025f8473ffffffffffffffffffffffffffffffffffffffff1673ffffffffffffffffffffffffffffffffffffffff1681526020019081526020015f205f8373ffffffffffffffffffffffffffffffffffffffff1673ffffffffffffffffffffffffffffffffffffffff1681526020019081526020015f205f9054906101000a900460ff16905092915050565b611768612e1d565b5f805b848110156117e0575f60018286901c1690505f7fffffffffffffffffffffffffffffffffffffffffffffffffffffffffffffffff9050600182036117ae57600190505b808584601981106117c2576117c16138e1565b5b602002018181525050505080806117d89061396e565b91505061176b565b505f5b60018110156118ff575f5b858110156118eb575f92505f5b8681101561186f578082031561185c5784826019811061181e5761181d6138e1565b5b602002015160075f8481526020019081526020015f205f8381526020019081526020015f205461184e9190613b5e565b846118599190613bd4565b93505b80806118679061396e565b9150506117fb565b505f8312156118d85783816019811061188b5761188a6138e1565b5b60200201517fffffffffffffffffffffffffffffffffffffffffffffffffffffffffffffffff6118bb9190613b5e565b8482601981106118ce576118cd6138e1565b5b6020020181815250505b80806118e39061396e565b9150506117ee565b5080806118f79061396e565b9150506117e3565b505f5b848110156119705782816019811061191d5761191c6138e1565b5b602002015160065f600184611932919061393b565b81526020019081526020015f205f81548110611951576119506138e1565b5b905f5260205f20018190555080806119689061396e565b915050611902565b5050505050565b5f73ffffffffffffffffffffffffffffffffffffffff168373ffffffffffffffffffffffffffffffffffffffff16036119e5576040517f08c379a00000000000000000000000000000000000000000000000000000000081526004016119dc906141ab565b60405180910390fd5b8273ffffffffffffffffffffffffffffffffffffffff163373ffffffffffffffffffffffffffffffffffffffff1614611a53576040517f08c379a0000000000000000000000000000000000000000000000000000000008152600401611a4a90614213565b60405180910390fd5b611a5e8383836129ba565b505050565b5f805f60015f611a7286611ae3565b81526020019081526020015f205490507401000000000000000000000000000000000000000080821603611aa8575f9250611aac565b8092505b60017f800000000000000000000000000000000000000000000000000000000000000082611ada9190614231565b14915050915091565b5f819050919050565b5f8390505f73ffffffffffffffffffffffffffffffffffffffff168373ffffffffffffffffffffffffffffffffffffffff1603611b3457611b2f8285835f612c34565b611b91565b611b418285836001612c34565b8260035f8481526020019081526020015f205f6101000a81548173ffffffffffffffffffffffffffffffffffffffff021916908373ffffffffffffffffffffffffffffffffffffffff1602179055505b818373ffffffffffffffffffffffffffffffffffffffff168273ffffffffffffffffffffffffffffffffffffffff167f8c5be1e5ebec7d5bd14f71427d1e84f3dd0314c0f7b2291e5b200ac8c7c3b92560405160405180910390a450505050565b5f8573ffffffffffffffffffffffffffffffffffffffff163373ffffffffffffffffffffffffffffffffffffffff161480611cae575060025f8773ffffffffffffffffffffffffffffffffffffffff1673ffffffffffffffffffffffffffffffffffffffff1681526020019081526020015f205f3373ffffffffffffffffffffffffffffffffffffffff1673ffffffffffffffffffffffffffffffffffffffff1681526020019081526020015f205f9054906101000a900460ff165b90505f73ffffffffffffffffffffffffffffffffffffffff168673ffffffffffffffffffffffffffffffffffffffff1603611d1e576040517f08c379a0000000000000000000000000000000000000000000000000000000008152600401611d1590613acf565b60405180910390fd5b5f73ffffffffffffffffffffffffffffffffffffffff168573ffffffffffffffffffffffffffffffffffffffff1603611d8c576040517f08c379a0000000000000000000000000000000000000000000000000000000008152600401611d83906142ab565b60405180910390fd5b5f845190505f5b81811015611f7b575f868281518110611daf57611dae6138e1565b5b602002602001015190505f80611dc483611a63565b915091508a73ffffffffffffffffffffffffffffffffffffffff168273ffffffffffffffffffffffffffffffffffffffff1614611e36576040517f08c379a0000000000000000000000000000000000000000000000000000000008152600401611e2d90614313565b60405180910390fd5b8580611ea65750808015611ea557503373ffffffffffffffffffffffffffffffffffffffff1660035f8581526020019081526020015f205f9054906101000a900473ffffffffffffffffffffffffffffffffffffffff1673ffffffffffffffffffffffffffffffffffffffff16145b5b611ee5576040517f08c379a0000000000000000000000000000000000000000000000000000000008152600401611edc9061437b565b60405180910390fd5b611f0a8360015f611ef587611ae3565b81526020019081526020015f20548c5f612c34565b828a73ffffffffffffffffffffffffffffffffffffffff168c73ffffffffffffffffffffffffffffffffffffffff167fddf252ad1be2c89b69c2b068fc378daa952ba7f163c4a11628f55a4df523b3ef60405160405180910390a45050508080611f739061396e565b915050611d93565b508573ffffffffffffffffffffffffffffffffffffffff168773ffffffffffffffffffffffffffffffffffffffff161461205457805f808973ffffffffffffffffffffffffffffffffffffffff1673ffffffffffffffffffffffffffffffffffffffff1681526020019081526020015f205f828254611ffa9190614399565b92505081905550805f808873ffffffffffffffffffffffffffffffffffffffff1673ffffffffffffffffffffffffffffffffffffffff1681526020019081526020015f205f82825461204c919061393b565b925050819055505b6120738673ffffffffffffffffffffffffffffffffffffffff166124dd565b801561209457508280612093575061209286635e8bf64460e01b6124ff565b5b5b156120e6576120a63388888888612d46565b6120e5576040517f08c379a00000000000000000000000000000000000000000000000000000000081526004016120dc90614416565b60405180910390fd5b5b50505050505050565b5f806120fa83611a63565b915091505f73ffffffffffffffffffffffffffffffffffffffff168273ffffffffffffffffffffffffffffffffffffffff160361216c576040517f08c379a000000000000000000000000000000000000000000000000000000000815260040161216390613723565b60405180910390fd5b8473ffffffffffffffffffffffffffffffffffffffff168273ffffffffffffffffffffffffffffffffffffffff16146121da576040517f08c379a00000000000000000000000000000000000000000000000000000000081526004016121d19061447e565b60405180910390fd5b5f73ffffffffffffffffffffffffffffffffffffffff168473ffffffffffffffffffffffffffffffffffffffff1603612248576040517f08c379a000000000000000000000000000000000000000000000000000000000815260040161223f906142ab565b60405180910390fd5b8473ffffffffffffffffffffffffffffffffffffffff163373ffffffffffffffffffffffffffffffffffffffff16146123af5760025f8673ffffffffffffffffffffffffffffffffffffffff1673ffffffffffffffffffffffffffffffffffffffff1681526020019081526020015f205f3373ffffffffffffffffffffffffffffffffffffffff1673ffffffffffffffffffffffffffffffffffffffff1681526020019081526020015f205f9054906101000a900460ff168061236f575080801561236e57503373ffffffffffffffffffffffffffffffffffffffff1660035f8581526020019081526020015f205f9054906101000a900473ffffffffffffffffffffffffffffffffffffffff1673ffffffffffffffffffffffffffffffffffffffff16145b5b6123ae576040517f08c379a00000000000000000000000000000000000000000000000000000000081526004016123a5906144e6565b60405180910390fd5b5b5050505050565b5f808473ffffffffffffffffffffffffffffffffffffffff1673ffffffffffffffffffffffffffffffffffffffff1681526020019081526020015f205f81548092919061240290614504565b91905055505f808373ffffffffffffffffffffffffffffffffffffffff1673ffffffffffffffffffffffffffffffffffffffff1681526020019081526020015f205f8154809291906124539061396e565b919050555061247d8160015f61246885611ae3565b81526020019081526020015f2054845f612c34565b808273ffffffffffffffffffffffffffffffffffffffff168473ffffffffffffffffffffffffffffffffffffffff167fddf252ad1be2c89b69c2b068fc378daa952ba7f163c4a11628f55a4df523b3ef60405160405180910390a4505050565b5f808273ffffffffffffffffffffffffffffffffffffffff163b119050919050565b5f805f806301ffc9a760e01b8560405160240161251c919061453a565b604051602081830303815290604052907bffffffffffffffffffffffffffffffffffffffffffffffffffffffff19166020820180517bffffffffffffffffffffffffffffffffffffffffffffffffffffffff838183161783525050505090508060200181516040515f815260208183858c612710fa955080519450505050609e5a116125ab576125aa614553565b5b8280156125b55750815b935050505092915050565b5f808473ffffffffffffffffffffffffffffffffffffffff1663150b7a02888887876040518563ffffffff1660e01b815260040161260194939291906145d2565b6020604051808303815f875af115801561261d573d5f803e3d5ffd5b505050506040513d601f19601f820116820180604052508101906126419190614630565b905063150b7a0260e01b7bffffffffffffffffffffffffffffffffffffffffffffffffffffffff1916817bffffffffffffffffffffffffffffffffffffffffffffffffffffffff19161491505095945050505050565b5f8060015f6126a585611ae3565b81526020019081526020015f2054905074010000000000000000000000000000000000000000808216036126dc575f9150506126e1565b809150505b919050565b8173ffffffffffffffffffffffffffffffffffffffff168373ffffffffffffffffffffffffffffffffffffffff1614612754576040517f08c379a000000000000000000000000000000000000000000000000000000000815260040161274b906146a5565b60405180910390fd5b5f61275e82611ae3565b90507401000000000000000000000000000000000000000060017f80000000000000000000000000000000000000000000000000000000000000006127a39190614399565b60015f8481526020019081526020015f2054161760015f8381526020019081526020015f20819055505f808573ffffffffffffffffffffffffffffffffffffffff1673ffffffffffffffffffffffffffffffffffffffff1681526020019081526020015f205f81548092919061281890614504565b9190505550815f73ffffffffffffffffffffffffffffffffffffffff168573ffffffffffffffffffffffffffffffffffffffff167fddf252ad1be2c89b69c2b068fc378daa952ba7f163c4a11628f55a4df523b3ef60405160405180910390a450505050565b5f61288882611ae3565b90505f60015f8381526020019081526020015f2054146128dd576040517f08c379a00000000000000000000000000000000000000000000000000000000081526004016128d49061470d565b60405180910390fd5b8273ffffffffffffffffffffffffffffffffffffffff1660015f8381526020019081526020015f20819055505f808473ffffffffffffffffffffffffffffffffffffffff1673ffffffffffffffffffffffffffffffffffffffff1681526020019081526020015f205f8154809291906129559061396e565b9190505550818373ffffffffffffffffffffffffffffffffffffffff165f73ffffffffffffffffffffffffffffffffffffffff167fddf252ad1be2c89b69c2b068fc378daa952ba7f163c4a11628f55a4df523b3ef60405160405180910390a4505050565b8060025f8573ffffffffffffffffffffffffffffffffffffffff1673ffffffffffffffffffffffffffffffffffffffff1681526020019081526020015f205f8473ffffffffffffffffffffffffffffffffffffffff1673ffffffffffffffffffffffffffffffffffffffff1681526020019081526020015f205f6101000a81548160ff0219169083151502179055508173ffffffffffffffffffffffffffffffffffffffff168373ffffffffffffffffffffffffffffffffffffffff167f17307eab39ab6107e8899845ad3d59bd9653f200f220920489ca2b5937696c3183604051612aa69190612eeb565b60405180910390a3505050565b5f7fb53127684a568b3173ae13b9f8a6016e243e63b6e8ee1178d6a717850b5d610354905090565b60605f8203612b21576040518060400160405280600181526020017f30000000000000000000000000000000000000000000000000000000000000008152509050612c2f565b5f8290505f5b5f8214612b4f578080600101915050600a8281612b4757612b46613c15565b5b049150612b27565b5f8167ffffffffffffffff811115612b6a57612b696133c2565b5b6040519080825280601f01601f191660200182016040528015612b9c5781602001600182028036833780820191505090505b5090505f6001830390505b5f8614612c2757600a8681612bbf57612bbe613c15565b5b0660300160f81b82828060019003935081518110612be057612bdf6138e1565b5b60200101907effffffffffffffffffffffffffffffffffffffffffffffffffffffffffffff191690815f1a905350600a8681612c1f57612c1e613c15565b5b049550612ba7565b819450505050505b919050565b8015612cb9578173ffffffffffffffffffffffffffffffffffffffff167f80000000000000000000000000000000000000000000000000000000000000007fffffffffffffffffffffffff00000000000000000000000000000000000000008516171760015f612ca387611ae3565b81526020019081526020015f2081905550612d40565b8173ffffffffffffffffffffffffffffffffffffffff1660017f8000000000000000000000000000000000000000000000000000000000000000612cfd9190614399565b7fffffffffffffffffffffffff00000000000000000000000000000000000000008516161760015f612d2e87611ae3565b81526020019081526020015f20819055505b50505050565b5f808473ffffffffffffffffffffffffffffffffffffffff16634b808c46888887876040518563ffffffff1660e01b8152600401612d8794939291906147e2565b6020604051808303815f875af1158015612da3573d5f803e3d5ffd5b505050506040513d601f19601f82011682018060405250810190612dc79190614630565b9050634b808c4660e01b7bffffffffffffffffffffffffffffffffffffffffffffffffffffffff1916817bffffffffffffffffffffffffffffffffffffffffffffffffffffffff19161491505095945050505050565b604051806103200160405280601990602082028036833780820191505090505090565b5f604051905090565b5f80fd5b5f80fd5b5f7fffffffff0000000000000000000000000000000000000000000000000000000082169050919050565b612e8581612e51565b8114612e8f575f80fd5b50565b5f81359050612ea081612e7c565b92915050565b5f60208284031215612ebb57612eba612e49565b5b5f612ec884828501612e92565b91505092915050565b5f8115159050919050565b612ee581612ed1565b82525050565b5f602082019050612efe5f830184612edc565b92915050565b5f81519050919050565b5f82825260208201905092915050565b5f5b83811015612f3b578082015181840152602081019050612f20565b5f8484015250505050565b5f601f19601f8301169050919050565b5f612f6082612f04565b612f6a8185612f0e565b9350612f7a818560208601612f1e565b612f8381612f46565b840191505092915050565b5f6020820190508181035f830152612fa68184612f56565b905092915050565b5f819050919050565b612fc081612fae565b8114612fca575f80fd5b50565b5f81359050612fdb81612fb7565b92915050565b5f60208284031215612ff657612ff5612e49565b5b5f61300384828501612fcd565b91505092915050565b5f73ffffffffffffffffffffffffffffffffffffffff82169050919050565b5f6130358261300c565b9050919050565b6130458161302b565b82525050565b5f60208201905061305e5f83018461303c565b92915050565b61306d8161302b565b8114613077575f80fd5b50565b5f8135905061308881613064565b92915050565b5f80604083850312156130a4576130a3612e49565b5b5f6130b18582860161307a565b92505060206130c285828601612fcd565b9150509250929050565b5f80fd5b5f80fd5b5f80fd5b5f8083601f8401126130ed576130ec6130cc565b5b8235905067ffffffffffffffff81111561310a576131096130d0565b5b602083019150836020820283011115613126576131256130d4565b5b9250929050565b5f8083601f840112613142576131416130cc565b5b8235905067ffffffffffffffff81111561315f5761315e6130d0565b5b60208301915083600182028301111561317b5761317a6130d4565b5b9250929050565b5f805f805f806080878903121561319c5761319b612e49565b5b5f6131a989828a0161307a565b96505060206131ba89828a0161307a565b955050604087013567ffffffffffffffff8111156131db576131da612e4d565b5b6131e789828a016130d8565b9450945050606087013567ffffffffffffffff81111561320a57613209612e4d565b5b61321689828a0161312d565b92509250509295509295509295565b5f805f6060848603121561323c5761323b612e49565b5b5f6132498682870161307a565b935050602061325a8682870161307a565b925050604061326b86828701612fcd565b9150509250925092565b5f806040838503121561328b5761328a612e49565b5b5f61329885828601612fcd565b92505060206132a985828601612fcd565b9150509250929050565b5f602082840312156132c8576132c7612e49565b5b5f6132d58482850161307a565b91505092915050565b6132e781612fae565b82525050565b5f6020820190506133005f8301846132de565b92915050565b5f805f6060848603121561331d5761331c612e49565b5b5f61332a86828701612fcd565b935050602061333b86828701612fcd565b925050604061334c86828701612fcd565b9150509250925092565b61335f81612ed1565b8114613369575f80fd5b50565b5f8135905061337a81613356565b92915050565b5f806040838503121561339657613395612e49565b5b5f6133a38582860161307a565b92505060206133b48582860161336c565b9150509250929050565b5f80fd5b7f4e487b71000000000000000000000000000000000000000000000000000000005f52604160045260245ffd5b6133f882612f46565b810181811067ffffffffffffffff82111715613417576134166133c2565b5b80604052505050565b5f613429612e40565b905061343582826133ef565b919050565b5f67ffffffffffffffff821115613454576134536133c2565b5b61345d82612f46565b9050602081019050919050565b828183375f83830152505050565b5f61348a6134858461343a565b613420565b9050828152602081018484840111156134a6576134a56133be565b5b6134b184828561346a565b509392505050565b5f82601f8301126134cd576134cc6130cc565b5b81356134dd848260208601613478565b91505092915050565b5f602082840312156134fb576134fa612e49565b5b5f82013567ffffffffffffffff81111561351857613517612e4d565b5b613524848285016134b9565b91505092915050565b5f67ffffffffffffffff821115613547576135466133c2565b5b61355082612f46565b9050602081019050919050565b5f61356f61356a8461352d565b613420565b90508281526020810184848401111561358b5761358a6133be565b5b61359684828561346a565b509392505050565b5f82601f8301126135b2576135b16130cc565b5b81356135c284826020860161355d565b91505092915050565b5f805f80608085870312156135e3576135e2612e49565b5b5f6135f08782880161307a565b94505060206136018782880161307a565b935050604061361287828801612fcd565b925050606085013567ffffffffffffffff81111561363357613632612e4d565b5b61363f8782880161359e565b91505092959194509250565b5f806040838503121561366157613660612e49565b5b5f61366e8582860161307a565b925050602061367f8582860161307a565b9150509250929050565b5f805f606084860312156136a05761369f612e49565b5b5f6136ad8682870161307a565b93505060206136be8682870161307a565b92505060406136cf8682870161336c565b9150509250925092565b7f4e4f4e4558495354454e545f544f4b454e0000000000000000000000000000005f82015250565b5f61370d601183612f0e565b9150613718826136d9565b602082019050919050565b5f6020820190508181035f83015261373a81613701565b9050919050565b7f554e415554484f52495a45445f415050524f56414c00000000000000000000005f82015250565b5f613775601583612f0e565b915061378082613741565b602082019050919050565b5f6020820190508181035f8301526137a281613769565b9050919050565b7f4552433732315f5452414e534645525f52454a454354454400000000000000005f82015250565b5f6137dd601883612f0e565b91506137e8826137a9565b602082019050919050565b5f6020820190508181035f83015261380a816137d1565b9050919050565b7f5a45524f5f414444524553535f53454e444552000000000000000000000000005f82015250565b5f613845601383612f0e565b915061385082613811565b602082019050919050565b5f6020820190508181035f83015261387281613839565b9050919050565b7f4f574e45525f4e4f545f53454e444552000000000000000000000000000000005f82015250565b5f6138ad601083612f0e565b91506138b882613879565b602082019050919050565b5f6020820190508181035f8301526138da816138a1565b9050919050565b7f4e487b71000000000000000000000000000000000000000000000000000000005f52603260045260245ffd5b7f4e487b71000000000000000000000000000000000000000000000000000000005f52601160045260245ffd5b5f61394582612fae565b915061395083612fae565b92508282019050808211156139685761396761390e565b5b92915050565b5f61397882612fae565b91507fffffffffffffffffffffffffffffffffffffffffffffffffffffffffffffffff82036139aa576139a961390e565b5b600182019050919050565b7f4e4f4e4558495354414e545f544f4b454e0000000000000000000000000000005f82015250565b5f6139e9601183612f0e565b91506139f4826139b5565b602082019050919050565b5f6020820190508181035f830152613a16816139dd565b9050919050565b7f5a45524f5f414444524553535f4f574e455200000000000000000000000000005f82015250565b5f613a51601283612f0e565b9150613a5c82613a1d565b602082019050919050565b5f6020820190508181035f830152613a7e81613a45565b9050919050565b7f4e4f545f46524f4d5f5a45524f414444524553530000000000000000000000005f82015250565b5f613ab9601483612f0e565b9150613ac482613a85565b602082019050919050565b5f6020820190508181035f830152613ae681613aad565b9050919050565b7f554e415554484f52495a45445f4255524e0000000000000000000000000000005f82015250565b5f613b21601183612f0e565b9150613b2c82613aed565b602082019050919050565b5f6020820190508181035f830152613b4e81613b15565b9050919050565b5f819050919050565b5f613b6882613b55565b9150613b7383613b55565b9250828202613b8181613b55565b91507f800000000000000000000000000000000000000000000000000000000000000084145f84121615613bb857613bb761390e565b5b8282058414831517613bcd57613bcc61390e565b5b5092915050565b5f613bde82613b55565b9150613be983613b55565b92508282019050828112155f8312168382125f841215161715613c0f57613c0e61390e565b5b92915050565b7f4e487b71000000000000000000000000000000000000000000000000000000005f52601260045260245ffd5b5f613c4c82613b55565b9150613c5783613b55565b925082613c6757613c66613c15565b5b60015f0383147f800000000000000000000000000000000000000000000000000000000000000083141615613c9f57613c9e61390e565b5b828205905092915050565b5f613cb482612fae565b9150613cbf83612fae565b925082613ccf57613cce613c15565b5b828206905092915050565b7f4e487b71000000000000000000000000000000000000000000000000000000005f52602260045260245ffd5b5f6002820490506001821680613d1e57607f821691505b602082108103613d3157613d30613cda565b5b50919050565b5f819050815f5260205f209050919050565b5f6020601f8301049050919050565b5f82821b905092915050565b5f60088302613d937fffffffffffffffffffffffffffffffffffffffffffffffffffffffffffffffff82613d58565b613d9d8683613d58565b95508019841693508086168417925050509392505050565b5f819050919050565b5f613dd8613dd3613dce84612fae565b613db5565b612fae565b9050919050565b5f819050919050565b613df183613dbe565b613e05613dfd82613ddf565b848454613d64565b825550505050565b5f90565b613e19613e0d565b613e24818484613de8565b505050565b5b81811015613e4757613e3c5f82613e11565b600181019050613e2a565b5050565b601f821115613e8c57613e5d81613d37565b613e6684613d49565b81016020851015613e75578190505b613e89613e8185613d49565b830182613e29565b50505b505050565b5f82821c905092915050565b5f613eac5f1984600802613e91565b1980831691505092915050565b5f613ec48383613e9d565b9150826002028217905092915050565b613edd82612f04565b67ffffffffffffffff811115613ef657613ef56133c2565b5b613f008254613d07565b613f0b828285613e4b565b5f60209050601f831160018114613f3c575f8415613f2a578287015190505b613f348582613eb9565b865550613f9b565b601f198416613f4a86613d37565b5f5b82811015613f7157848901518255600182019150602085019450602081019050613f4c565b86831015613f8e5784890151613f8a601f891682613e9d565b8355505b6001600288020188555050505b505050505050565b5f81905092915050565b7f646174613a746578742f706c61696e2c7b226e616d65223a22546f6b656e20005f82015250565b5f613fe1601f83613fa3565b9150613fec82613fad565b601f82019050919050565b5f61400182612f04565b61400b8185613fa3565b935061401b818560208601612f1e565b80840191505092915050565b7f222c226465736372697074696f6e223a220000000000000000000000000000005f82015250565b5f61405b601183613fa3565b915061406682614027565b601182019050919050565b7f222c227374617465223a000000000000000000000000000000000000000000005f82015250565b5f6140a5600a83613fa3565b91506140b082614071565b600a82019050919050565b7f317d0000000000000000000000000000000000000000000000000000000000005f82015250565b5f6140ef600283613fa3565b91506140fa826140bb565b600282019050919050565b5f61410f82613fd5565b915061411b8286613ff7565b91506141268261404f565b91506141328285613ff7565b915061413d82614099565b91506141498284613ff7565b9150614154826140e3565b9150819050949350505050565b7f496e76616c69642073656e6465722061646472657373000000000000000000005f82015250565b5f614195601683612f0e565b91506141a082614161565b602082019050919050565b5f6020820190508181035f8301526141c281614189565b9050919050565b7f554e415554484f52495a45445f415050524f56455f464f525f414c4c000000005f82015250565b5f6141fd601c83612f0e565b9150614208826141c9565b602082019050919050565b5f6020820190508181035f83015261422a816141f1565b9050919050565b5f61423b82612fae565b915061424683612fae565b92508261425657614255613c15565b5b828204905092915050565b7f4e4f545f544f5f5a45524f4144445245535300000000000000000000000000005f82015250565b5f614295601283612f0e565b91506142a082614261565b602082019050919050565b5f6020820190508181035f8301526142c281614289565b9050919050565b7f42415443485452414e5346455246524f4d5f4e4f545f4f574e455200000000005f82015250565b5f6142fd601b83612f0e565b9150614308826142c9565b602082019050919050565b5f6020820190508181035f83015261432a816142f1565b9050919050565b7f4e4f545f415554484f52495a45440000000000000000000000000000000000005f82015250565b5f614365600e83612f0e565b915061437082614331565b602082019050919050565b5f6020820190508181035f83015261439281614359565b9050919050565b5f6143a382612fae565b91506143ae83612fae565b92508282039050818111156143c6576143c561390e565b5b92915050565b7f4552433732315f42415443485f5452414e534645525f52454a454354454400005f82015250565b5f614400601e83612f0e565b915061440b826143cc565b602082019050919050565b5f6020820190508181035f83015261442d816143f4565b9050919050565b7f434845434b5452414e534645525f4e4f545f4f574e45520000000000000000005f82015250565b5f614468601783612f0e565b915061447382614434565b602082019050919050565b5f6020820190508181035f8301526144958161445c565b9050919050565b7f554e415554484f52495a45445f5452414e5346455200000000000000000000005f82015250565b5f6144d0601583612f0e565b91506144db8261449c565b602082019050919050565b5f6020820190508181035f8301526144fd816144c4565b9050919050565b5f61450e82612fae565b91505f82036145205761451f61390e565b5b600182039050919050565b61453481612e51565b82525050565b5f60208201905061454d5f83018461452b565b92915050565b7f4e487b71000000000000000000000000000000000000000000000000000000005f52600160045260245ffd5b5f81519050919050565b5f82825260208201905092915050565b5f6145a482614580565b6145ae818561458a565b93506145be818560208601612f1e565b6145c781612f46565b840191505092915050565b5f6080820190506145e55f83018761303c565b6145f2602083018661303c565b6145ff60408301856132de565b8181036060830152614611818461459a565b905095945050505050565b5f8151905061462a81612e7c565b92915050565b5f6020828403121561464557614644612e49565b5b5f6146528482850161461c565b91505092915050565b7f4e4f545f4f574e455200000000000000000000000000000000000000000000005f82015250565b5f61468f600983612f0e565b915061469a8261465b565b602082019050919050565b5f6020820190508181035f8301526146bc81614683565b9050919050565b7f414c52454144595f4d494e5445440000000000000000000000000000000000005f82015250565b5f6146f7600e83612f0e565b9150614702826146c3565b602082019050919050565b5f6020820190508181035f830152614724816146eb565b9050919050565b5f81519050919050565b5f82825260208201905092915050565b5f819050602082019050919050565b61475d81612fae565b82525050565b5f61476e8383614754565b60208301905092915050565b5f602082019050919050565b5f6147908261472b565b61479a8185614735565b93506147a583614745565b805f5b838110156147d55781516147bc8882614763565b97506147c78361477a565b9250506001810190506147a8565b5085935050505092915050565b5f6080820190506147f55f83018761303c565b614802602083018661303c565b81810360408301526148148185614786565b90508181036060830152614828818461459a565b90509594505050505056fea26469706673582212201379fcb52741d2562c023dcc84788859137f2d256573b6272841efa7c00fa10e64736f6c63430008140033",
  "linkReferences": {},
  "deployedLinkReferences": {},
  "devdoc": {
    "events": {
      "Approval(address,address,uint256)": {
        "details": "Emitted when `owner` enables `approved` to manage the `tokenId` token."
      },
      "ApprovalForAll(address,address,bool)": {
        "details": "Emitted when `owner` enables or disables (`approved`) `operator` to manage all of its assets."
      },
      "Transfer(address,address,uint256)": {
        "details": "Emitted when `tokenId` token is transferred from `from` to `to`."
      }
    },
    "kind": "dev",
    "methods": {
      "approve(address,uint256)": {
        "params": {
          "id": "The id of the token.",
          "operator": "The address receiving the approval."
        }
      },
      "approveFor(address,address,uint256)": {
        "params": {
          "id": "The id of the token.",
          "operator": "The address receiving the approval.",
          "sender": "The address giving the approval."
        }
      },
      "balanceOf(address)": {
        "params": {
          "owner": "The address to look for."
        },
        "returns": {
          "_0": "The number of tokens owned by the address."
        }
      },
      "batchTransferFrom(address,address,uint256[],bytes)": {
        "params": {
          "data": "Additional data.",
          "from": "The sender of the token.",
          "ids": "The ids of the tokens.",
          "to": "The recipient of the token."
        }
      },
      "burn(uint256)": {
        "params": {
          "id": "The token which will be burnt."
        }
      },
      "burnFrom(address,uint256)": {
        "params": {
          "from": "address whose token is to be burnt.",
          "id": "The token which will be burnt."
        }
      },
      "constructor": {
        "details": "constructors",
        "params": {
          "initialPrefix": "the prefix that will be prepended to every user message goig forward"
        }
      },
      "getApproved(uint256)": {
        "params": {
          "id": "The id of the token."
        },
        "returns": {
          "_0": "The address of the operator."
        }
      },
      "isApprovedForAll(address,address)": {
        "params": {
          "operator": "The address of the operator.",
          "owner": "The address of the owner."
        },
        "returns": {
          "isOperator": "The status of the approval."
        }
      },
      "ownerOf(uint256)": {
        "params": {
          "id": "The id of the token."
        },
        "returns": {
          "owner": "The address of the token owner."
        }
      },
      "postUpgrade(string)": {
        "details": "called by the admin when the contract is deployed as a proxy",
        "params": {
          "initialPrefix": "the prefix that will be prepended to every user message goig forward"
        }
      },
      "safeBatchTransferFrom(address,address,uint256[],bytes)": {
        "params": {
          "data": "Additional data.",
          "from": "The sender of the token.",
          "ids": "The ids of the tokens.",
          "to": "The recipient of the token."
        }
      },
      "safeTransferFrom(address,address,uint256)": {
        "params": {
          "from": "The send of the token.",
          "id": "The id of the token.",
          "to": "The recipient of the token."
        }
      },
      "safeTransferFrom(address,address,uint256,bytes)": {
        "params": {
          "data": "Additional data.",
          "from": "The sender of the token.",
          "id": "The id of the token.",
          "to": "The recipient of the token."
        }
      },
      "setApprovalForAll(address,bool)": {
        "params": {
          "approved": "The determination of the approval.",
          "operator": "The address receiving the approval."
        }
      },
      "setApprovalForAllFor(address,address,bool)": {
        "params": {
          "approved": "The determination of the approval.",
          "operator": "The address receiving the approval.",
          "sender": "The address giving the approval."
        }
      },
      "supportsInterface(bytes4)": {
        "params": {
          "id": "The id of the interface."
        },
        "returns": {
          "_0": "Whether the interface is supported."
        }
      },
      "transferFrom(address,address,uint256)": {
        "params": {
          "from": "The sender of the token.",
          "id": "The id of the token.",
          "to": "The recipient of the token."
        }
      }
    },
    "version": 1
  },
  "evm": {
    "gasEstimates": {
      "creation": {
        "codeDepositCost": "3707400",
        "executionCost": "infinite",
        "totalCost": "infinite"
      },
      "external": {
        "approve(address,uint256)": "infinite",
        "approveFor(address,address,uint256)": "infinite",
        "balanceOf(address)": "2887",
        "batchTransferFrom(address,address,uint256[],bytes)": "infinite",
        "burn(uint256)": "infinite",
        "burnFrom(address,uint256)": "infinite",
        "getApproved(uint256)": "infinite",
        "initneural(uint256,uint256)": "infinite",
        "isApprovedForAll(address,address)": "infinite",
        "mint(uint256)": "infinite",
        "name()": "infinite",
        "ownerOf(uint256)": "3172",
        "postUpgrade(string)": "infinite",
        "safeBatchTransferFrom(address,address,uint256[],bytes)": "infinite",
        "safeTransferFrom(address,address,uint256)": "infinite",
        "safeTransferFrom(address,address,uint256,bytes)": "infinite",
        "setApprovalForAll(address,bool)": "infinite",
        "setApprovalForAllFor(address,address,bool)": "infinite",
        "supportsInterface(bytes4)": "736",
        "symbol()": "infinite",
        "test(uint256,uint256)": "infinite",
        "tokenURI(uint256)": "infinite",
        "trainer(uint256,uint256,uint256)": "infinite",
        "transferFrom(address,address,uint256)": "infinite"
      },
      "internal": {
        "uint2str(uint256)": "infinite"
      }
    }
  },
  "storageLayout": {
    "storage": [
      {
        "astId": 715,
        "contract": "src/Neuro721.sol:Neuro721",
        "label": "_numNFTPerAddress",
        "offset": 0,
        "slot": "0",
        "type": "t_mapping(t_address,t_uint256)"
      },
      {
        "astId": 719,
        "contract": "src/Neuro721.sol:Neuro721",
        "label": "_owners",
        "offset": 0,
        "slot": "1",
        "type": "t_mapping(t_uint256,t_uint256)"
      },
      {
        "astId": 725,
        "contract": "src/Neuro721.sol:Neuro721",
        "label": "_operatorsForAll",
        "offset": 0,
        "slot": "2",
        "type": "t_mapping(t_address,t_mapping(t_address,t_bool))"
      },
      {
        "astId": 729,
        "contract": "src/Neuro721.sol:Neuro721",
        "label": "_operators",
        "offset": 0,
        "slot": "3",
        "type": "t_mapping(t_uint256,t_address)"
      },
      {
        "astId": 1988,
        "contract": "src/Neuro721.sol:Neuro721",
        "label": "_lastId",
        "offset": 0,
        "slot": "4",
        "type": "t_uint256"
      },
      {
        "astId": 1990,
        "contract": "src/Neuro721.sol:Neuro721",
        "label": "_prefix",
        "offset": 0,
        "slot": "5",
        "type": "t_string_storage"
      },
      {
        "astId": 1995,
        "contract": "src/Neuro721.sol:Neuro721",
        "label": "neuralState",
        "offset": 0,
        "slot": "6",
        "type": "t_mapping(t_uint256,t_array(t_int256)dyn_storage)"
      },
      {
        "astId": 2001,
        "contract": "src/Neuro721.sol:Neuro721",
        "label": "w",
        "offset": 0,
        "slot": "7",
        "type": "t_mapping(t_uint256,t_mapping(t_uint256,t_int256))"
      }
    ],
    "types": {
      "t_address": {
        "encoding": "inplace",
        "label": "address",
        "numberOfBytes": "20"
      },
      "t_array(t_int256)dyn_storage": {
        "base": "t_int256",
        "encoding": "dynamic_array",
        "label": "int256[]",
        "numberOfBytes": "32"
      },
      "t_bool": {
        "encoding": "inplace",
        "label": "bool",
        "numberOfBytes": "1"
      },
      "t_int256": {
        "encoding": "inplace",
        "label": "int256",
        "numberOfBytes": "32"
      },
      "t_mapping(t_address,t_bool)": {
        "encoding": "mapping",
        "key": "t_address",
        "label": "mapping(address => bool)",
        "numberOfBytes": "32",
        "value": "t_bool"
      },
      "t_mapping(t_address,t_mapping(t_address,t_bool))": {
        "encoding": "mapping",
        "key": "t_address",
        "label": "mapping(address => mapping(address => bool))",
        "numberOfBytes": "32",
        "value": "t_mapping(t_address,t_bool)"
      },
      "t_mapping(t_address,t_uint256)": {
        "encoding": "mapping",
        "key": "t_address",
        "label": "mapping(address => uint256)",
        "numberOfBytes": "32",
        "value": "t_uint256"
      },
      "t_mapping(t_uint256,t_address)": {
        "encoding": "mapping",
        "key": "t_uint256",
        "label": "mapping(uint256 => address)",
        "numberOfBytes": "32",
        "value": "t_address"
      },
      "t_mapping(t_uint256,t_array(t_int256)dyn_storage)": {
        "encoding": "mapping",
        "key": "t_uint256",
        "label": "mapping(uint256 => int256[])",
        "numberOfBytes": "32",
        "value": "t_array(t_int256)dyn_storage"
      },
      "t_mapping(t_uint256,t_int256)": {
        "encoding": "mapping",
        "key": "t_uint256",
        "label": "mapping(uint256 => int256)",
        "numberOfBytes": "32",
        "value": "t_int256"
      },
      "t_mapping(t_uint256,t_mapping(t_uint256,t_int256))": {
        "encoding": "mapping",
        "key": "t_uint256",
        "label": "mapping(uint256 => mapping(uint256 => int256))",
        "numberOfBytes": "32",
        "value": "t_mapping(t_uint256,t_int256)"
      },
      "t_mapping(t_uint256,t_uint256)": {
        "encoding": "mapping",
        "key": "t_uint256",
        "label": "mapping(uint256 => uint256)",
        "numberOfBytes": "32",
        "value": "t_uint256"
      },
      "t_string_storage": {
        "encoding": "bytes",
        "label": "string",
        "numberOfBytes": "32"
      },
      "t_uint256": {
        "encoding": "inplace",
        "label": "uint256",
        "numberOfBytes": "32"
      }
    }
  },
  "userdoc": {
    "kind": "user",
    "methods": {
      "approve(address,uint256)": {
        "notice": "Approve an operator to spend tokens on the senders behalf."
      },
      "approveFor(address,address,uint256)": {
        "notice": "Approve an operator to spend tokens on the sender behalf."
      },
      "balanceOf(address)": {
        "notice": "Get the number of tokens owned by an address."
      },
      "batchTransferFrom(address,address,uint256[],bytes)": {
        "notice": "Transfer many tokens between 2 addresses."
      },
      "burn(uint256)": {
        "notice": "Burns token `id`."
      },
      "burnFrom(address,uint256)": {
        "notice": "Burn token`id` from `from`."
      },
      "getApproved(uint256)": {
        "notice": "Get the approved operator for a specific token."
      },
      "isApprovedForAll(address,address)": {
        "notice": "Check if the sender approved the operator."
      },
      "ownerOf(uint256)": {
        "notice": "Get the owner of a token."
      },
      "safeBatchTransferFrom(address,address,uint256[],bytes)": {
        "notice": "Transfer many tokens between 2 addresses, while ensuring the receiving contract has a receiver method."
      },
      "safeTransferFrom(address,address,uint256)": {
        "notice": "Transfer a token between 2 addresses letting the receiver know of the transfer."
      },
      "safeTransferFrom(address,address,uint256,bytes)": {
        "notice": "Transfer a token between 2 addresses letting the receiver knows of the transfer."
      },
      "setApprovalForAll(address,bool)": {
        "notice": "Set the approval for an operator to manage all the tokens of the sender."
      },
      "setApprovalForAllFor(address,address,bool)": {
        "notice": "Set the approval for an operator to manage all the tokens of the sender."
      },
      "supportsInterface(bytes4)": {
        "notice": "Check if the contract supports an interface. 0x01ffc9a7 is ERC-165. 0x80ac58cd is ERC-721 0x5b5e139f is ERC-721 Metadata (tokenURI, symbol, name)"
      },
      "transferFrom(address,address,uint256)": {
        "notice": "Transfer a token between 2 addresses."
      }
    },
    "version": 1
  },
  "argsData": "0x00000000000000000000000000000000000000000000000000000000000000200000000000000000000000000000000000000000000000000000000000000000",
  "nonce": "0xe",
  "txOrigin": "0x38b96257b53d2d33bbd4376fb3b732459f28a872"
}