{
  "address": "0x0263a023f70c8d25075290d6790844abac8ef297",
  "txHash": "0x606840d8eac4a2d05d21f370e4475a10fc3b3d134d340b2ad337301c9881fcb7",
  "abi": [
    {
      "inputs": [
        {
          "internalType": "string",
          "name": "initialPrefix",
          "type": "string"
        }
      ],
      "stateMutability": "nonpayable",
      "type": "constructor"
    },
    {
      "anonymous": false,
      "inputs": [
        {
          "indexed": true,
          "internalType": "address",
          "name": "owner",
          "type": "address"
        },
        {
          "indexed": true,
          "internalType": "address",
          "name": "approved",
          "type": "address"
        },
        {
          "indexed": true,
          "internalType": "uint256",
          "name": "tokenId",
          "type": "uint256"
        }
      ],
      "name": "Approval",
      "type": "event"
    },
    {
      "anonymous": false,
      "inputs": [
        {
          "indexed": true,
          "internalType": "address",
          "name": "owner",
          "type": "address"
        },
        {
          "indexed": true,
          "internalType": "address",
          "name": "operator",
          "type": "address"
        },
        {
          "indexed": false,
          "internalType": "bool",
          "name": "approved",
          "type": "bool"
        }
      ],
      "name": "ApprovalForAll",
      "type": "event"
    },
    {
      "anonymous": false,
      "inputs": [
        {
          "indexed": true,
          "internalType": "address",
          "name": "from",
          "type": "address"
        },
        {
          "indexed": true,
          "internalType": "address",
          "name": "to",
          "type": "address"
        },
        {
          "indexed": true,
          "internalType": "uint256",
          "name": "tokenId",
          "type": "uint256"
        }
      ],
      "name": "Transfer",
      "type": "event"
    },
    {
      "inputs": [
        {
          "internalType": "address",
          "name": "operator",
          "type": "address"
        },
        {
          "internalType": "uint256",
          "name": "id",
          "type": "uint256"
        }
      ],
      "name": "approve",
      "outputs": [],
      "stateMutability": "nonpayable",
      "type": "function"
    },
    {
      "inputs": [
        {
          "internalType": "address",
          "name": "sender",
          "type": "address"
        },
        {
          "internalType": "address",
          "name": "operator",
          "type": "address"
        },
        {
          "internalType": "uint256",
          "name": "id",
          "type": "uint256"
        }
      ],
      "name": "approveFor",
      "outputs": [],
      "stateMutability": "nonpayable",
      "type": "function"
    },
    {
      "inputs": [
        {
          "internalType": "address",
          "name": "owner",
          "type": "address"
        }
      ],
      "name": "balanceOf",
      "outputs": [
        {
          "internalType": "uint256",
          "name": "",
          "type": "uint256"
        }
      ],
      "stateMutability": "view",
      "type": "function"
    },
    {
      "inputs": [
        {
          "internalType": "address",
          "name": "from",
          "type": "address"
        },
        {
          "internalType": "address",
          "name": "to",
          "type": "address"
        },
        {
          "internalType": "uint256[]",
          "name": "ids",
          "type": "uint256[]"
        },
        {
          "internalType": "bytes",
          "name": "data",
          "type": "bytes"
        }
      ],
      "name": "batchTransferFrom",
      "outputs": [],
      "stateMutability": "nonpayable",
      "type": "function"
    },
    {
      "inputs": [
        {
          "internalType": "uint256",
          "name": "id",
          "type": "uint256"
        }
      ],
      "name": "burn",
      "outputs": [],
      "stateMutability": "nonpayable",
      "type": "function"
    },
    {
      "inputs": [
        {
          "internalType": "address",
          "name": "from",
          "type": "address"
        },
        {
          "internalType": "uint256",
          "name": "id",
          "type": "uint256"
        }
      ],
      "name": "burnFrom",
      "outputs": [],
      "stateMutability": "nonpayable",
      "type": "function"
    },
    {
      "inputs": [
        {
          "internalType": "uint256",
          "name": "id",
          "type": "uint256"
        }
      ],
      "name": "getApproved",
      "outputs": [
        {
          "internalType": "address",
          "name": "",
          "type": "address"
        }
      ],
      "stateMutability": "view",
      "type": "function"
    },
    {
      "inputs": [
        {
          "internalType": "uint256",
          "name": "numbneuro",
          "type": "uint256"
        },
        {
          "internalType": "uint256",
          "name": "astatembly",
          "type": "uint256"
        }
      ],
      "name": "initneural",
      "outputs": [],
      "stateMutability": "nonpayable",
      "type": "function"
    },
    {
      "inputs": [
        {
          "internalType": "address",
          "name": "owner",
          "type": "address"
        },
        {
          "internalType": "address",
          "name": "operator",
          "type": "address"
        }
      ],
      "name": "isApprovedForAll",
      "outputs": [
        {
          "internalType": "bool",
          "name": "isOperator",
          "type": "bool"
        }
      ],
      "stateMutability": "view",
      "type": "function"
    },
    {
      "inputs": [
        {
          "internalType": "uint256",
          "name": "num",
          "type": "uint256"
        }
      ],
      "name": "mint",
      "outputs": [],
      "stateMutability": "nonpayable",
      "type": "function"
    },
    {
      "inputs": [],
      "name": "name",
      "outputs": [
        {
          "internalType": "string",
          "name": "",
          "type": "string"
        }
      ],
      "stateMutability": "pure",
      "type": "function"
    },
    {
      "inputs": [
        {
          "internalType": "uint256",
          "name": "id",
          "type": "uint256"
        }
      ],
      "name": "ownerOf",
      "outputs": [
        {
          "internalType": "address",
          "name": "owner",
          "type": "address"
        }
      ],
      "stateMutability": "view",
      "type": "function"
    },
    {
      "inputs": [
        {
          "internalType": "string",
          "name": "initialPrefix",
          "type": "string"
        }
      ],
      "name": "postUpgrade",
      "outputs": [],
      "stateMutability": "nonpayable",
      "type": "function"
    },
    {
      "inputs": [
        {
          "internalType": "address",
          "name": "from",
          "type": "address"
        },
        {
          "internalType": "address",
          "name": "to",
          "type": "address"
        },
        {
          "internalType": "uint256[]",
          "name": "ids",
          "type": "uint256[]"
        },
        {
          "internalType": "bytes",
          "name": "data",
          "type": "bytes"
        }
      ],
      "name": "safeBatchTransferFrom",
      "outputs": [],
      "stateMutability": "nonpayable",
      "type": "function"
    },
    {
      "inputs": [
        {
          "internalType": "address",
          "name": "from",
          "type": "address"
        },
        {
          "internalType": "address",
          "name": "to",
          "type": "address"
        },
        {
          "internalType": "uint256",
          "name": "id",
          "type": "uint256"
        }
      ],
      "name": "safeTransferFrom",
      "outputs": [],
      "stateMutability": "nonpayable",
      "type": "function"
    },
    {
      "inputs": [
        {
          "internalType": "address",
          "name": "from",
          "type": "address"
        },
        {
          "internalType": "address",
          "name": "to",
          "type": "address"
        },
        {
          "internalType": "uint256",
          "name": "id",
          "type": "uint256"
        },
        {
          "internalType": "bytes",
          "name": "data",
          "type": "bytes"
        }
      ],
      "name": "safeTransferFrom",
      "outputs": [],
      "stateMutability": "nonpayable",
      "type": "function"
    },
    {
      "inputs": [
        {
          "internalType": "address",
          "name": "operator",
          "type": "address"
        },
        {
          "internalType": "bool",
          "name": "approved",
          "type": "bool"
        }
      ],
      "name": "setApprovalForAll",
      "outputs": [],
      "stateMutability": "nonpayable",
      "type": "function"
    },
    {
      "inputs": [
        {
          "internalType": "address",
          "name": "sender",
          "type": "address"
        },
        {
          "internalType": "address",
          "name": "operator",
          "type": "address"
        },
        {
          "internalType": "bool",
          "name": "approved",
          "type": "bool"
        }
      ],
      "name": "setApprovalForAllFor",
      "outputs": [],
      "stateMutability": "nonpayable",
      "type": "function"
    },
    {
      "inputs": [
        {
          "internalType": "bytes4",
          "name": "id",
          "type": "bytes4"
        }
      ],
      "name": "supportsInterface",
      "outputs": [
        {
          "internalType": "bool",
          "name": "",
          "type": "bool"
        }
      ],
      "stateMutability": "pure",
      "type": "function"
    },
    {
      "inputs": [],
      "name": "symbol",
      "outputs": [
        {
          "internalType": "string",
          "name": "",
          "type": "string"
        }
      ],
      "stateMutability": "pure",
      "type": "function"
    },
    {
      "inputs": [
        {
          "internalType": "uint256",
          "name": "numbneuro",
          "type": "uint256"
        },
        {
          "internalType": "uint256",
          "name": "astatembly",
          "type": "uint256"
        }
      ],
      "name": "test",
      "outputs": [],
      "stateMutability": "nonpayable",
      "type": "function"
    },
    {
      "inputs": [
        {
          "internalType": "uint256",
          "name": "tokenId",
          "type": "uint256"
        }
      ],
      "name": "tokenURI",
      "outputs": [
        {
          "internalType": "string",
          "name": "",
          "type": "string"
        }
      ],
      "stateMutability": "view",
      "type": "function"
    },
    {
      "inputs": [
        {
          "internalType": "uint256",
          "name": "numbneuro",
          "type": "uint256"
        },
        {
          "internalType": "uint256",
          "name": "astatembly",
          "type": "uint256"
        },
        {
          "internalType": "uint256",
          "name": "pat2",
          "type": "uint256"
        }
      ],
      "name": "trainer",
      "outputs": [],
      "stateMutability": "nonpayable",
      "type": "function"
    },
    {
      "inputs": [
        {
          "internalType": "address",
          "name": "from",
          "type": "address"
        },
        {
          "internalType": "address",
          "name": "to",
          "type": "address"
        },
        {
          "internalType": "uint256",
          "name": "id",
          "type": "uint256"
        }
      ],
      "name": "transferFrom",
      "outputs": [],
      "stateMutability": "nonpayable",
      "type": "function"
    }
  ],
  "contractName": "Neuro721",
  "sourceName": "src/Neuro721.sol",
  "linkReferences": {},
  "deployedLinkReferences": {},
  "devdoc": {
    "events": {
      "Approval(address,address,uint256)": {
        "details": "Emitted when `owner` enables `approved` to manage the `tokenId` token."
      },
      "ApprovalForAll(address,address,bool)": {
        "details": "Emitted when `owner` enables or disables (`approved`) `operator` to manage all of its assets."
      },
      "Transfer(address,address,uint256)": {
        "details": "Emitted when `tokenId` token is transferred from `from` to `to`."
      }
    },
    "kind": "dev",
    "methods": {
      "approve(address,uint256)": {
        "params": {
          "id": "The id of the token.",
          "operator": "The address receiving the approval."
        }
      },
      "approveFor(address,address,uint256)": {
        "params": {
          "id": "The id of the token.",
          "operator": "The address receiving the approval.",
          "sender": "The address giving the approval."
        }
      },
      "balanceOf(address)": {
        "params": {
          "owner": "The address to look for."
        },
        "returns": {
          "_0": "The number of tokens owned by the address."
        }
      },
      "batchTransferFrom(address,address,uint256[],bytes)": {
        "params": {
          "data": "Additional data.",
          "from": "The sender of the token.",
          "ids": "The ids of the tokens.",
          "to": "The recipient of the token."
        }
      },
      "burn(uint256)": {
        "params": {
          "id": "The token which will be burnt."
        }
      },
      "burnFrom(address,uint256)": {
        "params": {
          "from": "address whose token is to be burnt.",
          "id": "The token which will be burnt."
        }
      },
      "constructor": {
        "details": "constructors",
        "params": {
          "initialPrefix": "the prefix that will be prepended to every user message goig forward"
        }
      },
      "getApproved(uint256)": {
        "params": {
          "id": "The id of the token."
        },
        "returns": {
          "_0": "The address of the operator."
        }
      },
      "isApprovedForAll(address,address)": {
        "params": {
          "operator": "The address of the operator.",
          "owner": "The address of the owner."
        },
        "returns": {
          "isOperator": "The status of the approval."
        }
      },
      "ownerOf(uint256)": {
        "params": {
          "id": "The id of the token."
        },
        "returns": {
          "owner": "The address of the token owner."
        }
      },
      "postUpgrade(string)": {
        "details": "called by the admin when the contract is deployed as a proxy",
        "params": {
          "initialPrefix": "the prefix that will be prepended to every user message goig forward"
        }
      },
      "safeBatchTransferFrom(address,address,uint256[],bytes)": {
        "params": {
          "data": "Additional data.",
          "from": "The sender of the token.",
          "ids": "The ids of the tokens.",
          "to": "The recipient of the token."
        }
      },
      "safeTransferFrom(address,address,uint256)": {
        "params": {
          "from": "The send of the token.",
          "id": "The id of the token.",
          "to": "The recipient of the token."
        }
      },
      "safeTransferFrom(address,address,uint256,bytes)": {
        "params": {
          "data": "Additional data.",
          "from": "The sender of the token.",
          "id": "The id of the token.",
          "to": "The recipient of the token."
        }
      },
      "setApprovalForAll(address,bool)": {
        "params": {
          "approved": "The determination of the approval.",
          "operator": "The address receiving the approval."
        }
      },
      "setApprovalForAllFor(address,address,bool)": {
        "params": {
          "approved": "The determination of the approval.",
          "operator": "The address receiving the approval.",
          "sender": "The address giving the approval."
        }
      },
      "supportsInterface(bytes4)": {
        "params": {
          "id": "The id of the interface."
        },
        "returns": {
          "_0": "Whether the interface is supported."
        }
      },
      "transferFrom(address,address,uint256)": {
        "params": {
          "from": "The sender of the token.",
          "id": "The id of the token.",
          "to": "The recipient of the token."
        }
      }
    },
    "version": 1
  },
  "evm": {
    "bytecode": {
      "linkReferences": {},
      "object": "608060405234801562000010575f80fd5b5060405162004eaf38038062004eaf8339818101604052810190620000369190620002ce565b62000047816200004e60201b60201c565b5062000638565b5f6200005f6200012160201b60201c565b90505f73ffffffffffffffffffffffffffffffffffffffff168173ffffffffffffffffffffffffffffffffffffffff1603620000d25773ffffffffffffffffffffffffffffffffffffffff7fb53127684a568b3173ae13b9f8a6016e243e63b6e8ee1178d6a717850b5d6103556200010b565b8073ffffffffffffffffffffffffffffffffffffffff163373ffffffffffffffffffffffffffffffffffffffff16146200010a575f80fd5b5b81600590816200011c919062000554565b505050565b5f7fb53127684a568b3173ae13b9f8a6016e243e63b6e8ee1178d6a717850b5d610354905090565b5f604051905090565b5f80fd5b5f80fd5b5f80fd5b5f80fd5b5f601f19601f8301169050919050565b7f4e487b71000000000000000000000000000000000000000000000000000000005f52604160045260245ffd5b620001aa8262000162565b810181811067ffffffffffffffff82111715620001cc57620001cb62000172565b5b80604052505050565b5f620001e062000149565b9050620001ee82826200019f565b919050565b5f67ffffffffffffffff82111562000210576200020f62000172565b5b6200021b8262000162565b9050602081019050919050565b5f5b83811015620002475780820151818401526020810190506200022a565b5f8484015250505050565b5f620002686200026284620001f3565b620001d5565b9050828152602081018484840111156200028757620002866200015e565b5b6200029484828562000228565b509392505050565b5f82601f830112620002b357620002b26200015a565b5b8151620002c584826020860162000252565b91505092915050565b5f60208284031215620002e657620002e562000152565b5b5f82015167ffffffffffffffff81111562000306576200030562000156565b5b62000314848285016200029c565b91505092915050565b5f81519050919050565b7f4e487b71000000000000000000000000000000000000000000000000000000005f52602260045260245ffd5b5f60028204905060018216806200036c57607f821691505b60208210810362000382576200038162000327565b5b50919050565b5f819050815f5260205f209050919050565b5f6020601f8301049050919050565b5f82821b905092915050565b5f60088302620003e67fffffffffffffffffffffffffffffffffffffffffffffffffffffffffffffffff82620003a9565b620003f28683620003a9565b95508019841693508086168417925050509392505050565b5f819050919050565b5f819050919050565b5f6200043c6200043662000430846200040a565b62000413565b6200040a565b9050919050565b5f819050919050565b62000457836200041c565b6200046f620004668262000443565b848454620003b5565b825550505050565b5f90565b6200048562000477565b620004928184846200044c565b505050565b5b81811015620004b957620004ad5f826200047b565b60018101905062000498565b5050565b601f8211156200050857620004d28162000388565b620004dd846200039a565b81016020851015620004ed578190505b62000505620004fc856200039a565b83018262000497565b50505b505050565b5f82821c905092915050565b5f6200052a5f19846008026200050d565b1980831691505092915050565b5f62000544838362000519565b9150826002028217905092915050565b6200055f826200031d565b67ffffffffffffffff8111156200057b576200057a62000172565b5b62000587825462000354565b62000594828285620004bd565b5f60209050601f831160018114620005ca575f8415620005b5578287015190505b620005c1858262000537565b86555062000630565b601f198416620005da8662000388565b5f5b828110156200060357848901518255600182019150602085019450602081019050620005dc565b868310156200062357848901516200061f601f89168262000519565b8355505b6001600288020188555050505b505050505050565b61486980620006465f395ff3fe608060405234801561000f575f80fd5b5060043610610156575f3560e01c806370a08231116100c1578063b1441ce61161007a578063b1441ce6146103a6578063b88d4fde146103c2578063c87b56dd146103de578063e985e9c51461040e578063eb8ac9211461043e578063eeb5a5d11461045a57610156565b806370a08231146102e857806379cc6790146103185780638cb8a0f71461033457806395d89b4114610350578063a0712d681461036e578063a22cb4651461038a57610156565b806328cfbd461161011357806328cfbd461461022c5780632b991746146102485780632bb0b3041461026457806342842e0e1461028057806342966c681461029c5780636352211e146102b857610156565b806301ffc9a71461015a57806306fdde031461018a578063081812fc146101a8578063095ea7b3146101d857806315ddc535146101f457806323b872dd14610210575b5f80fd5b610174600480360381019061016f9190612ea6565b610476565b6040516101819190612eeb565b60405180910390f35b610192610507565b60405161019f9190612f8e565b60405180910390f35b6101c260048036038101906101bd9190612fe1565b610544565b6040516101cf919061304b565b60405180910390f35b6101f260048036038101906101ed919061308e565b61060d565b005b61020e60048036038101906102099190613182565b6107a7565b005b61022a60048036038101906102259190613225565b61083f565b005b61024660048036038101906102419190613182565b6108f2565b005b610262600480360381019061025d9190613225565b61098b565b005b61027e60048036038101906102799190613275565b610b8f565b005b61029a60048036038101906102959190613225565b610c50565b005b6102b660048036038101906102b19190612fe1565b610c6f565b005b6102d260048036038101906102cd9190612fe1565b610c85565b6040516102df919061304b565b60405180910390f35b61030260048036038101906102fd91906132b3565b610d04565b60405161030f91906132ed565b60405180910390f35b610332600480360381019061032d919061308e565b610db7565b005b61034e60048036038101906103499190613306565b610fae565b005b61035861135e565b6040516103659190612f8e565b60405180910390f35b61038860048036038101906103839190612fe1565b61139b565b005b6103a4600480360381019061039f9190613380565b611454565b005b6103c060048036038101906103bb91906134e6565b611463565b005b6103dc60048036038101906103d791906135cb565b611529565b005b6103f860048036038101906103f39190612fe1565b6115b6565b6040516104059190612f8e565b60405180910390f35b6104286004803603810190610423919061364b565b6116d2565b6040516104359190612eeb565b60405180910390f35b61045860048036038101906104539190613275565b611760565b005b610474600480360381019061046f9190613689565b611977565b005b5f6301ffc9a760e01b827bffffffffffffffffffffffffffffffffffffffffffffffffffffffff191614806104d057506380ac58cd60e01b827bffffffffffffffffffffffffffffffffffffffffffffffffffffffff1916145b806105005750635b5e139f60e01b827bffffffffffffffffffffffffffffffffffffffffffffffffffffffff1916145b9050919050565b60606040518060400160405280600881526020017f486f706669656c64000000000000000000000000000000000000000000000000815250905090565b5f805f61055084611a63565b915091505f73ffffffffffffffffffffffffffffffffffffffff168273ffffffffffffffffffffffffffffffffffffffff16036105c2576040517f08c379a00000000000000000000000000000000000000000000000000000000081526004016105b990613723565b60405180910390fd5b80156106025760035f8581526020019081526020015f205f9054906101000a900473ffffffffffffffffffffffffffffffffffffffff1692505050610608565b5f925050505b919050565b5f60015f61061a84611ae3565b81526020019081526020015f205490505f8190505f73ffffffffffffffffffffffffffffffffffffffff168173ffffffffffffffffffffffffffffffffffffffff160361069c576040517f08c379a000000000000000000000000000000000000000000000000000000000815260040161069390613723565b60405180910390fd5b3373ffffffffffffffffffffffffffffffffffffffff168173ffffffffffffffffffffffffffffffffffffffff161480610757575060025f8273ffffffffffffffffffffffffffffffffffffffff1673ffffffffffffffffffffffffffffffffffffffff1681526020019081526020015f205f3373ffffffffffffffffffffffffffffffffffffffff1673ffffffffffffffffffffffffffffffffffffffff1681526020019081526020015f205f9054906101000a900460ff165b610796576040517f08c379a000000000000000000000000000000000000000000000000000000000815260040161078d9061378b565b60405180910390fd5b6107a1828585611aec565b50505050565b61083786868686808060200260200160405190810160405280939291908181526020018383602002808284375f81840152601f19601f8201169050808301925050505050505085858080601f0160208091040260200160405190810160405280939291908181526020018383808284375f81840152601f19601f820116905080830192505050505050505f611bf2565b505050505050565b61084a8383836120ef565b6108558383836123b6565b6108748273ffffffffffffffffffffffffffffffffffffffff166124dd565b801561088d575061088c82635e8bf64460e01b6124ff565b5b156108ed576108ad3384848460405180602001604052805f8152506125c0565b6108ec576040517f08c379a00000000000000000000000000000000000000000000000000000000081526004016108e3906137f3565b60405180910390fd5b5b505050565b61098386868686808060200260200160405190810160405280939291908181526020018383602002808284375f81840152601f19601f8201169050808301925050505050505085858080601f0160208091040260200160405190810160405280939291908181526020018383808284375f81840152601f19601f820116905080830192505050505050506001611bf2565b505050505050565b5f60015f61099884611ae3565b81526020019081526020015f205490505f73ffffffffffffffffffffffffffffffffffffffff168473ffffffffffffffffffffffffffffffffffffffff1603610a16576040517f08c379a0000000000000000000000000000000000000000000000000000000008152600401610a0d9061385b565b60405180910390fd5b8373ffffffffffffffffffffffffffffffffffffffff163373ffffffffffffffffffffffffffffffffffffffff161480610ad1575060025f8573ffffffffffffffffffffffffffffffffffffffff1673ffffffffffffffffffffffffffffffffffffffff1681526020019081526020015f205f3373ffffffffffffffffffffffffffffffffffffffff1673ffffffffffffffffffffffffffffffffffffffff1681526020019081526020015f205f9054906101000a900460ff165b610b10576040517f08c379a0000000000000000000000000000000000000000000000000000000008152600401610b079061378b565b60405180910390fd5b8373ffffffffffffffffffffffffffffffffffffffff168173ffffffffffffffffffffffffffffffffffffffff1614610b7e576040517f08c379a0000000000000000000000000000000000000000000000000000000008152600401610b75906138c3565b60405180910390fd5b610b89818484611aec565b50505050565b610b97612e1d565b5f5b83811015610c4a575f60018285901c1690505f7fffffffffffffffffffffffffffffffffffffffffffffffffffffffffffffffff905060018203610bdc57600190505b80848460198110610bf057610bef6138e1565b5b6020020181815250508060065f600186610c0a919061393b565b81526020019081526020015f205f81548110610c2957610c286138e1565b5b905f5260205f20018190555050508080610c429061396e565b915050610b99565b50505050565b610c6a83838360405180602001604052805f815250611529565b505050565b610c8233610c7c83612697565b836126e6565b50565b5f610c8f82612697565b90505f73ffffffffffffffffffffffffffffffffffffffff168173ffffffffffffffffffffffffffffffffffffffff1603610cff576040517f08c379a0000000000000000000000000000000000000000000000000000000008152600401610cf6906139ff565b60405180910390fd5b919050565b5f8073ffffffffffffffffffffffffffffffffffffffff168273ffffffffffffffffffffffffffffffffffffffff1603610d73576040517f08c379a0000000000000000000000000000000000000000000000000000000008152600401610d6a90613a67565b60405180910390fd5b5f808373ffffffffffffffffffffffffffffffffffffffff1673ffffffffffffffffffffffffffffffffffffffff1681526020019081526020015f20549050919050565b5f73ffffffffffffffffffffffffffffffffffffffff168273ffffffffffffffffffffffffffffffffffffffff1603610e25576040517f08c379a0000000000000000000000000000000000000000000000000000000008152600401610e1c90613acf565b60405180910390fd5b5f80610e3083611a63565b915091508373ffffffffffffffffffffffffffffffffffffffff163373ffffffffffffffffffffffffffffffffffffffff161480610ed25750808015610ed157503373ffffffffffffffffffffffffffffffffffffffff1660035f8581526020019081526020015f205f9054906101000a900473ffffffffffffffffffffffffffffffffffffffff1673ffffffffffffffffffffffffffffffffffffffff16145b5b80610f5e575060025f8573ffffffffffffffffffffffffffffffffffffffff1673ffffffffffffffffffffffffffffffffffffffff1681526020019081526020015f205f3373ffffffffffffffffffffffffffffffffffffffff1673ffffffffffffffffffffffffffffffffffffffff1681526020019081526020015f205f9054906101000a900460ff165b610f9d576040517f08c379a0000000000000000000000000000000000000000000000000000000008152600401610f9490613b37565b60405180910390fd5b610fa88483856126e6565b50505050565b610fb6612e1d565b610fbe612e1d565b5f5b858110156110a7575f60018287901c1690505f7fffffffffffffffffffffffffffffffffffffffffffffffffffffffffffffffff90506001820361100357600190505b80858460198110611017576110166138e1565b5b60200201818152505060018387901c16915060018203611054576001848460198110611046576110456138e1565b5b602002018181525050611092565b7fffffffffffffffffffffffffffffffffffffffffffffffffffffffffffffffff848460198110611088576110876138e1565b5b6020020181815250505b5050808061109f9061396e565b915050610fc0565b505f600a90505f805b6002811015611354575f5b88811015611340575f92505f6001826110d4919061393b565b90505b898110156111ee57808203156111db5760028682601981106110fc576110fb6138e1565b5b6020020151878460198110611114576111136138e1565b5b60200201516111239190613b5e565b888360198110611136576111356138e1565b5b602002015189856019811061114e5761114d6138e1565b5b602002015161115d9190613b5e565b6111679190613bd4565b6111719190613c42565b60075f8481526020019081526020015f205f8381526020019081526020015f208190555060075f8381526020019081526020015f205f8281526020019081526020015f205460075f8381526020019081526020015f205f8481526020019081526020015f20819055505b80806111e69061396e565b9150506110d7565b505f5b8981101561128557808203156112725760065f600184611211919061393b565b81526020019081526020015f205f815481106112305761122f6138e1565b5b905f5260205f20015460075f8481526020019081526020015f205f8381526020019081526020015f20546112649190613b5e565b8461126f9190613bd4565b93505b808061127d9061396e565b9150506111f1565b505f83121561132d5760065f60018361129e919061393b565b81526020019081526020015f205f815481106112bd576112bc6138e1565b5b905f5260205f2001547fffffffffffffffffffffffffffffffffffffffffffffffffffffffffffffffff6112f19190613b5e565b60065f600184611301919061393b565b81526020019081526020015f205f815481106113205761131f6138e1565b5b905f5260205f2001819055505b80806113389061396e565b9150506110bb565b50808061134c9061396e565b9150506110b0565b5050505050505050565b60606040518060400160405280600381526020017f48666e0000000000000000000000000000000000000000000000000000000000815250905090565b5f60045490505f5b828110156113d65781806113b69061396e565b9250506113c3338361287e565b80806113ce9061396e565b9150506113a3565b505f7fffffffffffffffffffffffffffffffffffffffffffffffffffffffffffffffff90505f6002426114099190613caa565b0361141357600190505b60065f8381526020019081526020015f2081908060018154018082558091505060019003905f5260205f20015f909190919091505581600481905550505050565b61145f3383836129ba565b5050565b5f61146c612ab3565b90505f73ffffffffffffffffffffffffffffffffffffffff168173ffffffffffffffffffffffffffffffffffffffff16036114dd5773ffffffffffffffffffffffffffffffffffffffff7fb53127684a568b3173ae13b9f8a6016e243e63b6e8ee1178d6a717850b5d610355611515565b8073ffffffffffffffffffffffffffffffffffffffff163373ffffffffffffffffffffffffffffffffffffffff1614611514575f80fd5b5b81600590816115249190613ed4565b505050565b6115348484846120ef565b61153f8484846123b6565b61155e8373ffffffffffffffffffffffffffffffffffffffff166124dd565b156115b05761157033858585856125c0565b6115af576040517f08c379a00000000000000000000000000000000000000000000000000000000081526004016115a6906137f3565b60405180910390fd5b5b50505050565b60605f6115c283612adb565b90505f600167ffffffffffffffff8111156115e0576115df6133c2565b5b6040519080825280601f01601f1916602001820160405280156116125781602001600182028036833780820191505090505b509050602d60f81b815f8151811061162d5761162c6138e1565b5b60200101907effffffffffffffffffffffffffffffffffffffffffffffffffffffffffffff191690815f1a9053505f60405180602001604052805f81525090505f60065f8781526020019081526020015f205f81548110611691576116906138e1565b5b905f5260205f20015412156116a4578190505b8283826040516020016116b993929190614105565b6040516020818303038152906040529350505050919050565b5f60025f8473ffffffffffffffffffffffffffffffffffffffff1673ffffffffffffffffffffffffffffffffffffffff1681526020019081526020015f205f8373ffffffffffffffffffffffffffffffffffffffff1673ffffffffffffffffffffffffffffffffffffffff1681526020019081526020015f205f9054906101000a900460ff16905092915050565b611768612e1d565b5f805b848110156117e0575f60018286901c1690505f7fffffffffffffffffffffffffffffffffffffffffffffffffffffffffffffffff9050600182036117ae57600190505b808584601981106117c2576117c16138e1565b5b602002018181525050505080806117d89061396e565b91505061176b565b505f5b60018110156118ff575f5b858110156118eb575f92505f5b8681101561186f578082031561185c5784826019811061181e5761181d6138e1565b5b602002015160075f8481526020019081526020015f205f8381526020019081526020015f205461184e9190613b5e565b846118599190613bd4565b93505b80806118679061396e565b9150506117fb565b505f8312156118d85783816019811061188b5761188a6138e1565b5b60200201517fffffffffffffffffffffffffffffffffffffffffffffffffffffffffffffffff6118bb9190613b5e565b8482601981106118ce576118cd6138e1565b5b6020020181815250505b80806118e39061396e565b9150506117ee565b5080806118f79061396e565b9150506117e3565b505f5b848110156119705782816019811061191d5761191c6138e1565b5b602002015160065f600184611932919061393b565b81526020019081526020015f205f81548110611951576119506138e1565b5b905f5260205f20018190555080806119689061396e565b915050611902565b5050505050565b5f73ffffffffffffffffffffffffffffffffffffffff168373ffffffffffffffffffffffffffffffffffffffff16036119e5576040517f08c379a00000000000000000000000000000000000000000000000000000000081526004016119dc906141ab565b60405180910390fd5b8273ffffffffffffffffffffffffffffffffffffffff163373ffffffffffffffffffffffffffffffffffffffff1614611a53576040517f08c379a0000000000000000000000000000000000000000000000000000000008152600401611a4a90614213565b60405180910390fd5b611a5e8383836129ba565b505050565b5f805f60015f611a7286611ae3565b81526020019081526020015f205490507401000000000000000000000000000000000000000080821603611aa8575f9250611aac565b8092505b60017f800000000000000000000000000000000000000000000000000000000000000082611ada9190614231565b14915050915091565b5f819050919050565b5f8390505f73ffffffffffffffffffffffffffffffffffffffff168373ffffffffffffffffffffffffffffffffffffffff1603611b3457611b2f8285835f612c34565b611b91565b611b418285836001612c34565b8260035f8481526020019081526020015f205f6101000a81548173ffffffffffffffffffffffffffffffffffffffff021916908373ffffffffffffffffffffffffffffffffffffffff1602179055505b818373ffffffffffffffffffffffffffffffffffffffff168273ffffffffffffffffffffffffffffffffffffffff167f8c5be1e5ebec7d5bd14f71427d1e84f3dd0314c0f7b2291e5b200ac8c7c3b92560405160405180910390a450505050565b5f8573ffffffffffffffffffffffffffffffffffffffff163373ffffffffffffffffffffffffffffffffffffffff161480611cae575060025f8773ffffffffffffffffffffffffffffffffffffffff1673ffffffffffffffffffffffffffffffffffffffff1681526020019081526020015f205f3373ffffffffffffffffffffffffffffffffffffffff1673ffffffffffffffffffffffffffffffffffffffff1681526020019081526020015f205f9054906101000a900460ff165b90505f73ffffffffffffffffffffffffffffffffffffffff168673ffffffffffffffffffffffffffffffffffffffff1603611d1e576040517f08c379a0000000000000000000000000000000000000000000000000000000008152600401611d1590613acf565b60405180910390fd5b5f73ffffffffffffffffffffffffffffffffffffffff168573ffffffffffffffffffffffffffffffffffffffff1603611d8c576040517f08c379a0000000000000000000000000000000000000000000000000000000008152600401611d83906142ab565b60405180910390fd5b5f845190505f5b81811015611f7b575f868281518110611daf57611dae6138e1565b5b602002602001015190505f80611dc483611a63565b915091508a73ffffffffffffffffffffffffffffffffffffffff168273ffffffffffffffffffffffffffffffffffffffff1614611e36576040517f08c379a0000000000000000000000000000000000000000000000000000000008152600401611e2d90614313565b60405180910390fd5b8580611ea65750808015611ea557503373ffffffffffffffffffffffffffffffffffffffff1660035f8581526020019081526020015f205f9054906101000a900473ffffffffffffffffffffffffffffffffffffffff1673ffffffffffffffffffffffffffffffffffffffff16145b5b611ee5576040517f08c379a0000000000000000000000000000000000000000000000000000000008152600401611edc9061437b565b60405180910390fd5b611f0a8360015f611ef587611ae3565b81526020019081526020015f20548c5f612c34565b828a73ffffffffffffffffffffffffffffffffffffffff168c73ffffffffffffffffffffffffffffffffffffffff167fddf252ad1be2c89b69c2b068fc378daa952ba7f163c4a11628f55a4df523b3ef60405160405180910390a45050508080611f739061396e565b915050611d93565b508573ffffffffffffffffffffffffffffffffffffffff168773ffffffffffffffffffffffffffffffffffffffff161461205457805f808973ffffffffffffffffffffffffffffffffffffffff1673ffffffffffffffffffffffffffffffffffffffff1681526020019081526020015f205f828254611ffa9190614399565b92505081905550805f808873ffffffffffffffffffffffffffffffffffffffff1673ffffffffffffffffffffffffffffffffffffffff1681526020019081526020015f205f82825461204c919061393b565b925050819055505b6120738673ffffffffffffffffffffffffffffffffffffffff166124dd565b801561209457508280612093575061209286635e8bf64460e01b6124ff565b5b5b156120e6576120a63388888888612d46565b6120e5576040517f08c379a00000000000000000000000000000000000000000000000000000000081526004016120dc90614416565b60405180910390fd5b5b50505050505050565b5f806120fa83611a63565b915091505f73ffffffffffffffffffffffffffffffffffffffff168273ffffffffffffffffffffffffffffffffffffffff160361216c576040517f08c379a000000000000000000000000000000000000000000000000000000000815260040161216390613723565b60405180910390fd5b8473ffffffffffffffffffffffffffffffffffffffff168273ffffffffffffffffffffffffffffffffffffffff16146121da576040517f08c379a00000000000000000000000000000000000000000000000000000000081526004016121d19061447e565b60405180910390fd5b5f73ffffffffffffffffffffffffffffffffffffffff168473ffffffffffffffffffffffffffffffffffffffff1603612248576040517f08c379a000000000000000000000000000000000000000000000000000000000815260040161223f906142ab565b60405180910390fd5b8473ffffffffffffffffffffffffffffffffffffffff163373ffffffffffffffffffffffffffffffffffffffff16146123af5760025f8673ffffffffffffffffffffffffffffffffffffffff1673ffffffffffffffffffffffffffffffffffffffff1681526020019081526020015f205f3373ffffffffffffffffffffffffffffffffffffffff1673ffffffffffffffffffffffffffffffffffffffff1681526020019081526020015f205f9054906101000a900460ff168061236f575080801561236e57503373ffffffffffffffffffffffffffffffffffffffff1660035f8581526020019081526020015f205f9054906101000a900473ffffffffffffffffffffffffffffffffffffffff1673ffffffffffffffffffffffffffffffffffffffff16145b5b6123ae576040517f08c379a00000000000000000000000000000000000000000000000000000000081526004016123a5906144e6565b60405180910390fd5b5b5050505050565b5f808473ffffffffffffffffffffffffffffffffffffffff1673ffffffffffffffffffffffffffffffffffffffff1681526020019081526020015f205f81548092919061240290614504565b91905055505f808373ffffffffffffffffffffffffffffffffffffffff1673ffffffffffffffffffffffffffffffffffffffff1681526020019081526020015f205f8154809291906124539061396e565b919050555061247d8160015f61246885611ae3565b81526020019081526020015f2054845f612c34565b808273ffffffffffffffffffffffffffffffffffffffff168473ffffffffffffffffffffffffffffffffffffffff167fddf252ad1be2c89b69c2b068fc378daa952ba7f163c4a11628f55a4df523b3ef60405160405180910390a4505050565b5f808273ffffffffffffffffffffffffffffffffffffffff163b119050919050565b5f805f806301ffc9a760e01b8560405160240161251c919061453a565b604051602081830303815290604052907bffffffffffffffffffffffffffffffffffffffffffffffffffffffff19166020820180517bffffffffffffffffffffffffffffffffffffffffffffffffffffffff838183161783525050505090508060200181516040515f815260208183858c612710fa955080519450505050609e5a116125ab576125aa614553565b5b8280156125b55750815b935050505092915050565b5f808473ffffffffffffffffffffffffffffffffffffffff1663150b7a02888887876040518563ffffffff1660e01b815260040161260194939291906145d2565b6020604051808303815f875af115801561261d573d5f803e3d5ffd5b505050506040513d601f19601f820116820180604052508101906126419190614630565b905063150b7a0260e01b7bffffffffffffffffffffffffffffffffffffffffffffffffffffffff1916817bffffffffffffffffffffffffffffffffffffffffffffffffffffffff19161491505095945050505050565b5f8060015f6126a585611ae3565b81526020019081526020015f2054905074010000000000000000000000000000000000000000808216036126dc575f9150506126e1565b809150505b919050565b8173ffffffffffffffffffffffffffffffffffffffff168373ffffffffffffffffffffffffffffffffffffffff1614612754576040517f08c379a000000000000000000000000000000000000000000000000000000000815260040161274b906146a5565b60405180910390fd5b5f61275e82611ae3565b90507401000000000000000000000000000000000000000060017f80000000000000000000000000000000000000000000000000000000000000006127a39190614399565b60015f8481526020019081526020015f2054161760015f8381526020019081526020015f20819055505f808573ffffffffffffffffffffffffffffffffffffffff1673ffffffffffffffffffffffffffffffffffffffff1681526020019081526020015f205f81548092919061281890614504565b9190505550815f73ffffffffffffffffffffffffffffffffffffffff168573ffffffffffffffffffffffffffffffffffffffff167fddf252ad1be2c89b69c2b068fc378daa952ba7f163c4a11628f55a4df523b3ef60405160405180910390a450505050565b5f61288882611ae3565b90505f60015f8381526020019081526020015f2054146128dd576040517f08c379a00000000000000000000000000000000000000000000000000000000081526004016128d49061470d565b60405180910390fd5b8273ffffffffffffffffffffffffffffffffffffffff1660015f8381526020019081526020015f20819055505f808473ffffffffffffffffffffffffffffffffffffffff1673ffffffffffffffffffffffffffffffffffffffff1681526020019081526020015f205f8154809291906129559061396e565b9190505550818373ffffffffffffffffffffffffffffffffffffffff165f73ffffffffffffffffffffffffffffffffffffffff167fddf252ad1be2c89b69c2b068fc378daa952ba7f163c4a11628f55a4df523b3ef60405160405180910390a4505050565b8060025f8573ffffffffffffffffffffffffffffffffffffffff1673ffffffffffffffffffffffffffffffffffffffff1681526020019081526020015f205f8473ffffffffffffffffffffffffffffffffffffffff1673ffffffffffffffffffffffffffffffffffffffff1681526020019081526020015f205f6101000a81548160ff0219169083151502179055508173ffffffffffffffffffffffffffffffffffffffff168373ffffffffffffffffffffffffffffffffffffffff167f17307eab39ab6107e8899845ad3d59bd9653f200f220920489ca2b5937696c3183604051612aa69190612eeb565b60405180910390a3505050565b5f7fb53127684a568b3173ae13b9f8a6016e243e63b6e8ee1178d6a717850b5d610354905090565b60605f8203612b21576040518060400160405280600181526020017f30000000000000000000000000000000000000000000000000000000000000008152509050612c2f565b5f8290505f5b5f8214612b4f578080600101915050600a8281612b4757612b46613c15565b5b049150612b27565b5f8167ffffffffffffffff811115612b6a57612b696133c2565b5b6040519080825280601f01601f191660200182016040528015612b9c5781602001600182028036833780820191505090505b5090505f6001830390505b5f8614612c2757600a8681612bbf57612bbe613c15565b5b0660300160f81b82828060019003935081518110612be057612bdf6138e1565b5b60200101907effffffffffffffffffffffffffffffffffffffffffffffffffffffffffffff191690815f1a905350600a8681612c1f57612c1e613c15565b5b049550612ba7565b819450505050505b919050565b8015612cb9578173ffffffffffffffffffffffffffffffffffffffff167f80000000000000000000000000000000000000000000000000000000000000007fffffffffffffffffffffffff00000000000000000000000000000000000000008516171760015f612ca387611ae3565b81526020019081526020015f2081905550612d40565b8173ffffffffffffffffffffffffffffffffffffffff1660017f8000000000000000000000000000000000000000000000000000000000000000612cfd9190614399565b7fffffffffffffffffffffffff00000000000000000000000000000000000000008516161760015f612d2e87611ae3565b81526020019081526020015f20819055505b50505050565b5f808473ffffffffffffffffffffffffffffffffffffffff16634b808c46888887876040518563ffffffff1660e01b8152600401612d8794939291906147e2565b6020604051808303815f875af1158015612da3573d5f803e3d5ffd5b505050506040513d601f19601f82011682018060405250810190612dc79190614630565b9050634b808c4660e01b7bffffffffffffffffffffffffffffffffffffffffffffffffffffffff1916817bffffffffffffffffffffffffffffffffffffffffffffffffffffffff19161491505095945050505050565b604051806103200160405280601990602082028036833780820191505090505090565b5f604051905090565b5f80fd5b5f80fd5b5f7fffffffff0000000000000000000000000000000000000000000000000000000082169050919050565b612e8581612e51565b8114612e8f575f80fd5b50565b5f81359050612ea081612e7c565b92915050565b5f60208284031215612ebb57612eba612e49565b5b5f612ec884828501612e92565b91505092915050565b5f8115159050919050565b612ee581612ed1565b82525050565b5f602082019050612efe5f830184612edc565b92915050565b5f81519050919050565b5f82825260208201905092915050565b5f5b83811015612f3b578082015181840152602081019050612f20565b5f8484015250505050565b5f601f19601f8301169050919050565b5f612f6082612f04565b612f6a8185612f0e565b9350612f7a818560208601612f1e565b612f8381612f46565b840191505092915050565b5f6020820190508181035f830152612fa68184612f56565b905092915050565b5f819050919050565b612fc081612fae565b8114612fca575f80fd5b50565b5f81359050612fdb81612fb7565b92915050565b5f60208284031215612ff657612ff5612e49565b5b5f61300384828501612fcd565b91505092915050565b5f73ffffffffffffffffffffffffffffffffffffffff82169050919050565b5f6130358261300c565b9050919050565b6130458161302b565b82525050565b5f60208201905061305e5f83018461303c565b92915050565b61306d8161302b565b8114613077575f80fd5b50565b5f8135905061308881613064565b92915050565b5f80604083850312156130a4576130a3612e49565b5b5f6130b18582860161307a565b92505060206130c285828601612fcd565b9150509250929050565b5f80fd5b5f80fd5b5f80fd5b5f8083601f8401126130ed576130ec6130cc565b5b8235905067ffffffffffffffff81111561310a576131096130d0565b5b602083019150836020820283011115613126576131256130d4565b5b9250929050565b5f8083601f840112613142576131416130cc565b5b8235905067ffffffffffffffff81111561315f5761315e6130d0565b5b60208301915083600182028301111561317b5761317a6130d4565b5b9250929050565b5f805f805f806080878903121561319c5761319b612e49565b5b5f6131a989828a0161307a565b96505060206131ba89828a0161307a565b955050604087013567ffffffffffffffff8111156131db576131da612e4d565b5b6131e789828a016130d8565b9450945050606087013567ffffffffffffffff81111561320a57613209612e4d565b5b61321689828a0161312d565b92509250509295509295509295565b5f805f6060848603121561323c5761323b612e49565b5b5f6132498682870161307a565b935050602061325a8682870161307a565b925050604061326b86828701612fcd565b9150509250925092565b5f806040838503121561328b5761328a612e49565b5b5f61329885828601612fcd565b92505060206132a985828601612fcd565b9150509250929050565b5f602082840312156132c8576132c7612e49565b5b5f6132d58482850161307a565b91505092915050565b6132e781612fae565b82525050565b5f6020820190506133005f8301846132de565b92915050565b5f805f6060848603121561331d5761331c612e49565b5b5f61332a86828701612fcd565b935050602061333b86828701612fcd565b925050604061334c86828701612fcd565b9150509250925092565b61335f81612ed1565b8114613369575f80fd5b50565b5f8135905061337a81613356565b92915050565b5f806040838503121561339657613395612e49565b5b5f6133a38582860161307a565b92505060206133b48582860161336c565b9150509250929050565b5f80fd5b7f4e487b71000000000000000000000000000000000000000000000000000000005f52604160045260245ffd5b6133f882612f46565b810181811067ffffffffffffffff82111715613417576134166133c2565b5b80604052505050565b5f613429612e40565b905061343582826133ef565b919050565b5f67ffffffffffffffff821115613454576134536133c2565b5b61345d82612f46565b9050602081019050919050565b828183375f83830152505050565b5f61348a6134858461343a565b613420565b9050828152602081018484840111156134a6576134a56133be565b5b6134b184828561346a565b509392505050565b5f82601f8301126134cd576134cc6130cc565b5b81356134dd848260208601613478565b91505092915050565b5f602082840312156134fb576134fa612e49565b5b5f82013567ffffffffffffffff81111561351857613517612e4d565b5b613524848285016134b9565b91505092915050565b5f67ffffffffffffffff821115613547576135466133c2565b5b61355082612f46565b9050602081019050919050565b5f61356f61356a8461352d565b613420565b90508281526020810184848401111561358b5761358a6133be565b5b61359684828561346a565b509392505050565b5f82601f8301126135b2576135b16130cc565b5b81356135c284826020860161355d565b91505092915050565b5f805f80608085870312156135e3576135e2612e49565b5b5f6135f08782880161307a565b94505060206136018782880161307a565b935050604061361287828801612fcd565b925050606085013567ffffffffffffffff81111561363357613632612e4d565b5b61363f8782880161359e565b91505092959194509250565b5f806040838503121561366157613660612e49565b5b5f61366e8582860161307a565b925050602061367f8582860161307a565b9150509250929050565b5f805f606084860312156136a05761369f612e49565b5b5f6136ad8682870161307a565b93505060206136be8682870161307a565b92505060406136cf8682870161336c565b9150509250925092565b7f4e4f4e4558495354454e545f544f4b454e0000000000000000000000000000005f82015250565b5f61370d601183612f0e565b9150613718826136d9565b602082019050919050565b5f6020820190508181035f83015261373a81613701565b9050919050565b7f554e415554484f52495a45445f415050524f56414c00000000000000000000005f82015250565b5f613775601583612f0e565b915061378082613741565b602082019050919050565b5f6020820190508181035f8301526137a281613769565b9050919050565b7f4552433732315f5452414e534645525f52454a454354454400000000000000005f82015250565b5f6137dd601883612f0e565b91506137e8826137a9565b602082019050919050565b5f6020820190508181035f83015261380a816137d1565b9050919050565b7f5a45524f5f414444524553535f53454e444552000000000000000000000000005f82015250565b5f613845601383612f0e565b915061385082613811565b602082019050919050565b5f6020820190508181035f83015261387281613839565b9050919050565b7f4f574e45525f4e4f545f53454e444552000000000000000000000000000000005f82015250565b5f6138ad601083612f0e565b91506138b882613879565b602082019050919050565b5f6020820190508181035f8301526138da816138a1565b9050919050565b7f4e487b71000000000000000000000000000000000000000000000000000000005f52603260045260245ffd5b7f4e487b71000000000000000000000000000000000000000000000000000000005f52601160045260245ffd5b5f61394582612fae565b915061395083612fae565b92508282019050808211156139685761396761390e565b5b92915050565b5f61397882612fae565b91507fffffffffffffffffffffffffffffffffffffffffffffffffffffffffffffffff82036139aa576139a961390e565b5b600182019050919050565b7f4e4f4e4558495354414e545f544f4b454e0000000000000000000000000000005f82015250565b5f6139e9601183612f0e565b91506139f4826139b5565b602082019050919050565b5f6020820190508181035f830152613a16816139dd565b9050919050565b7f5a45524f5f414444524553535f4f574e455200000000000000000000000000005f82015250565b5f613a51601283612f0e565b9150613a5c82613a1d565b602082019050919050565b5f6020820190508181035f830152613a7e81613a45565b9050919050565b7f4e4f545f46524f4d5f5a45524f414444524553530000000000000000000000005f82015250565b5f613ab9601483612f0e565b9150613ac482613a85565b602082019050919050565b5f6020820190508181035f830152613ae681613aad565b9050919050565b7f554e415554484f52495a45445f4255524e0000000000000000000000000000005f82015250565b5f613b21601183612f0e565b9150613b2c82613aed565b602082019050919050565b5f6020820190508181035f830152613b4e81613b15565b9050919050565b5f819050919050565b5f613b6882613b55565b9150613b7383613b55565b9250828202613b8181613b55565b91507f800000000000000000000000000000000000000000000000000000000000000084145f84121615613bb857613bb761390e565b5b8282058414831517613bcd57613bcc61390e565b5b5092915050565b5f613bde82613b55565b9150613be983613b55565b92508282019050828112155f8312168382125f841215161715613c0f57613c0e61390e565b5b92915050565b7f4e487b71000000000000000000000000000000000000000000000000000000005f52601260045260245ffd5b5f613c4c82613b55565b9150613c5783613b55565b925082613c6757613c66613c15565b5b60015f0383147f800000000000000000000000000000000000000000000000000000000000000083141615613c9f57613c9e61390e565b5b828205905092915050565b5f613cb482612fae565b9150613cbf83612fae565b925082613ccf57613cce613c15565b5b828206905092915050565b7f4e487b71000000000000000000000000000000000000000000000000000000005f52602260045260245ffd5b5f6002820490506001821680613d1e57607f821691505b602082108103613d3157613d30613cda565b5b50919050565b5f819050815f5260205f209050919050565b5f6020601f8301049050919050565b5f82821b905092915050565b5f60088302613d937fffffffffffffffffffffffffffffffffffffffffffffffffffffffffffffffff82613d58565b613d9d8683613d58565b95508019841693508086168417925050509392505050565b5f819050919050565b5f613dd8613dd3613dce84612fae565b613db5565b612fae565b9050919050565b5f819050919050565b613df183613dbe565b613e05613dfd82613ddf565b848454613d64565b825550505050565b5f90565b613e19613e0d565b613e24818484613de8565b505050565b5b81811015613e4757613e3c5f82613e11565b600181019050613e2a565b5050565b601f821115613e8c57613e5d81613d37565b613e6684613d49565b81016020851015613e75578190505b613e89613e8185613d49565b830182613e29565b50505b505050565b5f82821c905092915050565b5f613eac5f1984600802613e91565b1980831691505092915050565b5f613ec48383613e9d565b9150826002028217905092915050565b613edd82612f04565b67ffffffffffffffff811115613ef657613ef56133c2565b5b613f008254613d07565b613f0b828285613e4b565b5f60209050601f831160018114613f3c575f8415613f2a578287015190505b613f348582613eb9565b865550613f9b565b601f198416613f4a86613d37565b5f5b82811015613f7157848901518255600182019150602085019450602081019050613f4c565b86831015613f8e5784890151613f8a601f891682613e9d565b8355505b6001600288020188555050505b505050505050565b5f81905092915050565b7f646174613a746578742f706c61696e2c7b226e616d65223a22546f6b656e20005f82015250565b5f613fe1601f83613fa3565b9150613fec82613fad565b601f82019050919050565b5f61400182612f04565b61400b8185613fa3565b935061401b818560208601612f1e565b80840191505092915050565b7f222c226465736372697074696f6e223a220000000000000000000000000000005f82015250565b5f61405b601183613fa3565b915061406682614027565b601182019050919050565b7f222c227374617465223a000000000000000000000000000000000000000000005f82015250565b5f6140a5600a83613fa3565b91506140b082614071565b600a82019050919050565b7f317d0000000000000000000000000000000000000000000000000000000000005f82015250565b5f6140ef600283613fa3565b91506140fa826140bb565b600282019050919050565b5f61410f82613fd5565b915061411b8286613ff7565b91506141268261404f565b91506141328285613ff7565b915061413d82614099565b91506141498284613ff7565b9150614154826140e3565b9150819050949350505050565b7f496e76616c69642073656e6465722061646472657373000000000000000000005f82015250565b5f614195601683612f0e565b91506141a082614161565b602082019050919050565b5f6020820190508181035f8301526141c281614189565b9050919050565b7f554e415554484f52495a45445f415050524f56455f464f525f414c4c000000005f82015250565b5f6141fd601c83612f0e565b9150614208826141c9565b602082019050919050565b5f6020820190508181035f83015261422a816141f1565b9050919050565b5f61423b82612fae565b915061424683612fae565b92508261425657614255613c15565b5b828204905092915050565b7f4e4f545f544f5f5a45524f4144445245535300000000000000000000000000005f82015250565b5f614295601283612f0e565b91506142a082614261565b602082019050919050565b5f6020820190508181035f8301526142c281614289565b9050919050565b7f42415443485452414e5346455246524f4d5f4e4f545f4f574e455200000000005f82015250565b5f6142fd601b83612f0e565b9150614308826142c9565b602082019050919050565b5f6020820190508181035f83015261432a816142f1565b9050919050565b7f4e4f545f415554484f52495a45440000000000000000000000000000000000005f82015250565b5f614365600e83612f0e565b915061437082614331565b602082019050919050565b5f6020820190508181035f83015261439281614359565b9050919050565b5f6143a382612fae565b91506143ae83612fae565b92508282039050818111156143c6576143c561390e565b5b92915050565b7f4552433732315f42415443485f5452414e534645525f52454a454354454400005f82015250565b5f614400601e83612f0e565b915061440b826143cc565b602082019050919050565b5f6020820190508181035f83015261442d816143f4565b9050919050565b7f434845434b5452414e534645525f4e4f545f4f574e45520000000000000000005f82015250565b5f614468601783612f0e565b915061447382614434565b602082019050919050565b5f6020820190508181035f8301526144958161445c565b9050919050565b7f554e415554484f52495a45445f5452414e5346455200000000000000000000005f82015250565b5f6144d0601583612f0e565b91506144db8261449c565b602082019050919050565b5f6020820190508181035f8301526144fd816144c4565b9050919050565b5f61450e82612fae565b91505f82036145205761451f61390e565b5b600182039050919050565b61453481612e51565b82525050565b5f60208201905061454d5f83018461452b565b92915050565b7f4e487b71000000000000000000000000000000000000000000000000000000005f52600160045260245ffd5b5f81519050919050565b5f82825260208201905092915050565b5f6145a482614580565b6145ae818561458a565b93506145be818560208601612f1e565b6145c781612f46565b840191505092915050565b5f6080820190506145e55f83018761303c565b6145f2602083018661303c565b6145ff60408301856132de565b8181036060830152614611818461459a565b905095945050505050565b5f8151905061462a81612e7c565b92915050565b5f6020828403121561464557614644612e49565b5b5f6146528482850161461c565b91505092915050565b7f4e4f545f4f574e455200000000000000000000000000000000000000000000005f82015250565b5f61468f600983612f0e565b915061469a8261465b565b602082019050919050565b5f6020820190508181035f8301526146bc81614683565b9050919050565b7f414c52454144595f4d494e5445440000000000000000000000000000000000005f82015250565b5f6146f7600e83612f0e565b9150614702826146c3565b602082019050919050565b5f6020820190508181035f830152614724816146eb565b9050919050565b5f81519050919050565b5f82825260208201905092915050565b5f819050602082019050919050565b61475d81612fae565b82525050565b5f61476e8383614754565b60208301905092915050565b5f602082019050919050565b5f6147908261472b565b61479a8185614735565b93506147a583614745565b805f5b838110156147d55781516147bc8882614763565b97506147c78361477a565b9250506001810190506147a8565b5085935050505092915050565b5f6080820190506147f55f83018761303c565b614802602083018661303c565b81810360408301526148148185614786565b90508181036060830152614828818461459a565b90509594505050505056fea26469706673582212201379fcb52741d2562c023dcc84788859137f2d256573b6272841efa7c00fa10e64736f6c63430008140033",
      "opcodes": "PUSH1 0x80 PUSH1 0x40 MSTORE CALLVALUE DUP1 ISZERO PUSH3 0x10 JUMPI PUSH0 DUP1 REVERT JUMPDEST POP PUSH1 0x40 MLOAD PUSH3 0x4EAF CODESIZE SUB DUP1 PUSH3 0x4EAF DUP4 CODECOPY DUP2 DUP2 ADD PUSH1 0x40 MSTORE DUP2 ADD SWAP1 PUSH3 0x36 SWAP2 SWAP1 PUSH3 0x2CE JUMP JUMPDEST PUSH3 0x47 DUP2 PUSH3 0x4E PUSH1 0x20 SHL PUSH1 0x20 SHR JUMP JUMPDEST POP PUSH3 0x638 JUMP JUMPDEST PUSH0 PUSH3 0x5F PUSH3 0x121 PUSH1 0x20 SHL PUSH1 0x20 SHR JUMP JUMPDEST SWAP1 POP PUSH0 PUSH20 0xFFFFFFFFFFFFFFFFFFFFFFFFFFFFFFFFFFFFFFFF AND DUP2 PUSH20 0xFFFFFFFFFFFFFFFFFFFFFFFFFFFFFFFFFFFFFFFF AND SUB PUSH3 0xD2 JUMPI PUSH20 0xFFFFFFFFFFFFFFFFFFFFFFFFFFFFFFFFFFFFFFFF PUSH32 0xB53127684A568B3173AE13B9F8A6016E243E63B6E8EE1178D6A717850B5D6103 SSTORE PUSH3 0x10B JUMP JUMPDEST DUP1 PUSH20 0xFFFFFFFFFFFFFFFFFFFFFFFFFFFFFFFFFFFFFFFF AND CALLER PUSH20 0xFFFFFFFFFFFFFFFFFFFFFFFFFFFFFFFFFFFFFFFF AND EQ PUSH3 0x10A JUMPI PUSH0 DUP1 REVERT JUMPDEST JUMPDEST DUP2 PUSH1 0x5 SWAP1 DUP2 PUSH3 0x11C SWAP2 SWAP1 PUSH3 0x554 JUMP JUMPDEST POP POP POP JUMP JUMPDEST PUSH0 PUSH32 0xB53127684A568B3173AE13B9F8A6016E243E63B6E8EE1178D6A717850B5D6103 SLOAD SWAP1 POP SWAP1 JUMP JUMPDEST PUSH0 PUSH1 0x40 MLOAD SWAP1 POP SWAP1 JUMP JUMPDEST PUSH0 DUP1 REVERT JUMPDEST PUSH0 DUP1 REVERT JUMPDEST PUSH0 DUP1 REVERT JUMPDEST PUSH0 DUP1 REVERT JUMPDEST PUSH0 PUSH1 0x1F NOT PUSH1 0x1F DUP4 ADD AND SWAP1 POP SWAP2 SWAP1 POP JUMP JUMPDEST PUSH32 0x4E487B7100000000000000000000000000000000000000000000000000000000 PUSH0 MSTORE PUSH1 0x41 PUSH1 0x4 MSTORE PUSH1 0x24 PUSH0 REVERT JUMPDEST PUSH3 0x1AA DUP3 PUSH3 0x162 JUMP JUMPDEST DUP2 ADD DUP2 DUP2 LT PUSH8 0xFFFFFFFFFFFFFFFF DUP3 GT OR ISZERO PUSH3 0x1CC JUMPI PUSH3 0x1CB PUSH3 0x172 JUMP JUMPDEST JUMPDEST DUP1 PUSH1 0x40 MSTORE POP POP POP JUMP JUMPDEST PUSH0 PUSH3 0x1E0 PUSH3 0x149 JUMP JUMPDEST SWAP1 POP PUSH3 0x1EE DUP3 DUP3 PUSH3 0x19F JUMP JUMPDEST SWAP2 SWAP1 POP JUMP JUMPDEST PUSH0 PUSH8 0xFFFFFFFFFFFFFFFF DUP3 GT ISZERO PUSH3 0x210 JUMPI PUSH3 0x20F PUSH3 0x172 JUMP JUMPDEST JUMPDEST PUSH3 0x21B DUP3 PUSH3 0x162 JUMP JUMPDEST SWAP1 POP PUSH1 0x20 DUP2 ADD SWAP1 POP SWAP2 SWAP1 POP JUMP JUMPDEST PUSH0 JUMPDEST DUP4 DUP2 LT ISZERO PUSH3 0x247 JUMPI DUP1 DUP3 ADD MLOAD DUP2 DUP5 ADD MSTORE PUSH1 0x20 DUP2 ADD SWAP1 POP PUSH3 0x22A JUMP JUMPDEST PUSH0 DUP5 DUP5 ADD MSTORE POP POP POP POP JUMP JUMPDEST PUSH0 PUSH3 0x268 PUSH3 0x262 DUP5 PUSH3 0x1F3 JUMP JUMPDEST PUSH3 0x1D5 JUMP JUMPDEST SWAP1 POP DUP3 DUP2 MSTORE PUSH1 0x20 DUP2 ADD DUP5 DUP5 DUP5 ADD GT ISZERO PUSH3 0x287 JUMPI PUSH3 0x286 PUSH3 0x15E JUMP JUMPDEST JUMPDEST PUSH3 0x294 DUP5 DUP3 DUP6 PUSH3 0x228 JUMP JUMPDEST POP SWAP4 SWAP3 POP POP POP JUMP JUMPDEST PUSH0 DUP3 PUSH1 0x1F DUP4 ADD SLT PUSH3 0x2B3 JUMPI PUSH3 0x2B2 PUSH3 0x15A JUMP JUMPDEST JUMPDEST DUP2 MLOAD PUSH3 0x2C5 DUP5 DUP3 PUSH1 0x20 DUP7 ADD PUSH3 0x252 JUMP JUMPDEST SWAP2 POP POP SWAP3 SWAP2 POP POP JUMP JUMPDEST PUSH0 PUSH1 0x20 DUP3 DUP5 SUB SLT ISZERO PUSH3 0x2E6 JUMPI PUSH3 0x2E5 PUSH3 0x152 JUMP JUMPDEST JUMPDEST PUSH0 DUP3 ADD MLOAD PUSH8 0xFFFFFFFFFFFFFFFF DUP2 GT ISZERO PUSH3 0x306 JUMPI PUSH3 0x305 PUSH3 0x156 JUMP JUMPDEST JUMPDEST PUSH3 0x314 DUP5 DUP3 DUP6 ADD PUSH3 0x29C JUMP JUMPDEST SWAP2 POP POP SWAP3 SWAP2 POP POP JUMP JUMPDEST PUSH0 DUP2 MLOAD SWAP1 POP SWAP2 SWAP1 POP JUMP JUMPDEST PUSH32 0x4E487B7100000000000000000000000000000000000000000000000000000000 PUSH0 MSTORE PUSH1 0x22 PUSH1 0x4 MSTORE PUSH1 0x24 PUSH0 REVERT JUMPDEST PUSH0 PUSH1 0x2 DUP3 DIV SWAP1 POP PUSH1 0x1 DUP3 AND DUP1 PUSH3 0x36C JUMPI PUSH1 0x7F DUP3 AND SWAP2 POP JUMPDEST PUSH1 0x20 DUP3 LT DUP2 SUB PUSH3 0x382 JUMPI PUSH3 0x381 PUSH3 0x327 JUMP JUMPDEST JUMPDEST POP SWAP2 SWAP1 POP JUMP JUMPDEST PUSH0 DUP2 SWAP1 POP DUP2 PUSH0 MSTORE PUSH1 0x20 PUSH0 KECCAK256 SWAP1 POP SWAP2 SWAP1 POP JUMP JUMPDEST PUSH0 PUSH1 0x20 PUSH1 0x1F DUP4 ADD DIV SWAP1 POP SWAP2 SWAP1 POP JUMP JUMPDEST PUSH0 DUP3 DUP3 SHL SWAP1 POP SWAP3 SWAP2 POP POP JUMP JUMPDEST PUSH0 PUSH1 0x8 DUP4 MUL PUSH3 0x3E6 PUSH32 0xFFFFFFFFFFFFFFFFFFFFFFFFFFFFFFFFFFFFFFFFFFFFFFFFFFFFFFFFFFFFFFFF DUP3 PUSH3 0x3A9 JUMP JUMPDEST PUSH3 0x3F2 DUP7 DUP4 PUSH3 0x3A9 JUMP JUMPDEST SWAP6 POP DUP1 NOT DUP5 AND SWAP4 POP DUP1 DUP7 AND DUP5 OR SWAP3 POP POP POP SWAP4 SWAP3 POP POP POP JUMP JUMPDEST PUSH0 DUP2 SWAP1 POP SWAP2 SWAP1 POP JUMP JUMPDEST PUSH0 DUP2 SWAP1 POP SWAP2 SWAP1 POP JUMP JUMPDEST PUSH0 PUSH3 0x43C PUSH3 0x436 PUSH3 0x430 DUP5 PUSH3 0x40A JUMP JUMPDEST PUSH3 0x413 JUMP JUMPDEST PUSH3 0x40A JUMP JUMPDEST SWAP1 POP SWAP2 SWAP1 POP JUMP JUMPDEST PUSH0 DUP2 SWAP1 POP SWAP2 SWAP1 POP JUMP JUMPDEST PUSH3 0x457 DUP4 PUSH3 0x41C JUMP JUMPDEST PUSH3 0x46F PUSH3 0x466 DUP3 PUSH3 0x443 JUMP JUMPDEST DUP5 DUP5 SLOAD PUSH3 0x3B5 JUMP JUMPDEST DUP3 SSTORE POP POP POP POP JUMP JUMPDEST PUSH0 SWAP1 JUMP JUMPDEST PUSH3 0x485 PUSH3 0x477 JUMP JUMPDEST PUSH3 0x492 DUP2 DUP5 DUP5 PUSH3 0x44C JUMP JUMPDEST POP POP POP JUMP JUMPDEST JUMPDEST DUP2 DUP2 LT ISZERO PUSH3 0x4B9 JUMPI PUSH3 0x4AD PUSH0 DUP3 PUSH3 0x47B JUMP JUMPDEST PUSH1 0x1 DUP2 ADD SWAP1 POP PUSH3 0x498 JUMP JUMPDEST POP POP JUMP JUMPDEST PUSH1 0x1F DUP3 GT ISZERO PUSH3 0x508 JUMPI PUSH3 0x4D2 DUP2 PUSH3 0x388 JUMP JUMPDEST PUSH3 0x4DD DUP5 PUSH3 0x39A JUMP JUMPDEST DUP2 ADD PUSH1 0x20 DUP6 LT ISZERO PUSH3 0x4ED JUMPI DUP2 SWAP1 POP JUMPDEST PUSH3 0x505 PUSH3 0x4FC DUP6 PUSH3 0x39A JUMP JUMPDEST DUP4 ADD DUP3 PUSH3 0x497 JUMP JUMPDEST POP POP JUMPDEST POP POP POP JUMP JUMPDEST PUSH0 DUP3 DUP3 SHR SWAP1 POP SWAP3 SWAP2 POP POP JUMP JUMPDEST PUSH0 PUSH3 0x52A PUSH0 NOT DUP5 PUSH1 0x8 MUL PUSH3 0x50D JUMP JUMPDEST NOT DUP1 DUP4 AND SWAP2 POP POP SWAP3 SWAP2 POP POP JUMP JUMPDEST PUSH0 PUSH3 0x544 DUP4 DUP4 PUSH3 0x519 JUMP JUMPDEST SWAP2 POP DUP3 PUSH1 0x2 MUL DUP3 OR SWAP1 POP SWAP3 SWAP2 POP POP JUMP JUMPDEST PUSH3 0x55F DUP3 PUSH3 0x31D JUMP JUMPDEST PUSH8 0xFFFFFFFFFFFFFFFF DUP2 GT ISZERO PUSH3 0x57B JUMPI PUSH3 0x57A PUSH3 0x172 JUMP JUMPDEST JUMPDEST PUSH3 0x587 DUP3 SLOAD PUSH3 0x354 JUMP JUMPDEST PUSH3 0x594 DUP3 DUP3 DUP6 PUSH3 0x4BD JUMP JUMPDEST PUSH0 PUSH1 0x20 SWAP1 POP PUSH1 0x1F DUP4 GT PUSH1 0x1 DUP2 EQ PUSH3 0x5CA JUMPI PUSH0 DUP5 ISZERO PUSH3 0x5B5 JUMPI DUP3 DUP8 ADD MLOAD SWAP1 POP JUMPDEST PUSH3 0x5C1 DUP6 DUP3 PUSH3 0x537 JUMP JUMPDEST DUP7 SSTORE POP PUSH3 0x630 JUMP JUMPDEST PUSH1 0x1F NOT DUP5 AND PUSH3 0x5DA DUP7 PUSH3 0x388 JUMP JUMPDEST PUSH0 JUMPDEST DUP3 DUP2 LT ISZERO PUSH3 0x603 JUMPI DUP5 DUP10 ADD MLOAD DUP3 SSTORE PUSH1 0x1 DUP3 ADD SWAP2 POP PUSH1 0x20 DUP6 ADD SWAP5 POP PUSH1 0x20 DUP2 ADD SWAP1 POP PUSH3 0x5DC JUMP JUMPDEST DUP7 DUP4 LT ISZERO PUSH3 0x623 JUMPI DUP5 DUP10 ADD MLOAD PUSH3 0x61F PUSH1 0x1F DUP10 AND DUP3 PUSH3 0x519 JUMP JUMPDEST DUP4 SSTORE POP JUMPDEST PUSH1 0x1 PUSH1 0x2 DUP9 MUL ADD DUP9 SSTORE POP POP POP JUMPDEST POP POP POP POP POP POP JUMP JUMPDEST PUSH2 0x4869 DUP1 PUSH3 0x646 PUSH0 CODECOPY PUSH0 RETURN INVALID PUSH1 0x80 PUSH1 0x40 MSTORE CALLVALUE DUP1 ISZERO PUSH2 0xF JUMPI PUSH0 DUP1 REVERT JUMPDEST POP PUSH1 0x4 CALLDATASIZE LT PUSH2 0x156 JUMPI PUSH0 CALLDATALOAD PUSH1 0xE0 SHR DUP1 PUSH4 0x70A08231 GT PUSH2 0xC1 JUMPI DUP1 PUSH4 0xB1441CE6 GT PUSH2 0x7A JUMPI DUP1 PUSH4 0xB1441CE6 EQ PUSH2 0x3A6 JUMPI DUP1 PUSH4 0xB88D4FDE EQ PUSH2 0x3C2 JUMPI DUP1 PUSH4 0xC87B56DD EQ PUSH2 0x3DE JUMPI DUP1 PUSH4 0xE985E9C5 EQ PUSH2 0x40E JUMPI DUP1 PUSH4 0xEB8AC921 EQ PUSH2 0x43E JUMPI DUP1 PUSH4 0xEEB5A5D1 EQ PUSH2 0x45A JUMPI PUSH2 0x156 JUMP JUMPDEST DUP1 PUSH4 0x70A08231 EQ PUSH2 0x2E8 JUMPI DUP1 PUSH4 0x79CC6790 EQ PUSH2 0x318 JUMPI DUP1 PUSH4 0x8CB8A0F7 EQ PUSH2 0x334 JUMPI DUP1 PUSH4 0x95D89B41 EQ PUSH2 0x350 JUMPI DUP1 PUSH4 0xA0712D68 EQ PUSH2 0x36E JUMPI DUP1 PUSH4 0xA22CB465 EQ PUSH2 0x38A JUMPI PUSH2 0x156 JUMP JUMPDEST DUP1 PUSH4 0x28CFBD46 GT PUSH2 0x113 JUMPI DUP1 PUSH4 0x28CFBD46 EQ PUSH2 0x22C JUMPI DUP1 PUSH4 0x2B991746 EQ PUSH2 0x248 JUMPI DUP1 PUSH4 0x2BB0B304 EQ PUSH2 0x264 JUMPI DUP1 PUSH4 0x42842E0E EQ PUSH2 0x280 JUMPI DUP1 PUSH4 0x42966C68 EQ PUSH2 0x29C JUMPI DUP1 PUSH4 0x6352211E EQ PUSH2 0x2B8 JUMPI PUSH2 0x156 JUMP JUMPDEST DUP1 PUSH4 0x1FFC9A7 EQ PUSH2 0x15A JUMPI DUP1 PUSH4 0x6FDDE03 EQ PUSH2 0x18A JUMPI DUP1 PUSH4 0x81812FC EQ PUSH2 0x1A8 JUMPI DUP1 PUSH4 0x95EA7B3 EQ PUSH2 0x1D8 JUMPI DUP1 PUSH4 0x15DDC535 EQ PUSH2 0x1F4 JUMPI DUP1 PUSH4 0x23B872DD EQ PUSH2 0x210 JUMPI JUMPDEST PUSH0 DUP1 REVERT JUMPDEST PUSH2 0x174 PUSH1 0x4 DUP1 CALLDATASIZE SUB DUP2 ADD SWAP1 PUSH2 0x16F SWAP2 SWAP1 PUSH2 0x2EA6 JUMP JUMPDEST PUSH2 0x476 JUMP JUMPDEST PUSH1 0x40 MLOAD PUSH2 0x181 SWAP2 SWAP1 PUSH2 0x2EEB JUMP JUMPDEST PUSH1 0x40 MLOAD DUP1 SWAP2 SUB SWAP1 RETURN JUMPDEST PUSH2 0x192 PUSH2 0x507 JUMP JUMPDEST PUSH1 0x40 MLOAD PUSH2 0x19F SWAP2 SWAP1 PUSH2 0x2F8E JUMP JUMPDEST PUSH1 0x40 MLOAD DUP1 SWAP2 SUB SWAP1 RETURN JUMPDEST PUSH2 0x1C2 PUSH1 0x4 DUP1 CALLDATASIZE SUB DUP2 ADD SWAP1 PUSH2 0x1BD SWAP2 SWAP1 PUSH2 0x2FE1 JUMP JUMPDEST PUSH2 0x544 JUMP JUMPDEST PUSH1 0x40 MLOAD PUSH2 0x1CF SWAP2 SWAP1 PUSH2 0x304B JUMP JUMPDEST PUSH1 0x40 MLOAD DUP1 SWAP2 SUB SWAP1 RETURN JUMPDEST PUSH2 0x1F2 PUSH1 0x4 DUP1 CALLDATASIZE SUB DUP2 ADD SWAP1 PUSH2 0x1ED SWAP2 SWAP1 PUSH2 0x308E JUMP JUMPDEST PUSH2 0x60D JUMP JUMPDEST STOP JUMPDEST PUSH2 0x20E PUSH1 0x4 DUP1 CALLDATASIZE SUB DUP2 ADD SWAP1 PUSH2 0x209 SWAP2 SWAP1 PUSH2 0x3182 JUMP JUMPDEST PUSH2 0x7A7 JUMP JUMPDEST STOP JUMPDEST PUSH2 0x22A PUSH1 0x4 DUP1 CALLDATASIZE SUB DUP2 ADD SWAP1 PUSH2 0x225 SWAP2 SWAP1 PUSH2 0x3225 JUMP JUMPDEST PUSH2 0x83F JUMP JUMPDEST STOP JUMPDEST PUSH2 0x246 PUSH1 0x4 DUP1 CALLDATASIZE SUB DUP2 ADD SWAP1 PUSH2 0x241 SWAP2 SWAP1 PUSH2 0x3182 JUMP JUMPDEST PUSH2 0x8F2 JUMP JUMPDEST STOP JUMPDEST PUSH2 0x262 PUSH1 0x4 DUP1 CALLDATASIZE SUB DUP2 ADD SWAP1 PUSH2 0x25D SWAP2 SWAP1 PUSH2 0x3225 JUMP JUMPDEST PUSH2 0x98B JUMP JUMPDEST STOP JUMPDEST PUSH2 0x27E PUSH1 0x4 DUP1 CALLDATASIZE SUB DUP2 ADD SWAP1 PUSH2 0x279 SWAP2 SWAP1 PUSH2 0x3275 JUMP JUMPDEST PUSH2 0xB8F JUMP JUMPDEST STOP JUMPDEST PUSH2 0x29A PUSH1 0x4 DUP1 CALLDATASIZE SUB DUP2 ADD SWAP1 PUSH2 0x295 SWAP2 SWAP1 PUSH2 0x3225 JUMP JUMPDEST PUSH2 0xC50 JUMP JUMPDEST STOP JUMPDEST PUSH2 0x2B6 PUSH1 0x4 DUP1 CALLDATASIZE SUB DUP2 ADD SWAP1 PUSH2 0x2B1 SWAP2 SWAP1 PUSH2 0x2FE1 JUMP JUMPDEST PUSH2 0xC6F JUMP JUMPDEST STOP JUMPDEST PUSH2 0x2D2 PUSH1 0x4 DUP1 CALLDATASIZE SUB DUP2 ADD SWAP1 PUSH2 0x2CD SWAP2 SWAP1 PUSH2 0x2FE1 JUMP JUMPDEST PUSH2 0xC85 JUMP JUMPDEST PUSH1 0x40 MLOAD PUSH2 0x2DF SWAP2 SWAP1 PUSH2 0x304B JUMP JUMPDEST PUSH1 0x40 MLOAD DUP1 SWAP2 SUB SWAP1 RETURN JUMPDEST PUSH2 0x302 PUSH1 0x4 DUP1 CALLDATASIZE SUB DUP2 ADD SWAP1 PUSH2 0x2FD SWAP2 SWAP1 PUSH2 0x32B3 JUMP JUMPDEST PUSH2 0xD04 JUMP JUMPDEST PUSH1 0x40 MLOAD PUSH2 0x30F SWAP2 SWAP1 PUSH2 0x32ED JUMP JUMPDEST PUSH1 0x40 MLOAD DUP1 SWAP2 SUB SWAP1 RETURN JUMPDEST PUSH2 0x332 PUSH1 0x4 DUP1 CALLDATASIZE SUB DUP2 ADD SWAP1 PUSH2 0x32D SWAP2 SWAP1 PUSH2 0x308E JUMP JUMPDEST PUSH2 0xDB7 JUMP JUMPDEST STOP JUMPDEST PUSH2 0x34E PUSH1 0x4 DUP1 CALLDATASIZE SUB DUP2 ADD SWAP1 PUSH2 0x349 SWAP2 SWAP1 PUSH2 0x3306 JUMP JUMPDEST PUSH2 0xFAE JUMP JUMPDEST STOP JUMPDEST PUSH2 0x358 PUSH2 0x135E JUMP JUMPDEST PUSH1 0x40 MLOAD PUSH2 0x365 SWAP2 SWAP1 PUSH2 0x2F8E JUMP JUMPDEST PUSH1 0x40 MLOAD DUP1 SWAP2 SUB SWAP1 RETURN JUMPDEST PUSH2 0x388 PUSH1 0x4 DUP1 CALLDATASIZE SUB DUP2 ADD SWAP1 PUSH2 0x383 SWAP2 SWAP1 PUSH2 0x2FE1 JUMP JUMPDEST PUSH2 0x139B JUMP JUMPDEST STOP JUMPDEST PUSH2 0x3A4 PUSH1 0x4 DUP1 CALLDATASIZE SUB DUP2 ADD SWAP1 PUSH2 0x39F SWAP2 SWAP1 PUSH2 0x3380 JUMP JUMPDEST PUSH2 0x1454 JUMP JUMPDEST STOP JUMPDEST PUSH2 0x3C0 PUSH1 0x4 DUP1 CALLDATASIZE SUB DUP2 ADD SWAP1 PUSH2 0x3BB SWAP2 SWAP1 PUSH2 0x34E6 JUMP JUMPDEST PUSH2 0x1463 JUMP JUMPDEST STOP JUMPDEST PUSH2 0x3DC PUSH1 0x4 DUP1 CALLDATASIZE SUB DUP2 ADD SWAP1 PUSH2 0x3D7 SWAP2 SWAP1 PUSH2 0x35CB JUMP JUMPDEST PUSH2 0x1529 JUMP JUMPDEST STOP JUMPDEST PUSH2 0x3F8 PUSH1 0x4 DUP1 CALLDATASIZE SUB DUP2 ADD SWAP1 PUSH2 0x3F3 SWAP2 SWAP1 PUSH2 0x2FE1 JUMP JUMPDEST PUSH2 0x15B6 JUMP JUMPDEST PUSH1 0x40 MLOAD PUSH2 0x405 SWAP2 SWAP1 PUSH2 0x2F8E JUMP JUMPDEST PUSH1 0x40 MLOAD DUP1 SWAP2 SUB SWAP1 RETURN JUMPDEST PUSH2 0x428 PUSH1 0x4 DUP1 CALLDATASIZE SUB DUP2 ADD SWAP1 PUSH2 0x423 SWAP2 SWAP1 PUSH2 0x364B JUMP JUMPDEST PUSH2 0x16D2 JUMP JUMPDEST PUSH1 0x40 MLOAD PUSH2 0x435 SWAP2 SWAP1 PUSH2 0x2EEB JUMP JUMPDEST PUSH1 0x40 MLOAD DUP1 SWAP2 SUB SWAP1 RETURN JUMPDEST PUSH2 0x458 PUSH1 0x4 DUP1 CALLDATASIZE SUB DUP2 ADD SWAP1 PUSH2 0x453 SWAP2 SWAP1 PUSH2 0x3275 JUMP JUMPDEST PUSH2 0x1760 JUMP JUMPDEST STOP JUMPDEST PUSH2 0x474 PUSH1 0x4 DUP1 CALLDATASIZE SUB DUP2 ADD SWAP1 PUSH2 0x46F SWAP2 SWAP1 PUSH2 0x3689 JUMP JUMPDEST PUSH2 0x1977 JUMP JUMPDEST STOP JUMPDEST PUSH0 PUSH4 0x1FFC9A7 PUSH1 0xE0 SHL DUP3 PUSH28 0xFFFFFFFFFFFFFFFFFFFFFFFFFFFFFFFFFFFFFFFFFFFFFFFFFFFFFFFF NOT AND EQ DUP1 PUSH2 0x4D0 JUMPI POP PUSH4 0x80AC58CD PUSH1 0xE0 SHL DUP3 PUSH28 0xFFFFFFFFFFFFFFFFFFFFFFFFFFFFFFFFFFFFFFFFFFFFFFFFFFFFFFFF NOT AND EQ JUMPDEST DUP1 PUSH2 0x500 JUMPI POP PUSH4 0x5B5E139F PUSH1 0xE0 SHL DUP3 PUSH28 0xFFFFFFFFFFFFFFFFFFFFFFFFFFFFFFFFFFFFFFFFFFFFFFFFFFFFFFFF NOT AND EQ JUMPDEST SWAP1 POP SWAP2 SWAP1 POP JUMP JUMPDEST PUSH1 0x60 PUSH1 0x40 MLOAD DUP1 PUSH1 0x40 ADD PUSH1 0x40 MSTORE DUP1 PUSH1 0x8 DUP2 MSTORE PUSH1 0x20 ADD PUSH32 0x486F706669656C64000000000000000000000000000000000000000000000000 DUP2 MSTORE POP SWAP1 POP SWAP1 JUMP JUMPDEST PUSH0 DUP1 PUSH0 PUSH2 0x550 DUP5 PUSH2 0x1A63 JUMP JUMPDEST SWAP2 POP SWAP2 POP PUSH0 PUSH20 0xFFFFFFFFFFFFFFFFFFFFFFFFFFFFFFFFFFFFFFFF AND DUP3 PUSH20 0xFFFFFFFFFFFFFFFFFFFFFFFFFFFFFFFFFFFFFFFF AND SUB PUSH2 0x5C2 JUMPI PUSH1 0x40 MLOAD PUSH32 0x8C379A000000000000000000000000000000000000000000000000000000000 DUP2 MSTORE PUSH1 0x4 ADD PUSH2 0x5B9 SWAP1 PUSH2 0x3723 JUMP JUMPDEST PUSH1 0x40 MLOAD DUP1 SWAP2 SUB SWAP1 REVERT JUMPDEST DUP1 ISZERO PUSH2 0x602 JUMPI PUSH1 0x3 PUSH0 DUP6 DUP2 MSTORE PUSH1 0x20 ADD SWAP1 DUP2 MSTORE PUSH1 0x20 ADD PUSH0 KECCAK256 PUSH0 SWAP1 SLOAD SWAP1 PUSH2 0x100 EXP SWAP1 DIV PUSH20 0xFFFFFFFFFFFFFFFFFFFFFFFFFFFFFFFFFFFFFFFF AND SWAP3 POP POP POP PUSH2 0x608 JUMP JUMPDEST PUSH0 SWAP3 POP POP POP JUMPDEST SWAP2 SWAP1 POP JUMP JUMPDEST PUSH0 PUSH1 0x1 PUSH0 PUSH2 0x61A DUP5 PUSH2 0x1AE3 JUMP JUMPDEST DUP2 MSTORE PUSH1 0x20 ADD SWAP1 DUP2 MSTORE PUSH1 0x20 ADD PUSH0 KECCAK256 SLOAD SWAP1 POP PUSH0 DUP2 SWAP1 POP PUSH0 PUSH20 0xFFFFFFFFFFFFFFFFFFFFFFFFFFFFFFFFFFFFFFFF AND DUP2 PUSH20 0xFFFFFFFFFFFFFFFFFFFFFFFFFFFFFFFFFFFFFFFF AND SUB PUSH2 0x69C JUMPI PUSH1 0x40 MLOAD PUSH32 0x8C379A000000000000000000000000000000000000000000000000000000000 DUP2 MSTORE PUSH1 0x4 ADD PUSH2 0x693 SWAP1 PUSH2 0x3723 JUMP JUMPDEST PUSH1 0x40 MLOAD DUP1 SWAP2 SUB SWAP1 REVERT JUMPDEST CALLER PUSH20 0xFFFFFFFFFFFFFFFFFFFFFFFFFFFFFFFFFFFFFFFF AND DUP2 PUSH20 0xFFFFFFFFFFFFFFFFFFFFFFFFFFFFFFFFFFFFFFFF AND EQ DUP1 PUSH2 0x757 JUMPI POP PUSH1 0x2 PUSH0 DUP3 PUSH20 0xFFFFFFFFFFFFFFFFFFFFFFFFFFFFFFFFFFFFFFFF AND PUSH20 0xFFFFFFFFFFFFFFFFFFFFFFFFFFFFFFFFFFFFFFFF AND DUP2 MSTORE PUSH1 0x20 ADD SWAP1 DUP2 MSTORE PUSH1 0x20 ADD PUSH0 KECCAK256 PUSH0 CALLER PUSH20 0xFFFFFFFFFFFFFFFFFFFFFFFFFFFFFFFFFFFFFFFF AND PUSH20 0xFFFFFFFFFFFFFFFFFFFFFFFFFFFFFFFFFFFFFFFF AND DUP2 MSTORE PUSH1 0x20 ADD SWAP1 DUP2 MSTORE PUSH1 0x20 ADD PUSH0 KECCAK256 PUSH0 SWAP1 SLOAD SWAP1 PUSH2 0x100 EXP SWAP1 DIV PUSH1 0xFF AND JUMPDEST PUSH2 0x796 JUMPI PUSH1 0x40 MLOAD PUSH32 0x8C379A000000000000000000000000000000000000000000000000000000000 DUP2 MSTORE PUSH1 0x4 ADD PUSH2 0x78D SWAP1 PUSH2 0x378B JUMP JUMPDEST PUSH1 0x40 MLOAD DUP1 SWAP2 SUB SWAP1 REVERT JUMPDEST PUSH2 0x7A1 DUP3 DUP6 DUP6 PUSH2 0x1AEC JUMP JUMPDEST POP POP POP POP JUMP JUMPDEST PUSH2 0x837 DUP7 DUP7 DUP7 DUP7 DUP1 DUP1 PUSH1 0x20 MUL PUSH1 0x20 ADD PUSH1 0x40 MLOAD SWAP1 DUP2 ADD PUSH1 0x40 MSTORE DUP1 SWAP4 SWAP3 SWAP2 SWAP1 DUP2 DUP2 MSTORE PUSH1 0x20 ADD DUP4 DUP4 PUSH1 0x20 MUL DUP1 DUP3 DUP5 CALLDATACOPY PUSH0 DUP2 DUP5 ADD MSTORE PUSH1 0x1F NOT PUSH1 0x1F DUP3 ADD AND SWAP1 POP DUP1 DUP4 ADD SWAP3 POP POP POP POP POP POP POP DUP6 DUP6 DUP1 DUP1 PUSH1 0x1F ADD PUSH1 0x20 DUP1 SWAP2 DIV MUL PUSH1 0x20 ADD PUSH1 0x40 MLOAD SWAP1 DUP2 ADD PUSH1 0x40 MSTORE DUP1 SWAP4 SWAP3 SWAP2 SWAP1 DUP2 DUP2 MSTORE PUSH1 0x20 ADD DUP4 DUP4 DUP1 DUP3 DUP5 CALLDATACOPY PUSH0 DUP2 DUP5 ADD MSTORE PUSH1 0x1F NOT PUSH1 0x1F DUP3 ADD AND SWAP1 POP DUP1 DUP4 ADD SWAP3 POP POP POP POP POP POP POP PUSH0 PUSH2 0x1BF2 JUMP JUMPDEST POP POP POP POP POP POP JUMP JUMPDEST PUSH2 0x84A DUP4 DUP4 DUP4 PUSH2 0x20EF JUMP JUMPDEST PUSH2 0x855 DUP4 DUP4 DUP4 PUSH2 0x23B6 JUMP JUMPDEST PUSH2 0x874 DUP3 PUSH20 0xFFFFFFFFFFFFFFFFFFFFFFFFFFFFFFFFFFFFFFFF AND PUSH2 0x24DD JUMP JUMPDEST DUP1 ISZERO PUSH2 0x88D JUMPI POP PUSH2 0x88C DUP3 PUSH4 0x5E8BF644 PUSH1 0xE0 SHL PUSH2 0x24FF JUMP JUMPDEST JUMPDEST ISZERO PUSH2 0x8ED JUMPI PUSH2 0x8AD CALLER DUP5 DUP5 DUP5 PUSH1 0x40 MLOAD DUP1 PUSH1 0x20 ADD PUSH1 0x40 MSTORE DUP1 PUSH0 DUP2 MSTORE POP PUSH2 0x25C0 JUMP JUMPDEST PUSH2 0x8EC JUMPI PUSH1 0x40 MLOAD PUSH32 0x8C379A000000000000000000000000000000000000000000000000000000000 DUP2 MSTORE PUSH1 0x4 ADD PUSH2 0x8E3 SWAP1 PUSH2 0x37F3 JUMP JUMPDEST PUSH1 0x40 MLOAD DUP1 SWAP2 SUB SWAP1 REVERT JUMPDEST JUMPDEST POP POP POP JUMP JUMPDEST PUSH2 0x983 DUP7 DUP7 DUP7 DUP7 DUP1 DUP1 PUSH1 0x20 MUL PUSH1 0x20 ADD PUSH1 0x40 MLOAD SWAP1 DUP2 ADD PUSH1 0x40 MSTORE DUP1 SWAP4 SWAP3 SWAP2 SWAP1 DUP2 DUP2 MSTORE PUSH1 0x20 ADD DUP4 DUP4 PUSH1 0x20 MUL DUP1 DUP3 DUP5 CALLDATACOPY PUSH0 DUP2 DUP5 ADD MSTORE PUSH1 0x1F NOT PUSH1 0x1F DUP3 ADD AND SWAP1 POP DUP1 DUP4 ADD SWAP3 POP POP POP POP POP POP POP DUP6 DUP6 DUP1 DUP1 PUSH1 0x1F ADD PUSH1 0x20 DUP1 SWAP2 DIV MUL PUSH1 0x20 ADD PUSH1 0x40 MLOAD SWAP1 DUP2 ADD PUSH1 0x40 MSTORE DUP1 SWAP4 SWAP3 SWAP2 SWAP1 DUP2 DUP2 MSTORE PUSH1 0x20 ADD DUP4 DUP4 DUP1 DUP3 DUP5 CALLDATACOPY PUSH0 DUP2 DUP5 ADD MSTORE PUSH1 0x1F NOT PUSH1 0x1F DUP3 ADD AND SWAP1 POP DUP1 DUP4 ADD SWAP3 POP POP POP POP POP POP POP PUSH1 0x1 PUSH2 0x1BF2 JUMP JUMPDEST POP POP POP POP POP POP JUMP JUMPDEST PUSH0 PUSH1 0x1 PUSH0 PUSH2 0x998 DUP5 PUSH2 0x1AE3 JUMP JUMPDEST DUP2 MSTORE PUSH1 0x20 ADD SWAP1 DUP2 MSTORE PUSH1 0x20 ADD PUSH0 KECCAK256 SLOAD SWAP1 POP PUSH0 PUSH20 0xFFFFFFFFFFFFFFFFFFFFFFFFFFFFFFFFFFFFFFFF AND DUP5 PUSH20 0xFFFFFFFFFFFFFFFFFFFFFFFFFFFFFFFFFFFFFFFF AND SUB PUSH2 0xA16 JUMPI PUSH1 0x40 MLOAD PUSH32 0x8C379A000000000000000000000000000000000000000000000000000000000 DUP2 MSTORE PUSH1 0x4 ADD PUSH2 0xA0D SWAP1 PUSH2 0x385B JUMP JUMPDEST PUSH1 0x40 MLOAD DUP1 SWAP2 SUB SWAP1 REVERT JUMPDEST DUP4 PUSH20 0xFFFFFFFFFFFFFFFFFFFFFFFFFFFFFFFFFFFFFFFF AND CALLER PUSH20 0xFFFFFFFFFFFFFFFFFFFFFFFFFFFFFFFFFFFFFFFF AND EQ DUP1 PUSH2 0xAD1 JUMPI POP PUSH1 0x2 PUSH0 DUP6 PUSH20 0xFFFFFFFFFFFFFFFFFFFFFFFFFFFFFFFFFFFFFFFF AND PUSH20 0xFFFFFFFFFFFFFFFFFFFFFFFFFFFFFFFFFFFFFFFF AND DUP2 MSTORE PUSH1 0x20 ADD SWAP1 DUP2 MSTORE PUSH1 0x20 ADD PUSH0 KECCAK256 PUSH0 CALLER PUSH20 0xFFFFFFFFFFFFFFFFFFFFFFFFFFFFFFFFFFFFFFFF AND PUSH20 0xFFFFFFFFFFFFFFFFFFFFFFFFFFFFFFFFFFFFFFFF AND DUP2 MSTORE PUSH1 0x20 ADD SWAP1 DUP2 MSTORE PUSH1 0x20 ADD PUSH0 KECCAK256 PUSH0 SWAP1 SLOAD SWAP1 PUSH2 0x100 EXP SWAP1 DIV PUSH1 0xFF AND JUMPDEST PUSH2 0xB10 JUMPI PUSH1 0x40 MLOAD PUSH32 0x8C379A000000000000000000000000000000000000000000000000000000000 DUP2 MSTORE PUSH1 0x4 ADD PUSH2 0xB07 SWAP1 PUSH2 0x378B JUMP JUMPDEST PUSH1 0x40 MLOAD DUP1 SWAP2 SUB SWAP1 REVERT JUMPDEST DUP4 PUSH20 0xFFFFFFFFFFFFFFFFFFFFFFFFFFFFFFFFFFFFFFFF AND DUP2 PUSH20 0xFFFFFFFFFFFFFFFFFFFFFFFFFFFFFFFFFFFFFFFF AND EQ PUSH2 0xB7E JUMPI PUSH1 0x40 MLOAD PUSH32 0x8C379A000000000000000000000000000000000000000000000000000000000 DUP2 MSTORE PUSH1 0x4 ADD PUSH2 0xB75 SWAP1 PUSH2 0x38C3 JUMP JUMPDEST PUSH1 0x40 MLOAD DUP1 SWAP2 SUB SWAP1 REVERT JUMPDEST PUSH2 0xB89 DUP2 DUP5 DUP5 PUSH2 0x1AEC JUMP JUMPDEST POP POP POP POP JUMP JUMPDEST PUSH2 0xB97 PUSH2 0x2E1D JUMP JUMPDEST PUSH0 JUMPDEST DUP4 DUP2 LT ISZERO PUSH2 0xC4A JUMPI PUSH0 PUSH1 0x1 DUP3 DUP6 SWAP1 SHR AND SWAP1 POP PUSH0 PUSH32 0xFFFFFFFFFFFFFFFFFFFFFFFFFFFFFFFFFFFFFFFFFFFFFFFFFFFFFFFFFFFFFFFF SWAP1 POP PUSH1 0x1 DUP3 SUB PUSH2 0xBDC JUMPI PUSH1 0x1 SWAP1 POP JUMPDEST DUP1 DUP5 DUP5 PUSH1 0x19 DUP2 LT PUSH2 0xBF0 JUMPI PUSH2 0xBEF PUSH2 0x38E1 JUMP JUMPDEST JUMPDEST PUSH1 0x20 MUL ADD DUP2 DUP2 MSTORE POP POP DUP1 PUSH1 0x6 PUSH0 PUSH1 0x1 DUP7 PUSH2 0xC0A SWAP2 SWAP1 PUSH2 0x393B JUMP JUMPDEST DUP2 MSTORE PUSH1 0x20 ADD SWAP1 DUP2 MSTORE PUSH1 0x20 ADD PUSH0 KECCAK256 PUSH0 DUP2 SLOAD DUP2 LT PUSH2 0xC29 JUMPI PUSH2 0xC28 PUSH2 0x38E1 JUMP JUMPDEST JUMPDEST SWAP1 PUSH0 MSTORE PUSH1 0x20 PUSH0 KECCAK256 ADD DUP2 SWAP1 SSTORE POP POP POP DUP1 DUP1 PUSH2 0xC42 SWAP1 PUSH2 0x396E JUMP JUMPDEST SWAP2 POP POP PUSH2 0xB99 JUMP JUMPDEST POP POP POP POP JUMP JUMPDEST PUSH2 0xC6A DUP4 DUP4 DUP4 PUSH1 0x40 MLOAD DUP1 PUSH1 0x20 ADD PUSH1 0x40 MSTORE DUP1 PUSH0 DUP2 MSTORE POP PUSH2 0x1529 JUMP JUMPDEST POP POP POP JUMP JUMPDEST PUSH2 0xC82 CALLER PUSH2 0xC7C DUP4 PUSH2 0x2697 JUMP JUMPDEST DUP4 PUSH2 0x26E6 JUMP JUMPDEST POP JUMP JUMPDEST PUSH0 PUSH2 0xC8F DUP3 PUSH2 0x2697 JUMP JUMPDEST SWAP1 POP PUSH0 PUSH20 0xFFFFFFFFFFFFFFFFFFFFFFFFFFFFFFFFFFFFFFFF AND DUP2 PUSH20 0xFFFFFFFFFFFFFFFFFFFFFFFFFFFFFFFFFFFFFFFF AND SUB PUSH2 0xCFF JUMPI PUSH1 0x40 MLOAD PUSH32 0x8C379A000000000000000000000000000000000000000000000000000000000 DUP2 MSTORE PUSH1 0x4 ADD PUSH2 0xCF6 SWAP1 PUSH2 0x39FF JUMP JUMPDEST PUSH1 0x40 MLOAD DUP1 SWAP2 SUB SWAP1 REVERT JUMPDEST SWAP2 SWAP1 POP JUMP JUMPDEST PUSH0 DUP1 PUSH20 0xFFFFFFFFFFFFFFFFFFFFFFFFFFFFFFFFFFFFFFFF AND DUP3 PUSH20 0xFFFFFFFFFFFFFFFFFFFFFFFFFFFFFFFFFFFFFFFF AND SUB PUSH2 0xD73 JUMPI PUSH1 0x40 MLOAD PUSH32 0x8C379A000000000000000000000000000000000000000000000000000000000 DUP2 MSTORE PUSH1 0x4 ADD PUSH2 0xD6A SWAP1 PUSH2 0x3A67 JUMP JUMPDEST PUSH1 0x40 MLOAD DUP1 SWAP2 SUB SWAP1 REVERT JUMPDEST PUSH0 DUP1 DUP4 PUSH20 0xFFFFFFFFFFFFFFFFFFFFFFFFFFFFFFFFFFFFFFFF AND PUSH20 0xFFFFFFFFFFFFFFFFFFFFFFFFFFFFFFFFFFFFFFFF AND DUP2 MSTORE PUSH1 0x20 ADD SWAP1 DUP2 MSTORE PUSH1 0x20 ADD PUSH0 KECCAK256 SLOAD SWAP1 POP SWAP2 SWAP1 POP JUMP JUMPDEST PUSH0 PUSH20 0xFFFFFFFFFFFFFFFFFFFFFFFFFFFFFFFFFFFFFFFF AND DUP3 PUSH20 0xFFFFFFFFFFFFFFFFFFFFFFFFFFFFFFFFFFFFFFFF AND SUB PUSH2 0xE25 JUMPI PUSH1 0x40 MLOAD PUSH32 0x8C379A000000000000000000000000000000000000000000000000000000000 DUP2 MSTORE PUSH1 0x4 ADD PUSH2 0xE1C SWAP1 PUSH2 0x3ACF JUMP JUMPDEST PUSH1 0x40 MLOAD DUP1 SWAP2 SUB SWAP1 REVERT JUMPDEST PUSH0 DUP1 PUSH2 0xE30 DUP4 PUSH2 0x1A63 JUMP JUMPDEST SWAP2 POP SWAP2 POP DUP4 PUSH20 0xFFFFFFFFFFFFFFFFFFFFFFFFFFFFFFFFFFFFFFFF AND CALLER PUSH20 0xFFFFFFFFFFFFFFFFFFFFFFFFFFFFFFFFFFFFFFFF AND EQ DUP1 PUSH2 0xED2 JUMPI POP DUP1 DUP1 ISZERO PUSH2 0xED1 JUMPI POP CALLER PUSH20 0xFFFFFFFFFFFFFFFFFFFFFFFFFFFFFFFFFFFFFFFF AND PUSH1 0x3 PUSH0 DUP6 DUP2 MSTORE PUSH1 0x20 ADD SWAP1 DUP2 MSTORE PUSH1 0x20 ADD PUSH0 KECCAK256 PUSH0 SWAP1 SLOAD SWAP1 PUSH2 0x100 EXP SWAP1 DIV PUSH20 0xFFFFFFFFFFFFFFFFFFFFFFFFFFFFFFFFFFFFFFFF AND PUSH20 0xFFFFFFFFFFFFFFFFFFFFFFFFFFFFFFFFFFFFFFFF AND EQ JUMPDEST JUMPDEST DUP1 PUSH2 0xF5E JUMPI POP PUSH1 0x2 PUSH0 DUP6 PUSH20 0xFFFFFFFFFFFFFFFFFFFFFFFFFFFFFFFFFFFFFFFF AND PUSH20 0xFFFFFFFFFFFFFFFFFFFFFFFFFFFFFFFFFFFFFFFF AND DUP2 MSTORE PUSH1 0x20 ADD SWAP1 DUP2 MSTORE PUSH1 0x20 ADD PUSH0 KECCAK256 PUSH0 CALLER PUSH20 0xFFFFFFFFFFFFFFFFFFFFFFFFFFFFFFFFFFFFFFFF AND PUSH20 0xFFFFFFFFFFFFFFFFFFFFFFFFFFFFFFFFFFFFFFFF AND DUP2 MSTORE PUSH1 0x20 ADD SWAP1 DUP2 MSTORE PUSH1 0x20 ADD PUSH0 KECCAK256 PUSH0 SWAP1 SLOAD SWAP1 PUSH2 0x100 EXP SWAP1 DIV PUSH1 0xFF AND JUMPDEST PUSH2 0xF9D JUMPI PUSH1 0x40 MLOAD PUSH32 0x8C379A000000000000000000000000000000000000000000000000000000000 DUP2 MSTORE PUSH1 0x4 ADD PUSH2 0xF94 SWAP1 PUSH2 0x3B37 JUMP JUMPDEST PUSH1 0x40 MLOAD DUP1 SWAP2 SUB SWAP1 REVERT JUMPDEST PUSH2 0xFA8 DUP5 DUP4 DUP6 PUSH2 0x26E6 JUMP JUMPDEST POP POP POP POP JUMP JUMPDEST PUSH2 0xFB6 PUSH2 0x2E1D JUMP JUMPDEST PUSH2 0xFBE PUSH2 0x2E1D JUMP JUMPDEST PUSH0 JUMPDEST DUP6 DUP2 LT ISZERO PUSH2 0x10A7 JUMPI PUSH0 PUSH1 0x1 DUP3 DUP8 SWAP1 SHR AND SWAP1 POP PUSH0 PUSH32 0xFFFFFFFFFFFFFFFFFFFFFFFFFFFFFFFFFFFFFFFFFFFFFFFFFFFFFFFFFFFFFFFF SWAP1 POP PUSH1 0x1 DUP3 SUB PUSH2 0x1003 JUMPI PUSH1 0x1 SWAP1 POP JUMPDEST DUP1 DUP6 DUP5 PUSH1 0x19 DUP2 LT PUSH2 0x1017 JUMPI PUSH2 0x1016 PUSH2 0x38E1 JUMP JUMPDEST JUMPDEST PUSH1 0x20 MUL ADD DUP2 DUP2 MSTORE POP POP PUSH1 0x1 DUP4 DUP8 SWAP1 SHR AND SWAP2 POP PUSH1 0x1 DUP3 SUB PUSH2 0x1054 JUMPI PUSH1 0x1 DUP5 DUP5 PUSH1 0x19 DUP2 LT PUSH2 0x1046 JUMPI PUSH2 0x1045 PUSH2 0x38E1 JUMP JUMPDEST JUMPDEST PUSH1 0x20 MUL ADD DUP2 DUP2 MSTORE POP POP PUSH2 0x1092 JUMP JUMPDEST PUSH32 0xFFFFFFFFFFFFFFFFFFFFFFFFFFFFFFFFFFFFFFFFFFFFFFFFFFFFFFFFFFFFFFFF DUP5 DUP5 PUSH1 0x19 DUP2 LT PUSH2 0x1088 JUMPI PUSH2 0x1087 PUSH2 0x38E1 JUMP JUMPDEST JUMPDEST PUSH1 0x20 MUL ADD DUP2 DUP2 MSTORE POP POP JUMPDEST POP POP DUP1 DUP1 PUSH2 0x109F SWAP1 PUSH2 0x396E JUMP JUMPDEST SWAP2 POP POP PUSH2 0xFC0 JUMP JUMPDEST POP PUSH0 PUSH1 0xA SWAP1 POP PUSH0 DUP1 JUMPDEST PUSH1 0x2 DUP2 LT ISZERO PUSH2 0x1354 JUMPI PUSH0 JUMPDEST DUP9 DUP2 LT ISZERO PUSH2 0x1340 JUMPI PUSH0 SWAP3 POP PUSH0 PUSH1 0x1 DUP3 PUSH2 0x10D4 SWAP2 SWAP1 PUSH2 0x393B JUMP JUMPDEST SWAP1 POP JUMPDEST DUP10 DUP2 LT ISZERO PUSH2 0x11EE JUMPI DUP1 DUP3 SUB ISZERO PUSH2 0x11DB JUMPI PUSH1 0x2 DUP7 DUP3 PUSH1 0x19 DUP2 LT PUSH2 0x10FC JUMPI PUSH2 0x10FB PUSH2 0x38E1 JUMP JUMPDEST JUMPDEST PUSH1 0x20 MUL ADD MLOAD DUP8 DUP5 PUSH1 0x19 DUP2 LT PUSH2 0x1114 JUMPI PUSH2 0x1113 PUSH2 0x38E1 JUMP JUMPDEST JUMPDEST PUSH1 0x20 MUL ADD MLOAD PUSH2 0x1123 SWAP2 SWAP1 PUSH2 0x3B5E JUMP JUMPDEST DUP9 DUP4 PUSH1 0x19 DUP2 LT PUSH2 0x1136 JUMPI PUSH2 0x1135 PUSH2 0x38E1 JUMP JUMPDEST JUMPDEST PUSH1 0x20 MUL ADD MLOAD DUP10 DUP6 PUSH1 0x19 DUP2 LT PUSH2 0x114E JUMPI PUSH2 0x114D PUSH2 0x38E1 JUMP JUMPDEST JUMPDEST PUSH1 0x20 MUL ADD MLOAD PUSH2 0x115D SWAP2 SWAP1 PUSH2 0x3B5E JUMP JUMPDEST PUSH2 0x1167 SWAP2 SWAP1 PUSH2 0x3BD4 JUMP JUMPDEST PUSH2 0x1171 SWAP2 SWAP1 PUSH2 0x3C42 JUMP JUMPDEST PUSH1 0x7 PUSH0 DUP5 DUP2 MSTORE PUSH1 0x20 ADD SWAP1 DUP2 MSTORE PUSH1 0x20 ADD PUSH0 KECCAK256 PUSH0 DUP4 DUP2 MSTORE PUSH1 0x20 ADD SWAP1 DUP2 MSTORE PUSH1 0x20 ADD PUSH0 KECCAK256 DUP2 SWAP1 SSTORE POP PUSH1 0x7 PUSH0 DUP4 DUP2 MSTORE PUSH1 0x20 ADD SWAP1 DUP2 MSTORE PUSH1 0x20 ADD PUSH0 KECCAK256 PUSH0 DUP3 DUP2 MSTORE PUSH1 0x20 ADD SWAP1 DUP2 MSTORE PUSH1 0x20 ADD PUSH0 KECCAK256 SLOAD PUSH1 0x7 PUSH0 DUP4 DUP2 MSTORE PUSH1 0x20 ADD SWAP1 DUP2 MSTORE PUSH1 0x20 ADD PUSH0 KECCAK256 PUSH0 DUP5 DUP2 MSTORE PUSH1 0x20 ADD SWAP1 DUP2 MSTORE PUSH1 0x20 ADD PUSH0 KECCAK256 DUP2 SWAP1 SSTORE POP JUMPDEST DUP1 DUP1 PUSH2 0x11E6 SWAP1 PUSH2 0x396E JUMP JUMPDEST SWAP2 POP POP PUSH2 0x10D7 JUMP JUMPDEST POP PUSH0 JUMPDEST DUP10 DUP2 LT ISZERO PUSH2 0x1285 JUMPI DUP1 DUP3 SUB ISZERO PUSH2 0x1272 JUMPI PUSH1 0x6 PUSH0 PUSH1 0x1 DUP5 PUSH2 0x1211 SWAP2 SWAP1 PUSH2 0x393B JUMP JUMPDEST DUP2 MSTORE PUSH1 0x20 ADD SWAP1 DUP2 MSTORE PUSH1 0x20 ADD PUSH0 KECCAK256 PUSH0 DUP2 SLOAD DUP2 LT PUSH2 0x1230 JUMPI PUSH2 0x122F PUSH2 0x38E1 JUMP JUMPDEST JUMPDEST SWAP1 PUSH0 MSTORE PUSH1 0x20 PUSH0 KECCAK256 ADD SLOAD PUSH1 0x7 PUSH0 DUP5 DUP2 MSTORE PUSH1 0x20 ADD SWAP1 DUP2 MSTORE PUSH1 0x20 ADD PUSH0 KECCAK256 PUSH0 DUP4 DUP2 MSTORE PUSH1 0x20 ADD SWAP1 DUP2 MSTORE PUSH1 0x20 ADD PUSH0 KECCAK256 SLOAD PUSH2 0x1264 SWAP2 SWAP1 PUSH2 0x3B5E JUMP JUMPDEST DUP5 PUSH2 0x126F SWAP2 SWAP1 PUSH2 0x3BD4 JUMP JUMPDEST SWAP4 POP JUMPDEST DUP1 DUP1 PUSH2 0x127D SWAP1 PUSH2 0x396E JUMP JUMPDEST SWAP2 POP POP PUSH2 0x11F1 JUMP JUMPDEST POP PUSH0 DUP4 SLT ISZERO PUSH2 0x132D JUMPI PUSH1 0x6 PUSH0 PUSH1 0x1 DUP4 PUSH2 0x129E SWAP2 SWAP1 PUSH2 0x393B JUMP JUMPDEST DUP2 MSTORE PUSH1 0x20 ADD SWAP1 DUP2 MSTORE PUSH1 0x20 ADD PUSH0 KECCAK256 PUSH0 DUP2 SLOAD DUP2 LT PUSH2 0x12BD JUMPI PUSH2 0x12BC PUSH2 0x38E1 JUMP JUMPDEST JUMPDEST SWAP1 PUSH0 MSTORE PUSH1 0x20 PUSH0 KECCAK256 ADD SLOAD PUSH32 0xFFFFFFFFFFFFFFFFFFFFFFFFFFFFFFFFFFFFFFFFFFFFFFFFFFFFFFFFFFFFFFFF PUSH2 0x12F1 SWAP2 SWAP1 PUSH2 0x3B5E JUMP JUMPDEST PUSH1 0x6 PUSH0 PUSH1 0x1 DUP5 PUSH2 0x1301 SWAP2 SWAP1 PUSH2 0x393B JUMP JUMPDEST DUP2 MSTORE PUSH1 0x20 ADD SWAP1 DUP2 MSTORE PUSH1 0x20 ADD PUSH0 KECCAK256 PUSH0 DUP2 SLOAD DUP2 LT PUSH2 0x1320 JUMPI PUSH2 0x131F PUSH2 0x38E1 JUMP JUMPDEST JUMPDEST SWAP1 PUSH0 MSTORE PUSH1 0x20 PUSH0 KECCAK256 ADD DUP2 SWAP1 SSTORE POP JUMPDEST DUP1 DUP1 PUSH2 0x1338 SWAP1 PUSH2 0x396E JUMP JUMPDEST SWAP2 POP POP PUSH2 0x10BB JUMP JUMPDEST POP DUP1 DUP1 PUSH2 0x134C SWAP1 PUSH2 0x396E JUMP JUMPDEST SWAP2 POP POP PUSH2 0x10B0 JUMP JUMPDEST POP POP POP POP POP POP POP POP JUMP JUMPDEST PUSH1 0x60 PUSH1 0x40 MLOAD DUP1 PUSH1 0x40 ADD PUSH1 0x40 MSTORE DUP1 PUSH1 0x3 DUP2 MSTORE PUSH1 0x20 ADD PUSH32 0x48666E0000000000000000000000000000000000000000000000000000000000 DUP2 MSTORE POP SWAP1 POP SWAP1 JUMP JUMPDEST PUSH0 PUSH1 0x4 SLOAD SWAP1 POP PUSH0 JUMPDEST DUP3 DUP2 LT ISZERO PUSH2 0x13D6 JUMPI DUP2 DUP1 PUSH2 0x13B6 SWAP1 PUSH2 0x396E JUMP JUMPDEST SWAP3 POP POP PUSH2 0x13C3 CALLER DUP4 PUSH2 0x287E JUMP JUMPDEST DUP1 DUP1 PUSH2 0x13CE SWAP1 PUSH2 0x396E JUMP JUMPDEST SWAP2 POP POP PUSH2 0x13A3 JUMP JUMPDEST POP PUSH0 PUSH32 0xFFFFFFFFFFFFFFFFFFFFFFFFFFFFFFFFFFFFFFFFFFFFFFFFFFFFFFFFFFFFFFFF SWAP1 POP PUSH0 PUSH1 0x2 TIMESTAMP PUSH2 0x1409 SWAP2 SWAP1 PUSH2 0x3CAA JUMP JUMPDEST SUB PUSH2 0x1413 JUMPI PUSH1 0x1 SWAP1 POP JUMPDEST PUSH1 0x6 PUSH0 DUP4 DUP2 MSTORE PUSH1 0x20 ADD SWAP1 DUP2 MSTORE PUSH1 0x20 ADD PUSH0 KECCAK256 DUP2 SWAP1 DUP1 PUSH1 0x1 DUP2 SLOAD ADD DUP1 DUP3 SSTORE DUP1 SWAP2 POP POP PUSH1 0x1 SWAP1 SUB SWAP1 PUSH0 MSTORE PUSH1 0x20 PUSH0 KECCAK256 ADD PUSH0 SWAP1 SWAP2 SWAP1 SWAP2 SWAP1 SWAP2 POP SSTORE DUP2 PUSH1 0x4 DUP2 SWAP1 SSTORE POP POP POP POP JUMP JUMPDEST PUSH2 0x145F CALLER DUP4 DUP4 PUSH2 0x29BA JUMP JUMPDEST POP POP JUMP JUMPDEST PUSH0 PUSH2 0x146C PUSH2 0x2AB3 JUMP JUMPDEST SWAP1 POP PUSH0 PUSH20 0xFFFFFFFFFFFFFFFFFFFFFFFFFFFFFFFFFFFFFFFF AND DUP2 PUSH20 0xFFFFFFFFFFFFFFFFFFFFFFFFFFFFFFFFFFFFFFFF AND SUB PUSH2 0x14DD JUMPI PUSH20 0xFFFFFFFFFFFFFFFFFFFFFFFFFFFFFFFFFFFFFFFF PUSH32 0xB53127684A568B3173AE13B9F8A6016E243E63B6E8EE1178D6A717850B5D6103 SSTORE PUSH2 0x1515 JUMP JUMPDEST DUP1 PUSH20 0xFFFFFFFFFFFFFFFFFFFFFFFFFFFFFFFFFFFFFFFF AND CALLER PUSH20 0xFFFFFFFFFFFFFFFFFFFFFFFFFFFFFFFFFFFFFFFF AND EQ PUSH2 0x1514 JUMPI PUSH0 DUP1 REVERT JUMPDEST JUMPDEST DUP2 PUSH1 0x5 SWAP1 DUP2 PUSH2 0x1524 SWAP2 SWAP1 PUSH2 0x3ED4 JUMP JUMPDEST POP POP POP JUMP JUMPDEST PUSH2 0x1534 DUP5 DUP5 DUP5 PUSH2 0x20EF JUMP JUMPDEST PUSH2 0x153F DUP5 DUP5 DUP5 PUSH2 0x23B6 JUMP JUMPDEST PUSH2 0x155E DUP4 PUSH20 0xFFFFFFFFFFFFFFFFFFFFFFFFFFFFFFFFFFFFFFFF AND PUSH2 0x24DD JUMP JUMPDEST ISZERO PUSH2 0x15B0 JUMPI PUSH2 0x1570 CALLER DUP6 DUP6 DUP6 DUP6 PUSH2 0x25C0 JUMP JUMPDEST PUSH2 0x15AF JUMPI PUSH1 0x40 MLOAD PUSH32 0x8C379A000000000000000000000000000000000000000000000000000000000 DUP2 MSTORE PUSH1 0x4 ADD PUSH2 0x15A6 SWAP1 PUSH2 0x37F3 JUMP JUMPDEST PUSH1 0x40 MLOAD DUP1 SWAP2 SUB SWAP1 REVERT JUMPDEST JUMPDEST POP POP POP POP JUMP JUMPDEST PUSH1 0x60 PUSH0 PUSH2 0x15C2 DUP4 PUSH2 0x2ADB JUMP JUMPDEST SWAP1 POP PUSH0 PUSH1 0x1 PUSH8 0xFFFFFFFFFFFFFFFF DUP2 GT ISZERO PUSH2 0x15E0 JUMPI PUSH2 0x15DF PUSH2 0x33C2 JUMP JUMPDEST JUMPDEST PUSH1 0x40 MLOAD SWAP1 DUP1 DUP3 MSTORE DUP1 PUSH1 0x1F ADD PUSH1 0x1F NOT AND PUSH1 0x20 ADD DUP3 ADD PUSH1 0x40 MSTORE DUP1 ISZERO PUSH2 0x1612 JUMPI DUP2 PUSH1 0x20 ADD PUSH1 0x1 DUP3 MUL DUP1 CALLDATASIZE DUP4 CALLDATACOPY DUP1 DUP3 ADD SWAP2 POP POP SWAP1 POP JUMPDEST POP SWAP1 POP PUSH1 0x2D PUSH1 0xF8 SHL DUP2 PUSH0 DUP2 MLOAD DUP2 LT PUSH2 0x162D JUMPI PUSH2 0x162C PUSH2 0x38E1 JUMP JUMPDEST JUMPDEST PUSH1 0x20 ADD ADD SWAP1 PUSH31 0xFFFFFFFFFFFFFFFFFFFFFFFFFFFFFFFFFFFFFFFFFFFFFFFFFFFFFFFFFFFFFF NOT AND SWAP1 DUP2 PUSH0 BYTE SWAP1 MSTORE8 POP PUSH0 PUSH1 0x40 MLOAD DUP1 PUSH1 0x20 ADD PUSH1 0x40 MSTORE DUP1 PUSH0 DUP2 MSTORE POP SWAP1 POP PUSH0 PUSH1 0x6 PUSH0 DUP8 DUP2 MSTORE PUSH1 0x20 ADD SWAP1 DUP2 MSTORE PUSH1 0x20 ADD PUSH0 KECCAK256 PUSH0 DUP2 SLOAD DUP2 LT PUSH2 0x1691 JUMPI PUSH2 0x1690 PUSH2 0x38E1 JUMP JUMPDEST JUMPDEST SWAP1 PUSH0 MSTORE PUSH1 0x20 PUSH0 KECCAK256 ADD SLOAD SLT ISZERO PUSH2 0x16A4 JUMPI DUP2 SWAP1 POP JUMPDEST DUP3 DUP4 DUP3 PUSH1 0x40 MLOAD PUSH1 0x20 ADD PUSH2 0x16B9 SWAP4 SWAP3 SWAP2 SWAP1 PUSH2 0x4105 JUMP JUMPDEST PUSH1 0x40 MLOAD PUSH1 0x20 DUP2 DUP4 SUB SUB DUP2 MSTORE SWAP1 PUSH1 0x40 MSTORE SWAP4 POP POP POP POP SWAP2 SWAP1 POP JUMP JUMPDEST PUSH0 PUSH1 0x2 PUSH0 DUP5 PUSH20 0xFFFFFFFFFFFFFFFFFFFFFFFFFFFFFFFFFFFFFFFF AND PUSH20 0xFFFFFFFFFFFFFFFFFFFFFFFFFFFFFFFFFFFFFFFF AND DUP2 MSTORE PUSH1 0x20 ADD SWAP1 DUP2 MSTORE PUSH1 0x20 ADD PUSH0 KECCAK256 PUSH0 DUP4 PUSH20 0xFFFFFFFFFFFFFFFFFFFFFFFFFFFFFFFFFFFFFFFF AND PUSH20 0xFFFFFFFFFFFFFFFFFFFFFFFFFFFFFFFFFFFFFFFF AND DUP2 MSTORE PUSH1 0x20 ADD SWAP1 DUP2 MSTORE PUSH1 0x20 ADD PUSH0 KECCAK256 PUSH0 SWAP1 SLOAD SWAP1 PUSH2 0x100 EXP SWAP1 DIV PUSH1 0xFF AND SWAP1 POP SWAP3 SWAP2 POP POP JUMP JUMPDEST PUSH2 0x1768 PUSH2 0x2E1D JUMP JUMPDEST PUSH0 DUP1 JUMPDEST DUP5 DUP2 LT ISZERO PUSH2 0x17E0 JUMPI PUSH0 PUSH1 0x1 DUP3 DUP7 SWAP1 SHR AND SWAP1 POP PUSH0 PUSH32 0xFFFFFFFFFFFFFFFFFFFFFFFFFFFFFFFFFFFFFFFFFFFFFFFFFFFFFFFFFFFFFFFF SWAP1 POP PUSH1 0x1 DUP3 SUB PUSH2 0x17AE JUMPI PUSH1 0x1 SWAP1 POP JUMPDEST DUP1 DUP6 DUP5 PUSH1 0x19 DUP2 LT PUSH2 0x17C2 JUMPI PUSH2 0x17C1 PUSH2 0x38E1 JUMP JUMPDEST JUMPDEST PUSH1 0x20 MUL ADD DUP2 DUP2 MSTORE POP POP POP POP DUP1 DUP1 PUSH2 0x17D8 SWAP1 PUSH2 0x396E JUMP JUMPDEST SWAP2 POP POP PUSH2 0x176B JUMP JUMPDEST POP PUSH0 JUMPDEST PUSH1 0x1 DUP2 LT ISZERO PUSH2 0x18FF JUMPI PUSH0 JUMPDEST DUP6 DUP2 LT ISZERO PUSH2 0x18EB JUMPI PUSH0 SWAP3 POP PUSH0 JUMPDEST DUP7 DUP2 LT ISZERO PUSH2 0x186F JUMPI DUP1 DUP3 SUB ISZERO PUSH2 0x185C JUMPI DUP5 DUP3 PUSH1 0x19 DUP2 LT PUSH2 0x181E JUMPI PUSH2 0x181D PUSH2 0x38E1 JUMP JUMPDEST JUMPDEST PUSH1 0x20 MUL ADD MLOAD PUSH1 0x7 PUSH0 DUP5 DUP2 MSTORE PUSH1 0x20 ADD SWAP1 DUP2 MSTORE PUSH1 0x20 ADD PUSH0 KECCAK256 PUSH0 DUP4 DUP2 MSTORE PUSH1 0x20 ADD SWAP1 DUP2 MSTORE PUSH1 0x20 ADD PUSH0 KECCAK256 SLOAD PUSH2 0x184E SWAP2 SWAP1 PUSH2 0x3B5E JUMP JUMPDEST DUP5 PUSH2 0x1859 SWAP2 SWAP1 PUSH2 0x3BD4 JUMP JUMPDEST SWAP4 POP JUMPDEST DUP1 DUP1 PUSH2 0x1867 SWAP1 PUSH2 0x396E JUMP JUMPDEST SWAP2 POP POP PUSH2 0x17FB JUMP JUMPDEST POP PUSH0 DUP4 SLT ISZERO PUSH2 0x18D8 JUMPI DUP4 DUP2 PUSH1 0x19 DUP2 LT PUSH2 0x188B JUMPI PUSH2 0x188A PUSH2 0x38E1 JUMP JUMPDEST JUMPDEST PUSH1 0x20 MUL ADD MLOAD PUSH32 0xFFFFFFFFFFFFFFFFFFFFFFFFFFFFFFFFFFFFFFFFFFFFFFFFFFFFFFFFFFFFFFFF PUSH2 0x18BB SWAP2 SWAP1 PUSH2 0x3B5E JUMP JUMPDEST DUP5 DUP3 PUSH1 0x19 DUP2 LT PUSH2 0x18CE JUMPI PUSH2 0x18CD PUSH2 0x38E1 JUMP JUMPDEST JUMPDEST PUSH1 0x20 MUL ADD DUP2 DUP2 MSTORE POP POP JUMPDEST DUP1 DUP1 PUSH2 0x18E3 SWAP1 PUSH2 0x396E JUMP JUMPDEST SWAP2 POP POP PUSH2 0x17EE JUMP JUMPDEST POP DUP1 DUP1 PUSH2 0x18F7 SWAP1 PUSH2 0x396E JUMP JUMPDEST SWAP2 POP POP PUSH2 0x17E3 JUMP JUMPDEST POP PUSH0 JUMPDEST DUP5 DUP2 LT ISZERO PUSH2 0x1970 JUMPI DUP3 DUP2 PUSH1 0x19 DUP2 LT PUSH2 0x191D JUMPI PUSH2 0x191C PUSH2 0x38E1 JUMP JUMPDEST JUMPDEST PUSH1 0x20 MUL ADD MLOAD PUSH1 0x6 PUSH0 PUSH1 0x1 DUP5 PUSH2 0x1932 SWAP2 SWAP1 PUSH2 0x393B JUMP JUMPDEST DUP2 MSTORE PUSH1 0x20 ADD SWAP1 DUP2 MSTORE PUSH1 0x20 ADD PUSH0 KECCAK256 PUSH0 DUP2 SLOAD DUP2 LT PUSH2 0x1951 JUMPI PUSH2 0x1950 PUSH2 0x38E1 JUMP JUMPDEST JUMPDEST SWAP1 PUSH0 MSTORE PUSH1 0x20 PUSH0 KECCAK256 ADD DUP2 SWAP1 SSTORE POP DUP1 DUP1 PUSH2 0x1968 SWAP1 PUSH2 0x396E JUMP JUMPDEST SWAP2 POP POP PUSH2 0x1902 JUMP JUMPDEST POP POP POP POP POP JUMP JUMPDEST PUSH0 PUSH20 0xFFFFFFFFFFFFFFFFFFFFFFFFFFFFFFFFFFFFFFFF AND DUP4 PUSH20 0xFFFFFFFFFFFFFFFFFFFFFFFFFFFFFFFFFFFFFFFF AND SUB PUSH2 0x19E5 JUMPI PUSH1 0x40 MLOAD PUSH32 0x8C379A000000000000000000000000000000000000000000000000000000000 DUP2 MSTORE PUSH1 0x4 ADD PUSH2 0x19DC SWAP1 PUSH2 0x41AB JUMP JUMPDEST PUSH1 0x40 MLOAD DUP1 SWAP2 SUB SWAP1 REVERT JUMPDEST DUP3 PUSH20 0xFFFFFFFFFFFFFFFFFFFFFFFFFFFFFFFFFFFFFFFF AND CALLER PUSH20 0xFFFFFFFFFFFFFFFFFFFFFFFFFFFFFFFFFFFFFFFF AND EQ PUSH2 0x1A53 JUMPI PUSH1 0x40 MLOAD PUSH32 0x8C379A000000000000000000000000000000000000000000000000000000000 DUP2 MSTORE PUSH1 0x4 ADD PUSH2 0x1A4A SWAP1 PUSH2 0x4213 JUMP JUMPDEST PUSH1 0x40 MLOAD DUP1 SWAP2 SUB SWAP1 REVERT JUMPDEST PUSH2 0x1A5E DUP4 DUP4 DUP4 PUSH2 0x29BA JUMP JUMPDEST POP POP POP JUMP JUMPDEST PUSH0 DUP1 PUSH0 PUSH1 0x1 PUSH0 PUSH2 0x1A72 DUP7 PUSH2 0x1AE3 JUMP JUMPDEST DUP2 MSTORE PUSH1 0x20 ADD SWAP1 DUP2 MSTORE PUSH1 0x20 ADD PUSH0 KECCAK256 SLOAD SWAP1 POP PUSH21 0x10000000000000000000000000000000000000000 DUP1 DUP3 AND SUB PUSH2 0x1AA8 JUMPI PUSH0 SWAP3 POP PUSH2 0x1AAC JUMP JUMPDEST DUP1 SWAP3 POP JUMPDEST PUSH1 0x1 PUSH32 0x8000000000000000000000000000000000000000000000000000000000000000 DUP3 PUSH2 0x1ADA SWAP2 SWAP1 PUSH2 0x4231 JUMP JUMPDEST EQ SWAP2 POP POP SWAP2 POP SWAP2 JUMP JUMPDEST PUSH0 DUP2 SWAP1 POP SWAP2 SWAP1 POP JUMP JUMPDEST PUSH0 DUP4 SWAP1 POP PUSH0 PUSH20 0xFFFFFFFFFFFFFFFFFFFFFFFFFFFFFFFFFFFFFFFF AND DUP4 PUSH20 0xFFFFFFFFFFFFFFFFFFFFFFFFFFFFFFFFFFFFFFFF AND SUB PUSH2 0x1B34 JUMPI PUSH2 0x1B2F DUP3 DUP6 DUP4 PUSH0 PUSH2 0x2C34 JUMP JUMPDEST PUSH2 0x1B91 JUMP JUMPDEST PUSH2 0x1B41 DUP3 DUP6 DUP4 PUSH1 0x1 PUSH2 0x2C34 JUMP JUMPDEST DUP3 PUSH1 0x3 PUSH0 DUP5 DUP2 MSTORE PUSH1 0x20 ADD SWAP1 DUP2 MSTORE PUSH1 0x20 ADD PUSH0 KECCAK256 PUSH0 PUSH2 0x100 EXP DUP2 SLOAD DUP2 PUSH20 0xFFFFFFFFFFFFFFFFFFFFFFFFFFFFFFFFFFFFFFFF MUL NOT AND SWAP1 DUP4 PUSH20 0xFFFFFFFFFFFFFFFFFFFFFFFFFFFFFFFFFFFFFFFF AND MUL OR SWAP1 SSTORE POP JUMPDEST DUP2 DUP4 PUSH20 0xFFFFFFFFFFFFFFFFFFFFFFFFFFFFFFFFFFFFFFFF AND DUP3 PUSH20 0xFFFFFFFFFFFFFFFFFFFFFFFFFFFFFFFFFFFFFFFF AND PUSH32 0x8C5BE1E5EBEC7D5BD14F71427D1E84F3DD0314C0F7B2291E5B200AC8C7C3B925 PUSH1 0x40 MLOAD PUSH1 0x40 MLOAD DUP1 SWAP2 SUB SWAP1 LOG4 POP POP POP POP JUMP JUMPDEST PUSH0 DUP6 PUSH20 0xFFFFFFFFFFFFFFFFFFFFFFFFFFFFFFFFFFFFFFFF AND CALLER PUSH20 0xFFFFFFFFFFFFFFFFFFFFFFFFFFFFFFFFFFFFFFFF AND EQ DUP1 PUSH2 0x1CAE JUMPI POP PUSH1 0x2 PUSH0 DUP8 PUSH20 0xFFFFFFFFFFFFFFFFFFFFFFFFFFFFFFFFFFFFFFFF AND PUSH20 0xFFFFFFFFFFFFFFFFFFFFFFFFFFFFFFFFFFFFFFFF AND DUP2 MSTORE PUSH1 0x20 ADD SWAP1 DUP2 MSTORE PUSH1 0x20 ADD PUSH0 KECCAK256 PUSH0 CALLER PUSH20 0xFFFFFFFFFFFFFFFFFFFFFFFFFFFFFFFFFFFFFFFF AND PUSH20 0xFFFFFFFFFFFFFFFFFFFFFFFFFFFFFFFFFFFFFFFF AND DUP2 MSTORE PUSH1 0x20 ADD SWAP1 DUP2 MSTORE PUSH1 0x20 ADD PUSH0 KECCAK256 PUSH0 SWAP1 SLOAD SWAP1 PUSH2 0x100 EXP SWAP1 DIV PUSH1 0xFF AND JUMPDEST SWAP1 POP PUSH0 PUSH20 0xFFFFFFFFFFFFFFFFFFFFFFFFFFFFFFFFFFFFFFFF AND DUP7 PUSH20 0xFFFFFFFFFFFFFFFFFFFFFFFFFFFFFFFFFFFFFFFF AND SUB PUSH2 0x1D1E JUMPI PUSH1 0x40 MLOAD PUSH32 0x8C379A000000000000000000000000000000000000000000000000000000000 DUP2 MSTORE PUSH1 0x4 ADD PUSH2 0x1D15 SWAP1 PUSH2 0x3ACF JUMP JUMPDEST PUSH1 0x40 MLOAD DUP1 SWAP2 SUB SWAP1 REVERT JUMPDEST PUSH0 PUSH20 0xFFFFFFFFFFFFFFFFFFFFFFFFFFFFFFFFFFFFFFFF AND DUP6 PUSH20 0xFFFFFFFFFFFFFFFFFFFFFFFFFFFFFFFFFFFFFFFF AND SUB PUSH2 0x1D8C JUMPI PUSH1 0x40 MLOAD PUSH32 0x8C379A000000000000000000000000000000000000000000000000000000000 DUP2 MSTORE PUSH1 0x4 ADD PUSH2 0x1D83 SWAP1 PUSH2 0x42AB JUMP JUMPDEST PUSH1 0x40 MLOAD DUP1 SWAP2 SUB SWAP1 REVERT JUMPDEST PUSH0 DUP5 MLOAD SWAP1 POP PUSH0 JUMPDEST DUP2 DUP2 LT ISZERO PUSH2 0x1F7B JUMPI PUSH0 DUP7 DUP3 DUP2 MLOAD DUP2 LT PUSH2 0x1DAF JUMPI PUSH2 0x1DAE PUSH2 0x38E1 JUMP JUMPDEST JUMPDEST PUSH1 0x20 MUL PUSH1 0x20 ADD ADD MLOAD SWAP1 POP PUSH0 DUP1 PUSH2 0x1DC4 DUP4 PUSH2 0x1A63 JUMP JUMPDEST SWAP2 POP SWAP2 POP DUP11 PUSH20 0xFFFFFFFFFFFFFFFFFFFFFFFFFFFFFFFFFFFFFFFF AND DUP3 PUSH20 0xFFFFFFFFFFFFFFFFFFFFFFFFFFFFFFFFFFFFFFFF AND EQ PUSH2 0x1E36 JUMPI PUSH1 0x40 MLOAD PUSH32 0x8C379A000000000000000000000000000000000000000000000000000000000 DUP2 MSTORE PUSH1 0x4 ADD PUSH2 0x1E2D SWAP1 PUSH2 0x4313 JUMP JUMPDEST PUSH1 0x40 MLOAD DUP1 SWAP2 SUB SWAP1 REVERT JUMPDEST DUP6 DUP1 PUSH2 0x1EA6 JUMPI POP DUP1 DUP1 ISZERO PUSH2 0x1EA5 JUMPI POP CALLER PUSH20 0xFFFFFFFFFFFFFFFFFFFFFFFFFFFFFFFFFFFFFFFF AND PUSH1 0x3 PUSH0 DUP6 DUP2 MSTORE PUSH1 0x20 ADD SWAP1 DUP2 MSTORE PUSH1 0x20 ADD PUSH0 KECCAK256 PUSH0 SWAP1 SLOAD SWAP1 PUSH2 0x100 EXP SWAP1 DIV PUSH20 0xFFFFFFFFFFFFFFFFFFFFFFFFFFFFFFFFFFFFFFFF AND PUSH20 0xFFFFFFFFFFFFFFFFFFFFFFFFFFFFFFFFFFFFFFFF AND EQ JUMPDEST JUMPDEST PUSH2 0x1EE5 JUMPI PUSH1 0x40 MLOAD PUSH32 0x8C379A000000000000000000000000000000000000000000000000000000000 DUP2 MSTORE PUSH1 0x4 ADD PUSH2 0x1EDC SWAP1 PUSH2 0x437B JUMP JUMPDEST PUSH1 0x40 MLOAD DUP1 SWAP2 SUB SWAP1 REVERT JUMPDEST PUSH2 0x1F0A DUP4 PUSH1 0x1 PUSH0 PUSH2 0x1EF5 DUP8 PUSH2 0x1AE3 JUMP JUMPDEST DUP2 MSTORE PUSH1 0x20 ADD SWAP1 DUP2 MSTORE PUSH1 0x20 ADD PUSH0 KECCAK256 SLOAD DUP13 PUSH0 PUSH2 0x2C34 JUMP JUMPDEST DUP3 DUP11 PUSH20 0xFFFFFFFFFFFFFFFFFFFFFFFFFFFFFFFFFFFFFFFF AND DUP13 PUSH20 0xFFFFFFFFFFFFFFFFFFFFFFFFFFFFFFFFFFFFFFFF AND PUSH32 0xDDF252AD1BE2C89B69C2B068FC378DAA952BA7F163C4A11628F55A4DF523B3EF PUSH1 0x40 MLOAD PUSH1 0x40 MLOAD DUP1 SWAP2 SUB SWAP1 LOG4 POP POP POP DUP1 DUP1 PUSH2 0x1F73 SWAP1 PUSH2 0x396E JUMP JUMPDEST SWAP2 POP POP PUSH2 0x1D93 JUMP JUMPDEST POP DUP6 PUSH20 0xFFFFFFFFFFFFFFFFFFFFFFFFFFFFFFFFFFFFFFFF AND DUP8 PUSH20 0xFFFFFFFFFFFFFFFFFFFFFFFFFFFFFFFFFFFFFFFF AND EQ PUSH2 0x2054 JUMPI DUP1 PUSH0 DUP1 DUP10 PUSH20 0xFFFFFFFFFFFFFFFFFFFFFFFFFFFFFFFFFFFFFFFF AND PUSH20 0xFFFFFFFFFFFFFFFFFFFFFFFFFFFFFFFFFFFFFFFF AND DUP2 MSTORE PUSH1 0x20 ADD SWAP1 DUP2 MSTORE PUSH1 0x20 ADD PUSH0 KECCAK256 PUSH0 DUP3 DUP3 SLOAD PUSH2 0x1FFA SWAP2 SWAP1 PUSH2 0x4399 JUMP JUMPDEST SWAP3 POP POP DUP2 SWAP1 SSTORE POP DUP1 PUSH0 DUP1 DUP9 PUSH20 0xFFFFFFFFFFFFFFFFFFFFFFFFFFFFFFFFFFFFFFFF AND PUSH20 0xFFFFFFFFFFFFFFFFFFFFFFFFFFFFFFFFFFFFFFFF AND DUP2 MSTORE PUSH1 0x20 ADD SWAP1 DUP2 MSTORE PUSH1 0x20 ADD PUSH0 KECCAK256 PUSH0 DUP3 DUP3 SLOAD PUSH2 0x204C SWAP2 SWAP1 PUSH2 0x393B JUMP JUMPDEST SWAP3 POP POP DUP2 SWAP1 SSTORE POP JUMPDEST PUSH2 0x2073 DUP7 PUSH20 0xFFFFFFFFFFFFFFFFFFFFFFFFFFFFFFFFFFFFFFFF AND PUSH2 0x24DD JUMP JUMPDEST DUP1 ISZERO PUSH2 0x2094 JUMPI POP DUP3 DUP1 PUSH2 0x2093 JUMPI POP PUSH2 0x2092 DUP7 PUSH4 0x5E8BF644 PUSH1 0xE0 SHL PUSH2 0x24FF JUMP JUMPDEST JUMPDEST JUMPDEST ISZERO PUSH2 0x20E6 JUMPI PUSH2 0x20A6 CALLER DUP9 DUP9 DUP9 DUP9 PUSH2 0x2D46 JUMP JUMPDEST PUSH2 0x20E5 JUMPI PUSH1 0x40 MLOAD PUSH32 0x8C379A000000000000000000000000000000000000000000000000000000000 DUP2 MSTORE PUSH1 0x4 ADD PUSH2 0x20DC SWAP1 PUSH2 0x4416 JUMP JUMPDEST PUSH1 0x40 MLOAD DUP1 SWAP2 SUB SWAP1 REVERT JUMPDEST JUMPDEST POP POP POP POP POP POP POP JUMP JUMPDEST PUSH0 DUP1 PUSH2 0x20FA DUP4 PUSH2 0x1A63 JUMP JUMPDEST SWAP2 POP SWAP2 POP PUSH0 PUSH20 0xFFFFFFFFFFFFFFFFFFFFFFFFFFFFFFFFFFFFFFFF AND DUP3 PUSH20 0xFFFFFFFFFFFFFFFFFFFFFFFFFFFFFFFFFFFFFFFF AND SUB PUSH2 0x216C JUMPI PUSH1 0x40 MLOAD PUSH32 0x8C379A000000000000000000000000000000000000000000000000000000000 DUP2 MSTORE PUSH1 0x4 ADD PUSH2 0x2163 SWAP1 PUSH2 0x3723 JUMP JUMPDEST PUSH1 0x40 MLOAD DUP1 SWAP2 SUB SWAP1 REVERT JUMPDEST DUP5 PUSH20 0xFFFFFFFFFFFFFFFFFFFFFFFFFFFFFFFFFFFFFFFF AND DUP3 PUSH20 0xFFFFFFFFFFFFFFFFFFFFFFFFFFFFFFFFFFFFFFFF AND EQ PUSH2 0x21DA JUMPI PUSH1 0x40 MLOAD PUSH32 0x8C379A000000000000000000000000000000000000000000000000000000000 DUP2 MSTORE PUSH1 0x4 ADD PUSH2 0x21D1 SWAP1 PUSH2 0x447E JUMP JUMPDEST PUSH1 0x40 MLOAD DUP1 SWAP2 SUB SWAP1 REVERT JUMPDEST PUSH0 PUSH20 0xFFFFFFFFFFFFFFFFFFFFFFFFFFFFFFFFFFFFFFFF AND DUP5 PUSH20 0xFFFFFFFFFFFFFFFFFFFFFFFFFFFFFFFFFFFFFFFF AND SUB PUSH2 0x2248 JUMPI PUSH1 0x40 MLOAD PUSH32 0x8C379A000000000000000000000000000000000000000000000000000000000 DUP2 MSTORE PUSH1 0x4 ADD PUSH2 0x223F SWAP1 PUSH2 0x42AB JUMP JUMPDEST PUSH1 0x40 MLOAD DUP1 SWAP2 SUB SWAP1 REVERT JUMPDEST DUP5 PUSH20 0xFFFFFFFFFFFFFFFFFFFFFFFFFFFFFFFFFFFFFFFF AND CALLER PUSH20 0xFFFFFFFFFFFFFFFFFFFFFFFFFFFFFFFFFFFFFFFF AND EQ PUSH2 0x23AF JUMPI PUSH1 0x2 PUSH0 DUP7 PUSH20 0xFFFFFFFFFFFFFFFFFFFFFFFFFFFFFFFFFFFFFFFF AND PUSH20 0xFFFFFFFFFFFFFFFFFFFFFFFFFFFFFFFFFFFFFFFF AND DUP2 MSTORE PUSH1 0x20 ADD SWAP1 DUP2 MSTORE PUSH1 0x20 ADD PUSH0 KECCAK256 PUSH0 CALLER PUSH20 0xFFFFFFFFFFFFFFFFFFFFFFFFFFFFFFFFFFFFFFFF AND PUSH20 0xFFFFFFFFFFFFFFFFFFFFFFFFFFFFFFFFFFFFFFFF AND DUP2 MSTORE PUSH1 0x20 ADD SWAP1 DUP2 MSTORE PUSH1 0x20 ADD PUSH0 KECCAK256 PUSH0 SWAP1 SLOAD SWAP1 PUSH2 0x100 EXP SWAP1 DIV PUSH1 0xFF AND DUP1 PUSH2 0x236F JUMPI POP DUP1 DUP1 ISZERO PUSH2 0x236E JUMPI POP CALLER PUSH20 0xFFFFFFFFFFFFFFFFFFFFFFFFFFFFFFFFFFFFFFFF AND PUSH1 0x3 PUSH0 DUP6 DUP2 MSTORE PUSH1 0x20 ADD SWAP1 DUP2 MSTORE PUSH1 0x20 ADD PUSH0 KECCAK256 PUSH0 SWAP1 SLOAD SWAP1 PUSH2 0x100 EXP SWAP1 DIV PUSH20 0xFFFFFFFFFFFFFFFFFFFFFFFFFFFFFFFFFFFFFFFF AND PUSH20 0xFFFFFFFFFFFFFFFFFFFFFFFFFFFFFFFFFFFFFFFF AND EQ JUMPDEST JUMPDEST PUSH2 0x23AE JUMPI PUSH1 0x40 MLOAD PUSH32 0x8C379A000000000000000000000000000000000000000000000000000000000 DUP2 MSTORE PUSH1 0x4 ADD PUSH2 0x23A5 SWAP1 PUSH2 0x44E6 JUMP JUMPDEST PUSH1 0x40 MLOAD DUP1 SWAP2 SUB SWAP1 REVERT JUMPDEST JUMPDEST POP POP POP POP POP JUMP JUMPDEST PUSH0 DUP1 DUP5 PUSH20 0xFFFFFFFFFFFFFFFFFFFFFFFFFFFFFFFFFFFFFFFF AND PUSH20 0xFFFFFFFFFFFFFFFFFFFFFFFFFFFFFFFFFFFFFFFF AND DUP2 MSTORE PUSH1 0x20 ADD SWAP1 DUP2 MSTORE PUSH1 0x20 ADD PUSH0 KECCAK256 PUSH0 DUP2 SLOAD DUP1 SWAP3 SWAP2 SWAP1 PUSH2 0x2402 SWAP1 PUSH2 0x4504 JUMP JUMPDEST SWAP2 SWAP1 POP SSTORE POP PUSH0 DUP1 DUP4 PUSH20 0xFFFFFFFFFFFFFFFFFFFFFFFFFFFFFFFFFFFFFFFF AND PUSH20 0xFFFFFFFFFFFFFFFFFFFFFFFFFFFFFFFFFFFFFFFF AND DUP2 MSTORE PUSH1 0x20 ADD SWAP1 DUP2 MSTORE PUSH1 0x20 ADD PUSH0 KECCAK256 PUSH0 DUP2 SLOAD DUP1 SWAP3 SWAP2 SWAP1 PUSH2 0x2453 SWAP1 PUSH2 0x396E JUMP JUMPDEST SWAP2 SWAP1 POP SSTORE POP PUSH2 0x247D DUP2 PUSH1 0x1 PUSH0 PUSH2 0x2468 DUP6 PUSH2 0x1AE3 JUMP JUMPDEST DUP2 MSTORE PUSH1 0x20 ADD SWAP1 DUP2 MSTORE PUSH1 0x20 ADD PUSH0 KECCAK256 SLOAD DUP5 PUSH0 PUSH2 0x2C34 JUMP JUMPDEST DUP1 DUP3 PUSH20 0xFFFFFFFFFFFFFFFFFFFFFFFFFFFFFFFFFFFFFFFF AND DUP5 PUSH20 0xFFFFFFFFFFFFFFFFFFFFFFFFFFFFFFFFFFFFFFFF AND PUSH32 0xDDF252AD1BE2C89B69C2B068FC378DAA952BA7F163C4A11628F55A4DF523B3EF PUSH1 0x40 MLOAD PUSH1 0x40 MLOAD DUP1 SWAP2 SUB SWAP1 LOG4 POP POP POP JUMP JUMPDEST PUSH0 DUP1 DUP3 PUSH20 0xFFFFFFFFFFFFFFFFFFFFFFFFFFFFFFFFFFFFFFFF AND EXTCODESIZE GT SWAP1 POP SWAP2 SWAP1 POP JUMP JUMPDEST PUSH0 DUP1 PUSH0 DUP1 PUSH4 0x1FFC9A7 PUSH1 0xE0 SHL DUP6 PUSH1 0x40 MLOAD PUSH1 0x24 ADD PUSH2 0x251C SWAP2 SWAP1 PUSH2 0x453A JUMP JUMPDEST PUSH1 0x40 MLOAD PUSH1 0x20 DUP2 DUP4 SUB SUB DUP2 MSTORE SWAP1 PUSH1 0x40 MSTORE SWAP1 PUSH28 0xFFFFFFFFFFFFFFFFFFFFFFFFFFFFFFFFFFFFFFFFFFFFFFFFFFFFFFFF NOT AND PUSH1 0x20 DUP3 ADD DUP1 MLOAD PUSH28 0xFFFFFFFFFFFFFFFFFFFFFFFFFFFFFFFFFFFFFFFFFFFFFFFFFFFFFFFF DUP4 DUP2 DUP4 AND OR DUP4 MSTORE POP POP POP POP SWAP1 POP DUP1 PUSH1 0x20 ADD DUP2 MLOAD PUSH1 0x40 MLOAD PUSH0 DUP2 MSTORE PUSH1 0x20 DUP2 DUP4 DUP6 DUP13 PUSH2 0x2710 STATICCALL SWAP6 POP DUP1 MLOAD SWAP5 POP POP POP POP PUSH1 0x9E GAS GT PUSH2 0x25AB JUMPI PUSH2 0x25AA PUSH2 0x4553 JUMP JUMPDEST JUMPDEST DUP3 DUP1 ISZERO PUSH2 0x25B5 JUMPI POP DUP2 JUMPDEST SWAP4 POP POP POP POP SWAP3 SWAP2 POP POP JUMP JUMPDEST PUSH0 DUP1 DUP5 PUSH20 0xFFFFFFFFFFFFFFFFFFFFFFFFFFFFFFFFFFFFFFFF AND PUSH4 0x150B7A02 DUP9 DUP9 DUP8 DUP8 PUSH1 0x40 MLOAD DUP6 PUSH4 0xFFFFFFFF AND PUSH1 0xE0 SHL DUP2 MSTORE PUSH1 0x4 ADD PUSH2 0x2601 SWAP5 SWAP4 SWAP3 SWAP2 SWAP1 PUSH2 0x45D2 JUMP JUMPDEST PUSH1 0x20 PUSH1 0x40 MLOAD DUP1 DUP4 SUB DUP2 PUSH0 DUP8 GAS CALL ISZERO DUP1 ISZERO PUSH2 0x261D JUMPI RETURNDATASIZE PUSH0 DUP1 RETURNDATACOPY RETURNDATASIZE PUSH0 REVERT JUMPDEST POP POP POP POP PUSH1 0x40 MLOAD RETURNDATASIZE PUSH1 0x1F NOT PUSH1 0x1F DUP3 ADD AND DUP3 ADD DUP1 PUSH1 0x40 MSTORE POP DUP2 ADD SWAP1 PUSH2 0x2641 SWAP2 SWAP1 PUSH2 0x4630 JUMP JUMPDEST SWAP1 POP PUSH4 0x150B7A02 PUSH1 0xE0 SHL PUSH28 0xFFFFFFFFFFFFFFFFFFFFFFFFFFFFFFFFFFFFFFFFFFFFFFFFFFFFFFFF NOT AND DUP2 PUSH28 0xFFFFFFFFFFFFFFFFFFFFFFFFFFFFFFFFFFFFFFFFFFFFFFFFFFFFFFFF NOT AND EQ SWAP2 POP POP SWAP6 SWAP5 POP POP POP POP POP JUMP JUMPDEST PUSH0 DUP1 PUSH1 0x1 PUSH0 PUSH2 0x26A5 DUP6 PUSH2 0x1AE3 JUMP JUMPDEST DUP2 MSTORE PUSH1 0x20 ADD SWAP1 DUP2 MSTORE PUSH1 0x20 ADD PUSH0 KECCAK256 SLOAD SWAP1 POP PUSH21 0x10000000000000000000000000000000000000000 DUP1 DUP3 AND SUB PUSH2 0x26DC JUMPI PUSH0 SWAP2 POP POP PUSH2 0x26E1 JUMP JUMPDEST DUP1 SWAP2 POP POP JUMPDEST SWAP2 SWAP1 POP JUMP JUMPDEST DUP2 PUSH20 0xFFFFFFFFFFFFFFFFFFFFFFFFFFFFFFFFFFFFFFFF AND DUP4 PUSH20 0xFFFFFFFFFFFFFFFFFFFFFFFFFFFFFFFFFFFFFFFF AND EQ PUSH2 0x2754 JUMPI PUSH1 0x40 MLOAD PUSH32 0x8C379A000000000000000000000000000000000000000000000000000000000 DUP2 MSTORE PUSH1 0x4 ADD PUSH2 0x274B SWAP1 PUSH2 0x46A5 JUMP JUMPDEST PUSH1 0x40 MLOAD DUP1 SWAP2 SUB SWAP1 REVERT JUMPDEST PUSH0 PUSH2 0x275E DUP3 PUSH2 0x1AE3 JUMP JUMPDEST SWAP1 POP PUSH21 0x10000000000000000000000000000000000000000 PUSH1 0x1 PUSH32 0x8000000000000000000000000000000000000000000000000000000000000000 PUSH2 0x27A3 SWAP2 SWAP1 PUSH2 0x4399 JUMP JUMPDEST PUSH1 0x1 PUSH0 DUP5 DUP2 MSTORE PUSH1 0x20 ADD SWAP1 DUP2 MSTORE PUSH1 0x20 ADD PUSH0 KECCAK256 SLOAD AND OR PUSH1 0x1 PUSH0 DUP4 DUP2 MSTORE PUSH1 0x20 ADD SWAP1 DUP2 MSTORE PUSH1 0x20 ADD PUSH0 KECCAK256 DUP2 SWAP1 SSTORE POP PUSH0 DUP1 DUP6 PUSH20 0xFFFFFFFFFFFFFFFFFFFFFFFFFFFFFFFFFFFFFFFF AND PUSH20 0xFFFFFFFFFFFFFFFFFFFFFFFFFFFFFFFFFFFFFFFF AND DUP2 MSTORE PUSH1 0x20 ADD SWAP1 DUP2 MSTORE PUSH1 0x20 ADD PUSH0 KECCAK256 PUSH0 DUP2 SLOAD DUP1 SWAP3 SWAP2 SWAP1 PUSH2 0x2818 SWAP1 PUSH2 0x4504 JUMP JUMPDEST SWAP2 SWAP1 POP SSTORE POP DUP2 PUSH0 PUSH20 0xFFFFFFFFFFFFFFFFFFFFFFFFFFFFFFFFFFFFFFFF AND DUP6 PUSH20 0xFFFFFFFFFFFFFFFFFFFFFFFFFFFFFFFFFFFFFFFF AND PUSH32 0xDDF252AD1BE2C89B69C2B068FC378DAA952BA7F163C4A11628F55A4DF523B3EF PUSH1 0x40 MLOAD PUSH1 0x40 MLOAD DUP1 SWAP2 SUB SWAP1 LOG4 POP POP POP POP JUMP JUMPDEST PUSH0 PUSH2 0x2888 DUP3 PUSH2 0x1AE3 JUMP JUMPDEST SWAP1 POP PUSH0 PUSH1 0x1 PUSH0 DUP4 DUP2 MSTORE PUSH1 0x20 ADD SWAP1 DUP2 MSTORE PUSH1 0x20 ADD PUSH0 KECCAK256 SLOAD EQ PUSH2 0x28DD JUMPI PUSH1 0x40 MLOAD PUSH32 0x8C379A000000000000000000000000000000000000000000000000000000000 DUP2 MSTORE PUSH1 0x4 ADD PUSH2 0x28D4 SWAP1 PUSH2 0x470D JUMP JUMPDEST PUSH1 0x40 MLOAD DUP1 SWAP2 SUB SWAP1 REVERT JUMPDEST DUP3 PUSH20 0xFFFFFFFFFFFFFFFFFFFFFFFFFFFFFFFFFFFFFFFF AND PUSH1 0x1 PUSH0 DUP4 DUP2 MSTORE PUSH1 0x20 ADD SWAP1 DUP2 MSTORE PUSH1 0x20 ADD PUSH0 KECCAK256 DUP2 SWAP1 SSTORE POP PUSH0 DUP1 DUP5 PUSH20 0xFFFFFFFFFFFFFFFFFFFFFFFFFFFFFFFFFFFFFFFF AND PUSH20 0xFFFFFFFFFFFFFFFFFFFFFFFFFFFFFFFFFFFFFFFF AND DUP2 MSTORE PUSH1 0x20 ADD SWAP1 DUP2 MSTORE PUSH1 0x20 ADD PUSH0 KECCAK256 PUSH0 DUP2 SLOAD DUP1 SWAP3 SWAP2 SWAP1 PUSH2 0x2955 SWAP1 PUSH2 0x396E JUMP JUMPDEST SWAP2 SWAP1 POP SSTORE POP DUP2 DUP4 PUSH20 0xFFFFFFFFFFFFFFFFFFFFFFFFFFFFFFFFFFFFFFFF AND PUSH0 PUSH20 0xFFFFFFFFFFFFFFFFFFFFFFFFFFFFFFFFFFFFFFFF AND PUSH32 0xDDF252AD1BE2C89B69C2B068FC378DAA952BA7F163C4A11628F55A4DF523B3EF PUSH1 0x40 MLOAD PUSH1 0x40 MLOAD DUP1 SWAP2 SUB SWAP1 LOG4 POP POP POP JUMP JUMPDEST DUP1 PUSH1 0x2 PUSH0 DUP6 PUSH20 0xFFFFFFFFFFFFFFFFFFFFFFFFFFFFFFFFFFFFFFFF AND PUSH20 0xFFFFFFFFFFFFFFFFFFFFFFFFFFFFFFFFFFFFFFFF AND DUP2 MSTORE PUSH1 0x20 ADD SWAP1 DUP2 MSTORE PUSH1 0x20 ADD PUSH0 KECCAK256 PUSH0 DUP5 PUSH20 0xFFFFFFFFFFFFFFFFFFFFFFFFFFFFFFFFFFFFFFFF AND PUSH20 0xFFFFFFFFFFFFFFFFFFFFFFFFFFFFFFFFFFFFFFFF AND DUP2 MSTORE PUSH1 0x20 ADD SWAP1 DUP2 MSTORE PUSH1 0x20 ADD PUSH0 KECCAK256 PUSH0 PUSH2 0x100 EXP DUP2 SLOAD DUP2 PUSH1 0xFF MUL NOT AND SWAP1 DUP4 ISZERO ISZERO MUL OR SWAP1 SSTORE POP DUP2 PUSH20 0xFFFFFFFFFFFFFFFFFFFFFFFFFFFFFFFFFFFFFFFF AND DUP4 PUSH20 0xFFFFFFFFFFFFFFFFFFFFFFFFFFFFFFFFFFFFFFFF AND PUSH32 0x17307EAB39AB6107E8899845AD3D59BD9653F200F220920489CA2B5937696C31 DUP4 PUSH1 0x40 MLOAD PUSH2 0x2AA6 SWAP2 SWAP1 PUSH2 0x2EEB JUMP JUMPDEST PUSH1 0x40 MLOAD DUP1 SWAP2 SUB SWAP1 LOG3 POP POP POP JUMP JUMPDEST PUSH0 PUSH32 0xB53127684A568B3173AE13B9F8A6016E243E63B6E8EE1178D6A717850B5D6103 SLOAD SWAP1 POP SWAP1 JUMP JUMPDEST PUSH1 0x60 PUSH0 DUP3 SUB PUSH2 0x2B21 JUMPI PUSH1 0x40 MLOAD DUP1 PUSH1 0x40 ADD PUSH1 0x40 MSTORE DUP1 PUSH1 0x1 DUP2 MSTORE PUSH1 0x20 ADD PUSH32 0x3000000000000000000000000000000000000000000000000000000000000000 DUP2 MSTORE POP SWAP1 POP PUSH2 0x2C2F JUMP JUMPDEST PUSH0 DUP3 SWAP1 POP PUSH0 JUMPDEST PUSH0 DUP3 EQ PUSH2 0x2B4F JUMPI DUP1 DUP1 PUSH1 0x1 ADD SWAP2 POP POP PUSH1 0xA DUP3 DUP2 PUSH2 0x2B47 JUMPI PUSH2 0x2B46 PUSH2 0x3C15 JUMP JUMPDEST JUMPDEST DIV SWAP2 POP PUSH2 0x2B27 JUMP JUMPDEST PUSH0 DUP2 PUSH8 0xFFFFFFFFFFFFFFFF DUP2 GT ISZERO PUSH2 0x2B6A JUMPI PUSH2 0x2B69 PUSH2 0x33C2 JUMP JUMPDEST JUMPDEST PUSH1 0x40 MLOAD SWAP1 DUP1 DUP3 MSTORE DUP1 PUSH1 0x1F ADD PUSH1 0x1F NOT AND PUSH1 0x20 ADD DUP3 ADD PUSH1 0x40 MSTORE DUP1 ISZERO PUSH2 0x2B9C JUMPI DUP2 PUSH1 0x20 ADD PUSH1 0x1 DUP3 MUL DUP1 CALLDATASIZE DUP4 CALLDATACOPY DUP1 DUP3 ADD SWAP2 POP POP SWAP1 POP JUMPDEST POP SWAP1 POP PUSH0 PUSH1 0x1 DUP4 SUB SWAP1 POP JUMPDEST PUSH0 DUP7 EQ PUSH2 0x2C27 JUMPI PUSH1 0xA DUP7 DUP2 PUSH2 0x2BBF JUMPI PUSH2 0x2BBE PUSH2 0x3C15 JUMP JUMPDEST JUMPDEST MOD PUSH1 0x30 ADD PUSH1 0xF8 SHL DUP3 DUP3 DUP1 PUSH1 0x1 SWAP1 SUB SWAP4 POP DUP2 MLOAD DUP2 LT PUSH2 0x2BE0 JUMPI PUSH2 0x2BDF PUSH2 0x38E1 JUMP JUMPDEST JUMPDEST PUSH1 0x20 ADD ADD SWAP1 PUSH31 0xFFFFFFFFFFFFFFFFFFFFFFFFFFFFFFFFFFFFFFFFFFFFFFFFFFFFFFFFFFFFFF NOT AND SWAP1 DUP2 PUSH0 BYTE SWAP1 MSTORE8 POP PUSH1 0xA DUP7 DUP2 PUSH2 0x2C1F JUMPI PUSH2 0x2C1E PUSH2 0x3C15 JUMP JUMPDEST JUMPDEST DIV SWAP6 POP PUSH2 0x2BA7 JUMP JUMPDEST DUP2 SWAP5 POP POP POP POP POP JUMPDEST SWAP2 SWAP1 POP JUMP JUMPDEST DUP1 ISZERO PUSH2 0x2CB9 JUMPI DUP2 PUSH20 0xFFFFFFFFFFFFFFFFFFFFFFFFFFFFFFFFFFFFFFFF AND PUSH32 0x8000000000000000000000000000000000000000000000000000000000000000 PUSH32 0xFFFFFFFFFFFFFFFFFFFFFFFF0000000000000000000000000000000000000000 DUP6 AND OR OR PUSH1 0x1 PUSH0 PUSH2 0x2CA3 DUP8 PUSH2 0x1AE3 JUMP JUMPDEST DUP2 MSTORE PUSH1 0x20 ADD SWAP1 DUP2 MSTORE PUSH1 0x20 ADD PUSH0 KECCAK256 DUP2 SWAP1 SSTORE POP PUSH2 0x2D40 JUMP JUMPDEST DUP2 PUSH20 0xFFFFFFFFFFFFFFFFFFFFFFFFFFFFFFFFFFFFFFFF AND PUSH1 0x1 PUSH32 0x8000000000000000000000000000000000000000000000000000000000000000 PUSH2 0x2CFD SWAP2 SWAP1 PUSH2 0x4399 JUMP JUMPDEST PUSH32 0xFFFFFFFFFFFFFFFFFFFFFFFF0000000000000000000000000000000000000000 DUP6 AND AND OR PUSH1 0x1 PUSH0 PUSH2 0x2D2E DUP8 PUSH2 0x1AE3 JUMP JUMPDEST DUP2 MSTORE PUSH1 0x20 ADD SWAP1 DUP2 MSTORE PUSH1 0x20 ADD PUSH0 KECCAK256 DUP2 SWAP1 SSTORE POP JUMPDEST POP POP POP POP JUMP JUMPDEST PUSH0 DUP1 DUP5 PUSH20 0xFFFFFFFFFFFFFFFFFFFFFFFFFFFFFFFFFFFFFFFF AND PUSH4 0x4B808C46 DUP9 DUP9 DUP8 DUP8 PUSH1 0x40 MLOAD DUP6 PUSH4 0xFFFFFFFF AND PUSH1 0xE0 SHL DUP2 MSTORE PUSH1 0x4 ADD PUSH2 0x2D87 SWAP5 SWAP4 SWAP3 SWAP2 SWAP1 PUSH2 0x47E2 JUMP JUMPDEST PUSH1 0x20 PUSH1 0x40 MLOAD DUP1 DUP4 SUB DUP2 PUSH0 DUP8 GAS CALL ISZERO DUP1 ISZERO PUSH2 0x2DA3 JUMPI RETURNDATASIZE PUSH0 DUP1 RETURNDATACOPY RETURNDATASIZE PUSH0 REVERT JUMPDEST POP POP POP POP PUSH1 0x40 MLOAD RETURNDATASIZE PUSH1 0x1F NOT PUSH1 0x1F DUP3 ADD AND DUP3 ADD DUP1 PUSH1 0x40 MSTORE POP DUP2 ADD SWAP1 PUSH2 0x2DC7 SWAP2 SWAP1 PUSH2 0x4630 JUMP JUMPDEST SWAP1 POP PUSH4 0x4B808C46 PUSH1 0xE0 SHL PUSH28 0xFFFFFFFFFFFFFFFFFFFFFFFFFFFFFFFFFFFFFFFFFFFFFFFFFFFFFFFF NOT AND DUP2 PUSH28 0xFFFFFFFFFFFFFFFFFFFFFFFFFFFFFFFFFFFFFFFFFFFFFFFFFFFFFFFF NOT AND EQ SWAP2 POP POP SWAP6 SWAP5 POP POP POP POP POP JUMP JUMPDEST PUSH1 0x40 MLOAD DUP1 PUSH2 0x320 ADD PUSH1 0x40 MSTORE DUP1 PUSH1 0x19 SWAP1 PUSH1 0x20 DUP3 MUL DUP1 CALLDATASIZE DUP4 CALLDATACOPY DUP1 DUP3 ADD SWAP2 POP POP SWAP1 POP POP SWAP1 JUMP JUMPDEST PUSH0 PUSH1 0x40 MLOAD SWAP1 POP SWAP1 JUMP JUMPDEST PUSH0 DUP1 REVERT JUMPDEST PUSH0 DUP1 REVERT JUMPDEST PUSH0 PUSH32 0xFFFFFFFF00000000000000000000000000000000000000000000000000000000 DUP3 AND SWAP1 POP SWAP2 SWAP1 POP JUMP JUMPDEST PUSH2 0x2E85 DUP2 PUSH2 0x2E51 JUMP JUMPDEST DUP2 EQ PUSH2 0x2E8F JUMPI PUSH0 DUP1 REVERT JUMPDEST POP JUMP JUMPDEST PUSH0 DUP2 CALLDATALOAD SWAP1 POP PUSH2 0x2EA0 DUP2 PUSH2 0x2E7C JUMP JUMPDEST SWAP3 SWAP2 POP POP JUMP JUMPDEST PUSH0 PUSH1 0x20 DUP3 DUP5 SUB SLT ISZERO PUSH2 0x2EBB JUMPI PUSH2 0x2EBA PUSH2 0x2E49 JUMP JUMPDEST JUMPDEST PUSH0 PUSH2 0x2EC8 DUP5 DUP3 DUP6 ADD PUSH2 0x2E92 JUMP JUMPDEST SWAP2 POP POP SWAP3 SWAP2 POP POP JUMP JUMPDEST PUSH0 DUP2 ISZERO ISZERO SWAP1 POP SWAP2 SWAP1 POP JUMP JUMPDEST PUSH2 0x2EE5 DUP2 PUSH2 0x2ED1 JUMP JUMPDEST DUP3 MSTORE POP POP JUMP JUMPDEST PUSH0 PUSH1 0x20 DUP3 ADD SWAP1 POP PUSH2 0x2EFE PUSH0 DUP4 ADD DUP5 PUSH2 0x2EDC JUMP JUMPDEST SWAP3 SWAP2 POP POP JUMP JUMPDEST PUSH0 DUP2 MLOAD SWAP1 POP SWAP2 SWAP1 POP JUMP JUMPDEST PUSH0 DUP3 DUP3 MSTORE PUSH1 0x20 DUP3 ADD SWAP1 POP SWAP3 SWAP2 POP POP JUMP JUMPDEST PUSH0 JUMPDEST DUP4 DUP2 LT ISZERO PUSH2 0x2F3B JUMPI DUP1 DUP3 ADD MLOAD DUP2 DUP5 ADD MSTORE PUSH1 0x20 DUP2 ADD SWAP1 POP PUSH2 0x2F20 JUMP JUMPDEST PUSH0 DUP5 DUP5 ADD MSTORE POP POP POP POP JUMP JUMPDEST PUSH0 PUSH1 0x1F NOT PUSH1 0x1F DUP4 ADD AND SWAP1 POP SWAP2 SWAP1 POP JUMP JUMPDEST PUSH0 PUSH2 0x2F60 DUP3 PUSH2 0x2F04 JUMP JUMPDEST PUSH2 0x2F6A DUP2 DUP6 PUSH2 0x2F0E JUMP JUMPDEST SWAP4 POP PUSH2 0x2F7A DUP2 DUP6 PUSH1 0x20 DUP7 ADD PUSH2 0x2F1E JUMP JUMPDEST PUSH2 0x2F83 DUP2 PUSH2 0x2F46 JUMP JUMPDEST DUP5 ADD SWAP2 POP POP SWAP3 SWAP2 POP POP JUMP JUMPDEST PUSH0 PUSH1 0x20 DUP3 ADD SWAP1 POP DUP2 DUP2 SUB PUSH0 DUP4 ADD MSTORE PUSH2 0x2FA6 DUP2 DUP5 PUSH2 0x2F56 JUMP JUMPDEST SWAP1 POP SWAP3 SWAP2 POP POP JUMP JUMPDEST PUSH0 DUP2 SWAP1 POP SWAP2 SWAP1 POP JUMP JUMPDEST PUSH2 0x2FC0 DUP2 PUSH2 0x2FAE JUMP JUMPDEST DUP2 EQ PUSH2 0x2FCA JUMPI PUSH0 DUP1 REVERT JUMPDEST POP JUMP JUMPDEST PUSH0 DUP2 CALLDATALOAD SWAP1 POP PUSH2 0x2FDB DUP2 PUSH2 0x2FB7 JUMP JUMPDEST SWAP3 SWAP2 POP POP JUMP JUMPDEST PUSH0 PUSH1 0x20 DUP3 DUP5 SUB SLT ISZERO PUSH2 0x2FF6 JUMPI PUSH2 0x2FF5 PUSH2 0x2E49 JUMP JUMPDEST JUMPDEST PUSH0 PUSH2 0x3003 DUP5 DUP3 DUP6 ADD PUSH2 0x2FCD JUMP JUMPDEST SWAP2 POP POP SWAP3 SWAP2 POP POP JUMP JUMPDEST PUSH0 PUSH20 0xFFFFFFFFFFFFFFFFFFFFFFFFFFFFFFFFFFFFFFFF DUP3 AND SWAP1 POP SWAP2 SWAP1 POP JUMP JUMPDEST PUSH0 PUSH2 0x3035 DUP3 PUSH2 0x300C JUMP JUMPDEST SWAP1 POP SWAP2 SWAP1 POP JUMP JUMPDEST PUSH2 0x3045 DUP2 PUSH2 0x302B JUMP JUMPDEST DUP3 MSTORE POP POP JUMP JUMPDEST PUSH0 PUSH1 0x20 DUP3 ADD SWAP1 POP PUSH2 0x305E PUSH0 DUP4 ADD DUP5 PUSH2 0x303C JUMP JUMPDEST SWAP3 SWAP2 POP POP JUMP JUMPDEST PUSH2 0x306D DUP2 PUSH2 0x302B JUMP JUMPDEST DUP2 EQ PUSH2 0x3077 JUMPI PUSH0 DUP1 REVERT JUMPDEST POP JUMP JUMPDEST PUSH0 DUP2 CALLDATALOAD SWAP1 POP PUSH2 0x3088 DUP2 PUSH2 0x3064 JUMP JUMPDEST SWAP3 SWAP2 POP POP JUMP JUMPDEST PUSH0 DUP1 PUSH1 0x40 DUP4 DUP6 SUB SLT ISZERO PUSH2 0x30A4 JUMPI PUSH2 0x30A3 PUSH2 0x2E49 JUMP JUMPDEST JUMPDEST PUSH0 PUSH2 0x30B1 DUP6 DUP3 DUP7 ADD PUSH2 0x307A JUMP JUMPDEST SWAP3 POP POP PUSH1 0x20 PUSH2 0x30C2 DUP6 DUP3 DUP7 ADD PUSH2 0x2FCD JUMP JUMPDEST SWAP2 POP POP SWAP3 POP SWAP3 SWAP1 POP JUMP JUMPDEST PUSH0 DUP1 REVERT JUMPDEST PUSH0 DUP1 REVERT JUMPDEST PUSH0 DUP1 REVERT JUMPDEST PUSH0 DUP1 DUP4 PUSH1 0x1F DUP5 ADD SLT PUSH2 0x30ED JUMPI PUSH2 0x30EC PUSH2 0x30CC JUMP JUMPDEST JUMPDEST DUP3 CALLDATALOAD SWAP1 POP PUSH8 0xFFFFFFFFFFFFFFFF DUP2 GT ISZERO PUSH2 0x310A JUMPI PUSH2 0x3109 PUSH2 0x30D0 JUMP JUMPDEST JUMPDEST PUSH1 0x20 DUP4 ADD SWAP2 POP DUP4 PUSH1 0x20 DUP3 MUL DUP4 ADD GT ISZERO PUSH2 0x3126 JUMPI PUSH2 0x3125 PUSH2 0x30D4 JUMP JUMPDEST JUMPDEST SWAP3 POP SWAP3 SWAP1 POP JUMP JUMPDEST PUSH0 DUP1 DUP4 PUSH1 0x1F DUP5 ADD SLT PUSH2 0x3142 JUMPI PUSH2 0x3141 PUSH2 0x30CC JUMP JUMPDEST JUMPDEST DUP3 CALLDATALOAD SWAP1 POP PUSH8 0xFFFFFFFFFFFFFFFF DUP2 GT ISZERO PUSH2 0x315F JUMPI PUSH2 0x315E PUSH2 0x30D0 JUMP JUMPDEST JUMPDEST PUSH1 0x20 DUP4 ADD SWAP2 POP DUP4 PUSH1 0x1 DUP3 MUL DUP4 ADD GT ISZERO PUSH2 0x317B JUMPI PUSH2 0x317A PUSH2 0x30D4 JUMP JUMPDEST JUMPDEST SWAP3 POP SWAP3 SWAP1 POP JUMP JUMPDEST PUSH0 DUP1 PUSH0 DUP1 PUSH0 DUP1 PUSH1 0x80 DUP8 DUP10 SUB SLT ISZERO PUSH2 0x319C JUMPI PUSH2 0x319B PUSH2 0x2E49 JUMP JUMPDEST JUMPDEST PUSH0 PUSH2 0x31A9 DUP10 DUP3 DUP11 ADD PUSH2 0x307A JUMP JUMPDEST SWAP7 POP POP PUSH1 0x20 PUSH2 0x31BA DUP10 DUP3 DUP11 ADD PUSH2 0x307A JUMP JUMPDEST SWAP6 POP POP PUSH1 0x40 DUP8 ADD CALLDATALOAD PUSH8 0xFFFFFFFFFFFFFFFF DUP2 GT ISZERO PUSH2 0x31DB JUMPI PUSH2 0x31DA PUSH2 0x2E4D JUMP JUMPDEST JUMPDEST PUSH2 0x31E7 DUP10 DUP3 DUP11 ADD PUSH2 0x30D8 JUMP JUMPDEST SWAP5 POP SWAP5 POP POP PUSH1 0x60 DUP8 ADD CALLDATALOAD PUSH8 0xFFFFFFFFFFFFFFFF DUP2 GT ISZERO PUSH2 0x320A JUMPI PUSH2 0x3209 PUSH2 0x2E4D JUMP JUMPDEST JUMPDEST PUSH2 0x3216 DUP10 DUP3 DUP11 ADD PUSH2 0x312D JUMP JUMPDEST SWAP3 POP SWAP3 POP POP SWAP3 SWAP6 POP SWAP3 SWAP6 POP SWAP3 SWAP6 JUMP JUMPDEST PUSH0 DUP1 PUSH0 PUSH1 0x60 DUP5 DUP7 SUB SLT ISZERO PUSH2 0x323C JUMPI PUSH2 0x323B PUSH2 0x2E49 JUMP JUMPDEST JUMPDEST PUSH0 PUSH2 0x3249 DUP7 DUP3 DUP8 ADD PUSH2 0x307A JUMP JUMPDEST SWAP4 POP POP PUSH1 0x20 PUSH2 0x325A DUP7 DUP3 DUP8 ADD PUSH2 0x307A JUMP JUMPDEST SWAP3 POP POP PUSH1 0x40 PUSH2 0x326B DUP7 DUP3 DUP8 ADD PUSH2 0x2FCD JUMP JUMPDEST SWAP2 POP POP SWAP3 POP SWAP3 POP SWAP3 JUMP JUMPDEST PUSH0 DUP1 PUSH1 0x40 DUP4 DUP6 SUB SLT ISZERO PUSH2 0x328B JUMPI PUSH2 0x328A PUSH2 0x2E49 JUMP JUMPDEST JUMPDEST PUSH0 PUSH2 0x3298 DUP6 DUP3 DUP7 ADD PUSH2 0x2FCD JUMP JUMPDEST SWAP3 POP POP PUSH1 0x20 PUSH2 0x32A9 DUP6 DUP3 DUP7 ADD PUSH2 0x2FCD JUMP JUMPDEST SWAP2 POP POP SWAP3 POP SWAP3 SWAP1 POP JUMP JUMPDEST PUSH0 PUSH1 0x20 DUP3 DUP5 SUB SLT ISZERO PUSH2 0x32C8 JUMPI PUSH2 0x32C7 PUSH2 0x2E49 JUMP JUMPDEST JUMPDEST PUSH0 PUSH2 0x32D5 DUP5 DUP3 DUP6 ADD PUSH2 0x307A JUMP JUMPDEST SWAP2 POP POP SWAP3 SWAP2 POP POP JUMP JUMPDEST PUSH2 0x32E7 DUP2 PUSH2 0x2FAE JUMP JUMPDEST DUP3 MSTORE POP POP JUMP JUMPDEST PUSH0 PUSH1 0x20 DUP3 ADD SWAP1 POP PUSH2 0x3300 PUSH0 DUP4 ADD DUP5 PUSH2 0x32DE JUMP JUMPDEST SWAP3 SWAP2 POP POP JUMP JUMPDEST PUSH0 DUP1 PUSH0 PUSH1 0x60 DUP5 DUP7 SUB SLT ISZERO PUSH2 0x331D JUMPI PUSH2 0x331C PUSH2 0x2E49 JUMP JUMPDEST JUMPDEST PUSH0 PUSH2 0x332A DUP7 DUP3 DUP8 ADD PUSH2 0x2FCD JUMP JUMPDEST SWAP4 POP POP PUSH1 0x20 PUSH2 0x333B DUP7 DUP3 DUP8 ADD PUSH2 0x2FCD JUMP JUMPDEST SWAP3 POP POP PUSH1 0x40 PUSH2 0x334C DUP7 DUP3 DUP8 ADD PUSH2 0x2FCD JUMP JUMPDEST SWAP2 POP POP SWAP3 POP SWAP3 POP SWAP3 JUMP JUMPDEST PUSH2 0x335F DUP2 PUSH2 0x2ED1 JUMP JUMPDEST DUP2 EQ PUSH2 0x3369 JUMPI PUSH0 DUP1 REVERT JUMPDEST POP JUMP JUMPDEST PUSH0 DUP2 CALLDATALOAD SWAP1 POP PUSH2 0x337A DUP2 PUSH2 0x3356 JUMP JUMPDEST SWAP3 SWAP2 POP POP JUMP JUMPDEST PUSH0 DUP1 PUSH1 0x40 DUP4 DUP6 SUB SLT ISZERO PUSH2 0x3396 JUMPI PUSH2 0x3395 PUSH2 0x2E49 JUMP JUMPDEST JUMPDEST PUSH0 PUSH2 0x33A3 DUP6 DUP3 DUP7 ADD PUSH2 0x307A JUMP JUMPDEST SWAP3 POP POP PUSH1 0x20 PUSH2 0x33B4 DUP6 DUP3 DUP7 ADD PUSH2 0x336C JUMP JUMPDEST SWAP2 POP POP SWAP3 POP SWAP3 SWAP1 POP JUMP JUMPDEST PUSH0 DUP1 REVERT JUMPDEST PUSH32 0x4E487B7100000000000000000000000000000000000000000000000000000000 PUSH0 MSTORE PUSH1 0x41 PUSH1 0x4 MSTORE PUSH1 0x24 PUSH0 REVERT JUMPDEST PUSH2 0x33F8 DUP3 PUSH2 0x2F46 JUMP JUMPDEST DUP2 ADD DUP2 DUP2 LT PUSH8 0xFFFFFFFFFFFFFFFF DUP3 GT OR ISZERO PUSH2 0x3417 JUMPI PUSH2 0x3416 PUSH2 0x33C2 JUMP JUMPDEST JUMPDEST DUP1 PUSH1 0x40 MSTORE POP POP POP JUMP JUMPDEST PUSH0 PUSH2 0x3429 PUSH2 0x2E40 JUMP JUMPDEST SWAP1 POP PUSH2 0x3435 DUP3 DUP3 PUSH2 0x33EF JUMP JUMPDEST SWAP2 SWAP1 POP JUMP JUMPDEST PUSH0 PUSH8 0xFFFFFFFFFFFFFFFF DUP3 GT ISZERO PUSH2 0x3454 JUMPI PUSH2 0x3453 PUSH2 0x33C2 JUMP JUMPDEST JUMPDEST PUSH2 0x345D DUP3 PUSH2 0x2F46 JUMP JUMPDEST SWAP1 POP PUSH1 0x20 DUP2 ADD SWAP1 POP SWAP2 SWAP1 POP JUMP JUMPDEST DUP3 DUP2 DUP4 CALLDATACOPY PUSH0 DUP4 DUP4 ADD MSTORE POP POP POP JUMP JUMPDEST PUSH0 PUSH2 0x348A PUSH2 0x3485 DUP5 PUSH2 0x343A JUMP JUMPDEST PUSH2 0x3420 JUMP JUMPDEST SWAP1 POP DUP3 DUP2 MSTORE PUSH1 0x20 DUP2 ADD DUP5 DUP5 DUP5 ADD GT ISZERO PUSH2 0x34A6 JUMPI PUSH2 0x34A5 PUSH2 0x33BE JUMP JUMPDEST JUMPDEST PUSH2 0x34B1 DUP5 DUP3 DUP6 PUSH2 0x346A JUMP JUMPDEST POP SWAP4 SWAP3 POP POP POP JUMP JUMPDEST PUSH0 DUP3 PUSH1 0x1F DUP4 ADD SLT PUSH2 0x34CD JUMPI PUSH2 0x34CC PUSH2 0x30CC JUMP JUMPDEST JUMPDEST DUP2 CALLDATALOAD PUSH2 0x34DD DUP5 DUP3 PUSH1 0x20 DUP7 ADD PUSH2 0x3478 JUMP JUMPDEST SWAP2 POP POP SWAP3 SWAP2 POP POP JUMP JUMPDEST PUSH0 PUSH1 0x20 DUP3 DUP5 SUB SLT ISZERO PUSH2 0x34FB JUMPI PUSH2 0x34FA PUSH2 0x2E49 JUMP JUMPDEST JUMPDEST PUSH0 DUP3 ADD CALLDATALOAD PUSH8 0xFFFFFFFFFFFFFFFF DUP2 GT ISZERO PUSH2 0x3518 JUMPI PUSH2 0x3517 PUSH2 0x2E4D JUMP JUMPDEST JUMPDEST PUSH2 0x3524 DUP5 DUP3 DUP6 ADD PUSH2 0x34B9 JUMP JUMPDEST SWAP2 POP POP SWAP3 SWAP2 POP POP JUMP JUMPDEST PUSH0 PUSH8 0xFFFFFFFFFFFFFFFF DUP3 GT ISZERO PUSH2 0x3547 JUMPI PUSH2 0x3546 PUSH2 0x33C2 JUMP JUMPDEST JUMPDEST PUSH2 0x3550 DUP3 PUSH2 0x2F46 JUMP JUMPDEST SWAP1 POP PUSH1 0x20 DUP2 ADD SWAP1 POP SWAP2 SWAP1 POP JUMP JUMPDEST PUSH0 PUSH2 0x356F PUSH2 0x356A DUP5 PUSH2 0x352D JUMP JUMPDEST PUSH2 0x3420 JUMP JUMPDEST SWAP1 POP DUP3 DUP2 MSTORE PUSH1 0x20 DUP2 ADD DUP5 DUP5 DUP5 ADD GT ISZERO PUSH2 0x358B JUMPI PUSH2 0x358A PUSH2 0x33BE JUMP JUMPDEST JUMPDEST PUSH2 0x3596 DUP5 DUP3 DUP6 PUSH2 0x346A JUMP JUMPDEST POP SWAP4 SWAP3 POP POP POP JUMP JUMPDEST PUSH0 DUP3 PUSH1 0x1F DUP4 ADD SLT PUSH2 0x35B2 JUMPI PUSH2 0x35B1 PUSH2 0x30CC JUMP JUMPDEST JUMPDEST DUP2 CALLDATALOAD PUSH2 0x35C2 DUP5 DUP3 PUSH1 0x20 DUP7 ADD PUSH2 0x355D JUMP JUMPDEST SWAP2 POP POP SWAP3 SWAP2 POP POP JUMP JUMPDEST PUSH0 DUP1 PUSH0 DUP1 PUSH1 0x80 DUP6 DUP8 SUB SLT ISZERO PUSH2 0x35E3 JUMPI PUSH2 0x35E2 PUSH2 0x2E49 JUMP JUMPDEST JUMPDEST PUSH0 PUSH2 0x35F0 DUP8 DUP3 DUP9 ADD PUSH2 0x307A JUMP JUMPDEST SWAP5 POP POP PUSH1 0x20 PUSH2 0x3601 DUP8 DUP3 DUP9 ADD PUSH2 0x307A JUMP JUMPDEST SWAP4 POP POP PUSH1 0x40 PUSH2 0x3612 DUP8 DUP3 DUP9 ADD PUSH2 0x2FCD JUMP JUMPDEST SWAP3 POP POP PUSH1 0x60 DUP6 ADD CALLDATALOAD PUSH8 0xFFFFFFFFFFFFFFFF DUP2 GT ISZERO PUSH2 0x3633 JUMPI PUSH2 0x3632 PUSH2 0x2E4D JUMP JUMPDEST JUMPDEST PUSH2 0x363F DUP8 DUP3 DUP9 ADD PUSH2 0x359E JUMP JUMPDEST SWAP2 POP POP SWAP3 SWAP6 SWAP2 SWAP5 POP SWAP3 POP JUMP JUMPDEST PUSH0 DUP1 PUSH1 0x40 DUP4 DUP6 SUB SLT ISZERO PUSH2 0x3661 JUMPI PUSH2 0x3660 PUSH2 0x2E49 JUMP JUMPDEST JUMPDEST PUSH0 PUSH2 0x366E DUP6 DUP3 DUP7 ADD PUSH2 0x307A JUMP JUMPDEST SWAP3 POP POP PUSH1 0x20 PUSH2 0x367F DUP6 DUP3 DUP7 ADD PUSH2 0x307A JUMP JUMPDEST SWAP2 POP POP SWAP3 POP SWAP3 SWAP1 POP JUMP JUMPDEST PUSH0 DUP1 PUSH0 PUSH1 0x60 DUP5 DUP7 SUB SLT ISZERO PUSH2 0x36A0 JUMPI PUSH2 0x369F PUSH2 0x2E49 JUMP JUMPDEST JUMPDEST PUSH0 PUSH2 0x36AD DUP7 DUP3 DUP8 ADD PUSH2 0x307A JUMP JUMPDEST SWAP4 POP POP PUSH1 0x20 PUSH2 0x36BE DUP7 DUP3 DUP8 ADD PUSH2 0x307A JUMP JUMPDEST SWAP3 POP POP PUSH1 0x40 PUSH2 0x36CF DUP7 DUP3 DUP8 ADD PUSH2 0x336C JUMP JUMPDEST SWAP2 POP POP SWAP3 POP SWAP3 POP SWAP3 JUMP JUMPDEST PUSH32 0x4E4F4E4558495354454E545F544F4B454E000000000000000000000000000000 PUSH0 DUP3 ADD MSTORE POP JUMP JUMPDEST PUSH0 PUSH2 0x370D PUSH1 0x11 DUP4 PUSH2 0x2F0E JUMP JUMPDEST SWAP2 POP PUSH2 0x3718 DUP3 PUSH2 0x36D9 JUMP JUMPDEST PUSH1 0x20 DUP3 ADD SWAP1 POP SWAP2 SWAP1 POP JUMP JUMPDEST PUSH0 PUSH1 0x20 DUP3 ADD SWAP1 POP DUP2 DUP2 SUB PUSH0 DUP4 ADD MSTORE PUSH2 0x373A DUP2 PUSH2 0x3701 JUMP JUMPDEST SWAP1 POP SWAP2 SWAP1 POP JUMP JUMPDEST PUSH32 0x554E415554484F52495A45445F415050524F56414C0000000000000000000000 PUSH0 DUP3 ADD MSTORE POP JUMP JUMPDEST PUSH0 PUSH2 0x3775 PUSH1 0x15 DUP4 PUSH2 0x2F0E JUMP JUMPDEST SWAP2 POP PUSH2 0x3780 DUP3 PUSH2 0x3741 JUMP JUMPDEST PUSH1 0x20 DUP3 ADD SWAP1 POP SWAP2 SWAP1 POP JUMP JUMPDEST PUSH0 PUSH1 0x20 DUP3 ADD SWAP1 POP DUP2 DUP2 SUB PUSH0 DUP4 ADD MSTORE PUSH2 0x37A2 DUP2 PUSH2 0x3769 JUMP JUMPDEST SWAP1 POP SWAP2 SWAP1 POP JUMP JUMPDEST PUSH32 0x4552433732315F5452414E534645525F52454A45435445440000000000000000 PUSH0 DUP3 ADD MSTORE POP JUMP JUMPDEST PUSH0 PUSH2 0x37DD PUSH1 0x18 DUP4 PUSH2 0x2F0E JUMP JUMPDEST SWAP2 POP PUSH2 0x37E8 DUP3 PUSH2 0x37A9 JUMP JUMPDEST PUSH1 0x20 DUP3 ADD SWAP1 POP SWAP2 SWAP1 POP JUMP JUMPDEST PUSH0 PUSH1 0x20 DUP3 ADD SWAP1 POP DUP2 DUP2 SUB PUSH0 DUP4 ADD MSTORE PUSH2 0x380A DUP2 PUSH2 0x37D1 JUMP JUMPDEST SWAP1 POP SWAP2 SWAP1 POP JUMP JUMPDEST PUSH32 0x5A45524F5F414444524553535F53454E44455200000000000000000000000000 PUSH0 DUP3 ADD MSTORE POP JUMP JUMPDEST PUSH0 PUSH2 0x3845 PUSH1 0x13 DUP4 PUSH2 0x2F0E JUMP JUMPDEST SWAP2 POP PUSH2 0x3850 DUP3 PUSH2 0x3811 JUMP JUMPDEST PUSH1 0x20 DUP3 ADD SWAP1 POP SWAP2 SWAP1 POP JUMP JUMPDEST PUSH0 PUSH1 0x20 DUP3 ADD SWAP1 POP DUP2 DUP2 SUB PUSH0 DUP4 ADD MSTORE PUSH2 0x3872 DUP2 PUSH2 0x3839 JUMP JUMPDEST SWAP1 POP SWAP2 SWAP1 POP JUMP JUMPDEST PUSH32 0x4F574E45525F4E4F545F53454E44455200000000000000000000000000000000 PUSH0 DUP3 ADD MSTORE POP JUMP JUMPDEST PUSH0 PUSH2 0x38AD PUSH1 0x10 DUP4 PUSH2 0x2F0E JUMP JUMPDEST SWAP2 POP PUSH2 0x38B8 DUP3 PUSH2 0x3879 JUMP JUMPDEST PUSH1 0x20 DUP3 ADD SWAP1 POP SWAP2 SWAP1 POP JUMP JUMPDEST PUSH0 PUSH1 0x20 DUP3 ADD SWAP1 POP DUP2 DUP2 SUB PUSH0 DUP4 ADD MSTORE PUSH2 0x38DA DUP2 PUSH2 0x38A1 JUMP JUMPDEST SWAP1 POP SWAP2 SWAP1 POP JUMP JUMPDEST PUSH32 0x4E487B7100000000000000000000000000000000000000000000000000000000 PUSH0 MSTORE PUSH1 0x32 PUSH1 0x4 MSTORE PUSH1 0x24 PUSH0 REVERT JUMPDEST PUSH32 0x4E487B7100000000000000000000000000000000000000000000000000000000 PUSH0 MSTORE PUSH1 0x11 PUSH1 0x4 MSTORE PUSH1 0x24 PUSH0 REVERT JUMPDEST PUSH0 PUSH2 0x3945 DUP3 PUSH2 0x2FAE JUMP JUMPDEST SWAP2 POP PUSH2 0x3950 DUP4 PUSH2 0x2FAE JUMP JUMPDEST SWAP3 POP DUP3 DUP3 ADD SWAP1 POP DUP1 DUP3 GT ISZERO PUSH2 0x3968 JUMPI PUSH2 0x3967 PUSH2 0x390E JUMP JUMPDEST JUMPDEST SWAP3 SWAP2 POP POP JUMP JUMPDEST PUSH0 PUSH2 0x3978 DUP3 PUSH2 0x2FAE JUMP JUMPDEST SWAP2 POP PUSH32 0xFFFFFFFFFFFFFFFFFFFFFFFFFFFFFFFFFFFFFFFFFFFFFFFFFFFFFFFFFFFFFFFF DUP3 SUB PUSH2 0x39AA JUMPI PUSH2 0x39A9 PUSH2 0x390E JUMP JUMPDEST JUMPDEST PUSH1 0x1 DUP3 ADD SWAP1 POP SWAP2 SWAP1 POP JUMP JUMPDEST PUSH32 0x4E4F4E4558495354414E545F544F4B454E000000000000000000000000000000 PUSH0 DUP3 ADD MSTORE POP JUMP JUMPDEST PUSH0 PUSH2 0x39E9 PUSH1 0x11 DUP4 PUSH2 0x2F0E JUMP JUMPDEST SWAP2 POP PUSH2 0x39F4 DUP3 PUSH2 0x39B5 JUMP JUMPDEST PUSH1 0x20 DUP3 ADD SWAP1 POP SWAP2 SWAP1 POP JUMP JUMPDEST PUSH0 PUSH1 0x20 DUP3 ADD SWAP1 POP DUP2 DUP2 SUB PUSH0 DUP4 ADD MSTORE PUSH2 0x3A16 DUP2 PUSH2 0x39DD JUMP JUMPDEST SWAP1 POP SWAP2 SWAP1 POP JUMP JUMPDEST PUSH32 0x5A45524F5F414444524553535F4F574E45520000000000000000000000000000 PUSH0 DUP3 ADD MSTORE POP JUMP JUMPDEST PUSH0 PUSH2 0x3A51 PUSH1 0x12 DUP4 PUSH2 0x2F0E JUMP JUMPDEST SWAP2 POP PUSH2 0x3A5C DUP3 PUSH2 0x3A1D JUMP JUMPDEST PUSH1 0x20 DUP3 ADD SWAP1 POP SWAP2 SWAP1 POP JUMP JUMPDEST PUSH0 PUSH1 0x20 DUP3 ADD SWAP1 POP DUP2 DUP2 SUB PUSH0 DUP4 ADD MSTORE PUSH2 0x3A7E DUP2 PUSH2 0x3A45 JUMP JUMPDEST SWAP1 POP SWAP2 SWAP1 POP JUMP JUMPDEST PUSH32 0x4E4F545F46524F4D5F5A45524F41444452455353000000000000000000000000 PUSH0 DUP3 ADD MSTORE POP JUMP JUMPDEST PUSH0 PUSH2 0x3AB9 PUSH1 0x14 DUP4 PUSH2 0x2F0E JUMP JUMPDEST SWAP2 POP PUSH2 0x3AC4 DUP3 PUSH2 0x3A85 JUMP JUMPDEST PUSH1 0x20 DUP3 ADD SWAP1 POP SWAP2 SWAP1 POP JUMP JUMPDEST PUSH0 PUSH1 0x20 DUP3 ADD SWAP1 POP DUP2 DUP2 SUB PUSH0 DUP4 ADD MSTORE PUSH2 0x3AE6 DUP2 PUSH2 0x3AAD JUMP JUMPDEST SWAP1 POP SWAP2 SWAP1 POP JUMP JUMPDEST PUSH32 0x554E415554484F52495A45445F4255524E000000000000000000000000000000 PUSH0 DUP3 ADD MSTORE POP JUMP JUMPDEST PUSH0 PUSH2 0x3B21 PUSH1 0x11 DUP4 PUSH2 0x2F0E JUMP JUMPDEST SWAP2 POP PUSH2 0x3B2C DUP3 PUSH2 0x3AED JUMP JUMPDEST PUSH1 0x20 DUP3 ADD SWAP1 POP SWAP2 SWAP1 POP JUMP JUMPDEST PUSH0 PUSH1 0x20 DUP3 ADD SWAP1 POP DUP2 DUP2 SUB PUSH0 DUP4 ADD MSTORE PUSH2 0x3B4E DUP2 PUSH2 0x3B15 JUMP JUMPDEST SWAP1 POP SWAP2 SWAP1 POP JUMP JUMPDEST PUSH0 DUP2 SWAP1 POP SWAP2 SWAP1 POP JUMP JUMPDEST PUSH0 PUSH2 0x3B68 DUP3 PUSH2 0x3B55 JUMP JUMPDEST SWAP2 POP PUSH2 0x3B73 DUP4 PUSH2 0x3B55 JUMP JUMPDEST SWAP3 POP DUP3 DUP3 MUL PUSH2 0x3B81 DUP2 PUSH2 0x3B55 JUMP JUMPDEST SWAP2 POP PUSH32 0x8000000000000000000000000000000000000000000000000000000000000000 DUP5 EQ PUSH0 DUP5 SLT AND ISZERO PUSH2 0x3BB8 JUMPI PUSH2 0x3BB7 PUSH2 0x390E JUMP JUMPDEST JUMPDEST DUP3 DUP3 SDIV DUP5 EQ DUP4 ISZERO OR PUSH2 0x3BCD JUMPI PUSH2 0x3BCC PUSH2 0x390E JUMP JUMPDEST JUMPDEST POP SWAP3 SWAP2 POP POP JUMP JUMPDEST PUSH0 PUSH2 0x3BDE DUP3 PUSH2 0x3B55 JUMP JUMPDEST SWAP2 POP PUSH2 0x3BE9 DUP4 PUSH2 0x3B55 JUMP JUMPDEST SWAP3 POP DUP3 DUP3 ADD SWAP1 POP DUP3 DUP2 SLT ISZERO PUSH0 DUP4 SLT AND DUP4 DUP3 SLT PUSH0 DUP5 SLT ISZERO AND OR ISZERO PUSH2 0x3C0F JUMPI PUSH2 0x3C0E PUSH2 0x390E JUMP JUMPDEST JUMPDEST SWAP3 SWAP2 POP POP JUMP JUMPDEST PUSH32 0x4E487B7100000000000000000000000000000000000000000000000000000000 PUSH0 MSTORE PUSH1 0x12 PUSH1 0x4 MSTORE PUSH1 0x24 PUSH0 REVERT JUMPDEST PUSH0 PUSH2 0x3C4C DUP3 PUSH2 0x3B55 JUMP JUMPDEST SWAP2 POP PUSH2 0x3C57 DUP4 PUSH2 0x3B55 JUMP JUMPDEST SWAP3 POP DUP3 PUSH2 0x3C67 JUMPI PUSH2 0x3C66 PUSH2 0x3C15 JUMP JUMPDEST JUMPDEST PUSH1 0x1 PUSH0 SUB DUP4 EQ PUSH32 0x8000000000000000000000000000000000000000000000000000000000000000 DUP4 EQ AND ISZERO PUSH2 0x3C9F JUMPI PUSH2 0x3C9E PUSH2 0x390E JUMP JUMPDEST JUMPDEST DUP3 DUP3 SDIV SWAP1 POP SWAP3 SWAP2 POP POP JUMP JUMPDEST PUSH0 PUSH2 0x3CB4 DUP3 PUSH2 0x2FAE JUMP JUMPDEST SWAP2 POP PUSH2 0x3CBF DUP4 PUSH2 0x2FAE JUMP JUMPDEST SWAP3 POP DUP3 PUSH2 0x3CCF JUMPI PUSH2 0x3CCE PUSH2 0x3C15 JUMP JUMPDEST JUMPDEST DUP3 DUP3 MOD SWAP1 POP SWAP3 SWAP2 POP POP JUMP JUMPDEST PUSH32 0x4E487B7100000000000000000000000000000000000000000000000000000000 PUSH0 MSTORE PUSH1 0x22 PUSH1 0x4 MSTORE PUSH1 0x24 PUSH0 REVERT JUMPDEST PUSH0 PUSH1 0x2 DUP3 DIV SWAP1 POP PUSH1 0x1 DUP3 AND DUP1 PUSH2 0x3D1E JUMPI PUSH1 0x7F DUP3 AND SWAP2 POP JUMPDEST PUSH1 0x20 DUP3 LT DUP2 SUB PUSH2 0x3D31 JUMPI PUSH2 0x3D30 PUSH2 0x3CDA JUMP JUMPDEST JUMPDEST POP SWAP2 SWAP1 POP JUMP JUMPDEST PUSH0 DUP2 SWAP1 POP DUP2 PUSH0 MSTORE PUSH1 0x20 PUSH0 KECCAK256 SWAP1 POP SWAP2 SWAP1 POP JUMP JUMPDEST PUSH0 PUSH1 0x20 PUSH1 0x1F DUP4 ADD DIV SWAP1 POP SWAP2 SWAP1 POP JUMP JUMPDEST PUSH0 DUP3 DUP3 SHL SWAP1 POP SWAP3 SWAP2 POP POP JUMP JUMPDEST PUSH0 PUSH1 0x8 DUP4 MUL PUSH2 0x3D93 PUSH32 0xFFFFFFFFFFFFFFFFFFFFFFFFFFFFFFFFFFFFFFFFFFFFFFFFFFFFFFFFFFFFFFFF DUP3 PUSH2 0x3D58 JUMP JUMPDEST PUSH2 0x3D9D DUP7 DUP4 PUSH2 0x3D58 JUMP JUMPDEST SWAP6 POP DUP1 NOT DUP5 AND SWAP4 POP DUP1 DUP7 AND DUP5 OR SWAP3 POP POP POP SWAP4 SWAP3 POP POP POP JUMP JUMPDEST PUSH0 DUP2 SWAP1 POP SWAP2 SWAP1 POP JUMP JUMPDEST PUSH0 PUSH2 0x3DD8 PUSH2 0x3DD3 PUSH2 0x3DCE DUP5 PUSH2 0x2FAE JUMP JUMPDEST PUSH2 0x3DB5 JUMP JUMPDEST PUSH2 0x2FAE JUMP JUMPDEST SWAP1 POP SWAP2 SWAP1 POP JUMP JUMPDEST PUSH0 DUP2 SWAP1 POP SWAP2 SWAP1 POP JUMP JUMPDEST PUSH2 0x3DF1 DUP4 PUSH2 0x3DBE JUMP JUMPDEST PUSH2 0x3E05 PUSH2 0x3DFD DUP3 PUSH2 0x3DDF JUMP JUMPDEST DUP5 DUP5 SLOAD PUSH2 0x3D64 JUMP JUMPDEST DUP3 SSTORE POP POP POP POP JUMP JUMPDEST PUSH0 SWAP1 JUMP JUMPDEST PUSH2 0x3E19 PUSH2 0x3E0D JUMP JUMPDEST PUSH2 0x3E24 DUP2 DUP5 DUP5 PUSH2 0x3DE8 JUMP JUMPDEST POP POP POP JUMP JUMPDEST JUMPDEST DUP2 DUP2 LT ISZERO PUSH2 0x3E47 JUMPI PUSH2 0x3E3C PUSH0 DUP3 PUSH2 0x3E11 JUMP JUMPDEST PUSH1 0x1 DUP2 ADD SWAP1 POP PUSH2 0x3E2A JUMP JUMPDEST POP POP JUMP JUMPDEST PUSH1 0x1F DUP3 GT ISZERO PUSH2 0x3E8C JUMPI PUSH2 0x3E5D DUP2 PUSH2 0x3D37 JUMP JUMPDEST PUSH2 0x3E66 DUP5 PUSH2 0x3D49 JUMP JUMPDEST DUP2 ADD PUSH1 0x20 DUP6 LT ISZERO PUSH2 0x3E75 JUMPI DUP2 SWAP1 POP JUMPDEST PUSH2 0x3E89 PUSH2 0x3E81 DUP6 PUSH2 0x3D49 JUMP JUMPDEST DUP4 ADD DUP3 PUSH2 0x3E29 JUMP JUMPDEST POP POP JUMPDEST POP POP POP JUMP JUMPDEST PUSH0 DUP3 DUP3 SHR SWAP1 POP SWAP3 SWAP2 POP POP JUMP JUMPDEST PUSH0 PUSH2 0x3EAC PUSH0 NOT DUP5 PUSH1 0x8 MUL PUSH2 0x3E91 JUMP JUMPDEST NOT DUP1 DUP4 AND SWAP2 POP POP SWAP3 SWAP2 POP POP JUMP JUMPDEST PUSH0 PUSH2 0x3EC4 DUP4 DUP4 PUSH2 0x3E9D JUMP JUMPDEST SWAP2 POP DUP3 PUSH1 0x2 MUL DUP3 OR SWAP1 POP SWAP3 SWAP2 POP POP JUMP JUMPDEST PUSH2 0x3EDD DUP3 PUSH2 0x2F04 JUMP JUMPDEST PUSH8 0xFFFFFFFFFFFFFFFF DUP2 GT ISZERO PUSH2 0x3EF6 JUMPI PUSH2 0x3EF5 PUSH2 0x33C2 JUMP JUMPDEST JUMPDEST PUSH2 0x3F00 DUP3 SLOAD PUSH2 0x3D07 JUMP JUMPDEST PUSH2 0x3F0B DUP3 DUP3 DUP6 PUSH2 0x3E4B JUMP JUMPDEST PUSH0 PUSH1 0x20 SWAP1 POP PUSH1 0x1F DUP4 GT PUSH1 0x1 DUP2 EQ PUSH2 0x3F3C JUMPI PUSH0 DUP5 ISZERO PUSH2 0x3F2A JUMPI DUP3 DUP8 ADD MLOAD SWAP1 POP JUMPDEST PUSH2 0x3F34 DUP6 DUP3 PUSH2 0x3EB9 JUMP JUMPDEST DUP7 SSTORE POP PUSH2 0x3F9B JUMP JUMPDEST PUSH1 0x1F NOT DUP5 AND PUSH2 0x3F4A DUP7 PUSH2 0x3D37 JUMP JUMPDEST PUSH0 JUMPDEST DUP3 DUP2 LT ISZERO PUSH2 0x3F71 JUMPI DUP5 DUP10 ADD MLOAD DUP3 SSTORE PUSH1 0x1 DUP3 ADD SWAP2 POP PUSH1 0x20 DUP6 ADD SWAP5 POP PUSH1 0x20 DUP2 ADD SWAP1 POP PUSH2 0x3F4C JUMP JUMPDEST DUP7 DUP4 LT ISZERO PUSH2 0x3F8E JUMPI DUP5 DUP10 ADD MLOAD PUSH2 0x3F8A PUSH1 0x1F DUP10 AND DUP3 PUSH2 0x3E9D JUMP JUMPDEST DUP4 SSTORE POP JUMPDEST PUSH1 0x1 PUSH1 0x2 DUP9 MUL ADD DUP9 SSTORE POP POP POP JUMPDEST POP POP POP POP POP POP JUMP JUMPDEST PUSH0 DUP2 SWAP1 POP SWAP3 SWAP2 POP POP JUMP JUMPDEST PUSH32 0x646174613A746578742F706C61696E2C7B226E616D65223A22546F6B656E2000 PUSH0 DUP3 ADD MSTORE POP JUMP JUMPDEST PUSH0 PUSH2 0x3FE1 PUSH1 0x1F DUP4 PUSH2 0x3FA3 JUMP JUMPDEST SWAP2 POP PUSH2 0x3FEC DUP3 PUSH2 0x3FAD JUMP JUMPDEST PUSH1 0x1F DUP3 ADD SWAP1 POP SWAP2 SWAP1 POP JUMP JUMPDEST PUSH0 PUSH2 0x4001 DUP3 PUSH2 0x2F04 JUMP JUMPDEST PUSH2 0x400B DUP2 DUP6 PUSH2 0x3FA3 JUMP JUMPDEST SWAP4 POP PUSH2 0x401B DUP2 DUP6 PUSH1 0x20 DUP7 ADD PUSH2 0x2F1E JUMP JUMPDEST DUP1 DUP5 ADD SWAP2 POP POP SWAP3 SWAP2 POP POP JUMP JUMPDEST PUSH32 0x222C226465736372697074696F6E223A22000000000000000000000000000000 PUSH0 DUP3 ADD MSTORE POP JUMP JUMPDEST PUSH0 PUSH2 0x405B PUSH1 0x11 DUP4 PUSH2 0x3FA3 JUMP JUMPDEST SWAP2 POP PUSH2 0x4066 DUP3 PUSH2 0x4027 JUMP JUMPDEST PUSH1 0x11 DUP3 ADD SWAP1 POP SWAP2 SWAP1 POP JUMP JUMPDEST PUSH32 0x222C227374617465223A00000000000000000000000000000000000000000000 PUSH0 DUP3 ADD MSTORE POP JUMP JUMPDEST PUSH0 PUSH2 0x40A5 PUSH1 0xA DUP4 PUSH2 0x3FA3 JUMP JUMPDEST SWAP2 POP PUSH2 0x40B0 DUP3 PUSH2 0x4071 JUMP JUMPDEST PUSH1 0xA DUP3 ADD SWAP1 POP SWAP2 SWAP1 POP JUMP JUMPDEST PUSH32 0x317D000000000000000000000000000000000000000000000000000000000000 PUSH0 DUP3 ADD MSTORE POP JUMP JUMPDEST PUSH0 PUSH2 0x40EF PUSH1 0x2 DUP4 PUSH2 0x3FA3 JUMP JUMPDEST SWAP2 POP PUSH2 0x40FA DUP3 PUSH2 0x40BB JUMP JUMPDEST PUSH1 0x2 DUP3 ADD SWAP1 POP SWAP2 SWAP1 POP JUMP JUMPDEST PUSH0 PUSH2 0x410F DUP3 PUSH2 0x3FD5 JUMP JUMPDEST SWAP2 POP PUSH2 0x411B DUP3 DUP7 PUSH2 0x3FF7 JUMP JUMPDEST SWAP2 POP PUSH2 0x4126 DUP3 PUSH2 0x404F JUMP JUMPDEST SWAP2 POP PUSH2 0x4132 DUP3 DUP6 PUSH2 0x3FF7 JUMP JUMPDEST SWAP2 POP PUSH2 0x413D DUP3 PUSH2 0x4099 JUMP JUMPDEST SWAP2 POP PUSH2 0x4149 DUP3 DUP5 PUSH2 0x3FF7 JUMP JUMPDEST SWAP2 POP PUSH2 0x4154 DUP3 PUSH2 0x40E3 JUMP JUMPDEST SWAP2 POP DUP2 SWAP1 POP SWAP5 SWAP4 POP POP POP POP JUMP JUMPDEST PUSH32 0x496E76616C69642073656E646572206164647265737300000000000000000000 PUSH0 DUP3 ADD MSTORE POP JUMP JUMPDEST PUSH0 PUSH2 0x4195 PUSH1 0x16 DUP4 PUSH2 0x2F0E JUMP JUMPDEST SWAP2 POP PUSH2 0x41A0 DUP3 PUSH2 0x4161 JUMP JUMPDEST PUSH1 0x20 DUP3 ADD SWAP1 POP SWAP2 SWAP1 POP JUMP JUMPDEST PUSH0 PUSH1 0x20 DUP3 ADD SWAP1 POP DUP2 DUP2 SUB PUSH0 DUP4 ADD MSTORE PUSH2 0x41C2 DUP2 PUSH2 0x4189 JUMP JUMPDEST SWAP1 POP SWAP2 SWAP1 POP JUMP JUMPDEST PUSH32 0x554E415554484F52495A45445F415050524F56455F464F525F414C4C00000000 PUSH0 DUP3 ADD MSTORE POP JUMP JUMPDEST PUSH0 PUSH2 0x41FD PUSH1 0x1C DUP4 PUSH2 0x2F0E JUMP JUMPDEST SWAP2 POP PUSH2 0x4208 DUP3 PUSH2 0x41C9 JUMP JUMPDEST PUSH1 0x20 DUP3 ADD SWAP1 POP SWAP2 SWAP1 POP JUMP JUMPDEST PUSH0 PUSH1 0x20 DUP3 ADD SWAP1 POP DUP2 DUP2 SUB PUSH0 DUP4 ADD MSTORE PUSH2 0x422A DUP2 PUSH2 0x41F1 JUMP JUMPDEST SWAP1 POP SWAP2 SWAP1 POP JUMP JUMPDEST PUSH0 PUSH2 0x423B DUP3 PUSH2 0x2FAE JUMP JUMPDEST SWAP2 POP PUSH2 0x4246 DUP4 PUSH2 0x2FAE JUMP JUMPDEST SWAP3 POP DUP3 PUSH2 0x4256 JUMPI PUSH2 0x4255 PUSH2 0x3C15 JUMP JUMPDEST JUMPDEST DUP3 DUP3 DIV SWAP1 POP SWAP3 SWAP2 POP POP JUMP JUMPDEST PUSH32 0x4E4F545F544F5F5A45524F414444524553530000000000000000000000000000 PUSH0 DUP3 ADD MSTORE POP JUMP JUMPDEST PUSH0 PUSH2 0x4295 PUSH1 0x12 DUP4 PUSH2 0x2F0E JUMP JUMPDEST SWAP2 POP PUSH2 0x42A0 DUP3 PUSH2 0x4261 JUMP JUMPDEST PUSH1 0x20 DUP3 ADD SWAP1 POP SWAP2 SWAP1 POP JUMP JUMPDEST PUSH0 PUSH1 0x20 DUP3 ADD SWAP1 POP DUP2 DUP2 SUB PUSH0 DUP4 ADD MSTORE PUSH2 0x42C2 DUP2 PUSH2 0x4289 JUMP JUMPDEST SWAP1 POP SWAP2 SWAP1 POP JUMP JUMPDEST PUSH32 0x42415443485452414E5346455246524F4D5F4E4F545F4F574E45520000000000 PUSH0 DUP3 ADD MSTORE POP JUMP JUMPDEST PUSH0 PUSH2 0x42FD PUSH1 0x1B DUP4 PUSH2 0x2F0E JUMP JUMPDEST SWAP2 POP PUSH2 0x4308 DUP3 PUSH2 0x42C9 JUMP JUMPDEST PUSH1 0x20 DUP3 ADD SWAP1 POP SWAP2 SWAP1 POP JUMP JUMPDEST PUSH0 PUSH1 0x20 DUP3 ADD SWAP1 POP DUP2 DUP2 SUB PUSH0 DUP4 ADD MSTORE PUSH2 0x432A DUP2 PUSH2 0x42F1 JUMP JUMPDEST SWAP1 POP SWAP2 SWAP1 POP JUMP JUMPDEST PUSH32 0x4E4F545F415554484F52495A4544000000000000000000000000000000000000 PUSH0 DUP3 ADD MSTORE POP JUMP JUMPDEST PUSH0 PUSH2 0x4365 PUSH1 0xE DUP4 PUSH2 0x2F0E JUMP JUMPDEST SWAP2 POP PUSH2 0x4370 DUP3 PUSH2 0x4331 JUMP JUMPDEST PUSH1 0x20 DUP3 ADD SWAP1 POP SWAP2 SWAP1 POP JUMP JUMPDEST PUSH0 PUSH1 0x20 DUP3 ADD SWAP1 POP DUP2 DUP2 SUB PUSH0 DUP4 ADD MSTORE PUSH2 0x4392 DUP2 PUSH2 0x4359 JUMP JUMPDEST SWAP1 POP SWAP2 SWAP1 POP JUMP JUMPDEST PUSH0 PUSH2 0x43A3 DUP3 PUSH2 0x2FAE JUMP JUMPDEST SWAP2 POP PUSH2 0x43AE DUP4 PUSH2 0x2FAE JUMP JUMPDEST SWAP3 POP DUP3 DUP3 SUB SWAP1 POP DUP2 DUP2 GT ISZERO PUSH2 0x43C6 JUMPI PUSH2 0x43C5 PUSH2 0x390E JUMP JUMPDEST JUMPDEST SWAP3 SWAP2 POP POP JUMP JUMPDEST PUSH32 0x4552433732315F42415443485F5452414E534645525F52454A45435445440000 PUSH0 DUP3 ADD MSTORE POP JUMP JUMPDEST PUSH0 PUSH2 0x4400 PUSH1 0x1E DUP4 PUSH2 0x2F0E JUMP JUMPDEST SWAP2 POP PUSH2 0x440B DUP3 PUSH2 0x43CC JUMP JUMPDEST PUSH1 0x20 DUP3 ADD SWAP1 POP SWAP2 SWAP1 POP JUMP JUMPDEST PUSH0 PUSH1 0x20 DUP3 ADD SWAP1 POP DUP2 DUP2 SUB PUSH0 DUP4 ADD MSTORE PUSH2 0x442D DUP2 PUSH2 0x43F4 JUMP JUMPDEST SWAP1 POP SWAP2 SWAP1 POP JUMP JUMPDEST PUSH32 0x434845434B5452414E534645525F4E4F545F4F574E4552000000000000000000 PUSH0 DUP3 ADD MSTORE POP JUMP JUMPDEST PUSH0 PUSH2 0x4468 PUSH1 0x17 DUP4 PUSH2 0x2F0E JUMP JUMPDEST SWAP2 POP PUSH2 0x4473 DUP3 PUSH2 0x4434 JUMP JUMPDEST PUSH1 0x20 DUP3 ADD SWAP1 POP SWAP2 SWAP1 POP JUMP JUMPDEST PUSH0 PUSH1 0x20 DUP3 ADD SWAP1 POP DUP2 DUP2 SUB PUSH0 DUP4 ADD MSTORE PUSH2 0x4495 DUP2 PUSH2 0x445C JUMP JUMPDEST SWAP1 POP SWAP2 SWAP1 POP JUMP JUMPDEST PUSH32 0x554E415554484F52495A45445F5452414E534645520000000000000000000000 PUSH0 DUP3 ADD MSTORE POP JUMP JUMPDEST PUSH0 PUSH2 0x44D0 PUSH1 0x15 DUP4 PUSH2 0x2F0E JUMP JUMPDEST SWAP2 POP PUSH2 0x44DB DUP3 PUSH2 0x449C JUMP JUMPDEST PUSH1 0x20 DUP3 ADD SWAP1 POP SWAP2 SWAP1 POP JUMP JUMPDEST PUSH0 PUSH1 0x20 DUP3 ADD SWAP1 POP DUP2 DUP2 SUB PUSH0 DUP4 ADD MSTORE PUSH2 0x44FD DUP2 PUSH2 0x44C4 JUMP JUMPDEST SWAP1 POP SWAP2 SWAP1 POP JUMP JUMPDEST PUSH0 PUSH2 0x450E DUP3 PUSH2 0x2FAE JUMP JUMPDEST SWAP2 POP PUSH0 DUP3 SUB PUSH2 0x4520 JUMPI PUSH2 0x451F PUSH2 0x390E JUMP JUMPDEST JUMPDEST PUSH1 0x1 DUP3 SUB SWAP1 POP SWAP2 SWAP1 POP JUMP JUMPDEST PUSH2 0x4534 DUP2 PUSH2 0x2E51 JUMP JUMPDEST DUP3 MSTORE POP POP JUMP JUMPDEST PUSH0 PUSH1 0x20 DUP3 ADD SWAP1 POP PUSH2 0x454D PUSH0 DUP4 ADD DUP5 PUSH2 0x452B JUMP JUMPDEST SWAP3 SWAP2 POP POP JUMP JUMPDEST PUSH32 0x4E487B7100000000000000000000000000000000000000000000000000000000 PUSH0 MSTORE PUSH1 0x1 PUSH1 0x4 MSTORE PUSH1 0x24 PUSH0 REVERT JUMPDEST PUSH0 DUP2 MLOAD SWAP1 POP SWAP2 SWAP1 POP JUMP JUMPDEST PUSH0 DUP3 DUP3 MSTORE PUSH1 0x20 DUP3 ADD SWAP1 POP SWAP3 SWAP2 POP POP JUMP JUMPDEST PUSH0 PUSH2 0x45A4 DUP3 PUSH2 0x4580 JUMP JUMPDEST PUSH2 0x45AE DUP2 DUP6 PUSH2 0x458A JUMP JUMPDEST SWAP4 POP PUSH2 0x45BE DUP2 DUP6 PUSH1 0x20 DUP7 ADD PUSH2 0x2F1E JUMP JUMPDEST PUSH2 0x45C7 DUP2 PUSH2 0x2F46 JUMP JUMPDEST DUP5 ADD SWAP2 POP POP SWAP3 SWAP2 POP POP JUMP JUMPDEST PUSH0 PUSH1 0x80 DUP3 ADD SWAP1 POP PUSH2 0x45E5 PUSH0 DUP4 ADD DUP8 PUSH2 0x303C JUMP JUMPDEST PUSH2 0x45F2 PUSH1 0x20 DUP4 ADD DUP7 PUSH2 0x303C JUMP JUMPDEST PUSH2 0x45FF PUSH1 0x40 DUP4 ADD DUP6 PUSH2 0x32DE JUMP JUMPDEST DUP2 DUP2 SUB PUSH1 0x60 DUP4 ADD MSTORE PUSH2 0x4611 DUP2 DUP5 PUSH2 0x459A JUMP JUMPDEST SWAP1 POP SWAP6 SWAP5 POP POP POP POP POP JUMP JUMPDEST PUSH0 DUP2 MLOAD SWAP1 POP PUSH2 0x462A DUP2 PUSH2 0x2E7C JUMP JUMPDEST SWAP3 SWAP2 POP POP JUMP JUMPDEST PUSH0 PUSH1 0x20 DUP3 DUP5 SUB SLT ISZERO PUSH2 0x4645 JUMPI PUSH2 0x4644 PUSH2 0x2E49 JUMP JUMPDEST JUMPDEST PUSH0 PUSH2 0x4652 DUP5 DUP3 DUP6 ADD PUSH2 0x461C JUMP JUMPDEST SWAP2 POP POP SWAP3 SWAP2 POP POP JUMP JUMPDEST PUSH32 0x4E4F545F4F574E45520000000000000000000000000000000000000000000000 PUSH0 DUP3 ADD MSTORE POP JUMP JUMPDEST PUSH0 PUSH2 0x468F PUSH1 0x9 DUP4 PUSH2 0x2F0E JUMP JUMPDEST SWAP2 POP PUSH2 0x469A DUP3 PUSH2 0x465B JUMP JUMPDEST PUSH1 0x20 DUP3 ADD SWAP1 POP SWAP2 SWAP1 POP JUMP JUMPDEST PUSH0 PUSH1 0x20 DUP3 ADD SWAP1 POP DUP2 DUP2 SUB PUSH0 DUP4 ADD MSTORE PUSH2 0x46BC DUP2 PUSH2 0x4683 JUMP JUMPDEST SWAP1 POP SWAP2 SWAP1 POP JUMP JUMPDEST PUSH32 0x414C52454144595F4D494E544544000000000000000000000000000000000000 PUSH0 DUP3 ADD MSTORE POP JUMP JUMPDEST PUSH0 PUSH2 0x46F7 PUSH1 0xE DUP4 PUSH2 0x2F0E JUMP JUMPDEST SWAP2 POP PUSH2 0x4702 DUP3 PUSH2 0x46C3 JUMP JUMPDEST PUSH1 0x20 DUP3 ADD SWAP1 POP SWAP2 SWAP1 POP JUMP JUMPDEST PUSH0 PUSH1 0x20 DUP3 ADD SWAP1 POP DUP2 DUP2 SUB PUSH0 DUP4 ADD MSTORE PUSH2 0x4724 DUP2 PUSH2 0x46EB JUMP JUMPDEST SWAP1 POP SWAP2 SWAP1 POP JUMP JUMPDEST PUSH0 DUP2 MLOAD SWAP1 POP SWAP2 SWAP1 POP JUMP JUMPDEST PUSH0 DUP3 DUP3 MSTORE PUSH1 0x20 DUP3 ADD SWAP1 POP SWAP3 SWAP2 POP POP JUMP JUMPDEST PUSH0 DUP2 SWAP1 POP PUSH1 0x20 DUP3 ADD SWAP1 POP SWAP2 SWAP1 POP JUMP JUMPDEST PUSH2 0x475D DUP2 PUSH2 0x2FAE JUMP JUMPDEST DUP3 MSTORE POP POP JUMP JUMPDEST PUSH0 PUSH2 0x476E DUP4 DUP4 PUSH2 0x4754 JUMP JUMPDEST PUSH1 0x20 DUP4 ADD SWAP1 POP SWAP3 SWAP2 POP POP JUMP JUMPDEST PUSH0 PUSH1 0x20 DUP3 ADD SWAP1 POP SWAP2 SWAP1 POP JUMP JUMPDEST PUSH0 PUSH2 0x4790 DUP3 PUSH2 0x472B JUMP JUMPDEST PUSH2 0x479A DUP2 DUP6 PUSH2 0x4735 JUMP JUMPDEST SWAP4 POP PUSH2 0x47A5 DUP4 PUSH2 0x4745 JUMP JUMPDEST DUP1 PUSH0 JUMPDEST DUP4 DUP2 LT ISZERO PUSH2 0x47D5 JUMPI DUP2 MLOAD PUSH2 0x47BC DUP9 DUP3 PUSH2 0x4763 JUMP JUMPDEST SWAP8 POP PUSH2 0x47C7 DUP4 PUSH2 0x477A JUMP JUMPDEST SWAP3 POP POP PUSH1 0x1 DUP2 ADD SWAP1 POP PUSH2 0x47A8 JUMP JUMPDEST POP DUP6 SWAP4 POP POP POP POP SWAP3 SWAP2 POP POP JUMP JUMPDEST PUSH0 PUSH1 0x80 DUP3 ADD SWAP1 POP PUSH2 0x47F5 PUSH0 DUP4 ADD DUP8 PUSH2 0x303C JUMP JUMPDEST PUSH2 0x4802 PUSH1 0x20 DUP4 ADD DUP7 PUSH2 0x303C JUMP JUMPDEST DUP2 DUP2 SUB PUSH1 0x40 DUP4 ADD MSTORE PUSH2 0x4814 DUP2 DUP6 PUSH2 0x4786 JUMP JUMPDEST SWAP1 POP DUP2 DUP2 SUB PUSH1 0x60 DUP4 ADD MSTORE PUSH2 0x4828 DUP2 DUP5 PUSH2 0x459A JUMP JUMPDEST SWAP1 POP SWAP6 SWAP5 POP POP POP POP POP JUMP INVALID LOG2 PUSH5 0x6970667358 0x22 SLT KECCAK256 SGT PUSH26 0xFCB52741D2562C023DCC84788859137F2D256573B6272841EFA7 0xC0 0xF LOG1 0xE PUSH5 0x736F6C6343 STOP ADDMOD EQ STOP CALLER "
    },
    "gasEstimates": {
      "creation": {
        "codeDepositCost": "3707400",
        "executionCost": "infinite",
        "totalCost": "infinite"
      },
      "external": {
        "approve(address,uint256)": "infinite",
        "approveFor(address,address,uint256)": "infinite",
        "balanceOf(address)": "2887",
        "batchTransferFrom(address,address,uint256[],bytes)": "infinite",
        "burn(uint256)": "infinite",
        "burnFrom(address,uint256)": "infinite",
        "getApproved(uint256)": "infinite",
        "initneural(uint256,uint256)": "infinite",
        "isApprovedForAll(address,address)": "infinite",
        "mint(uint256)": "infinite",
        "name()": "infinite",
        "ownerOf(uint256)": "3172",
        "postUpgrade(string)": "infinite",
        "safeBatchTransferFrom(address,address,uint256[],bytes)": "infinite",
        "safeTransferFrom(address,address,uint256)": "infinite",
        "safeTransferFrom(address,address,uint256,bytes)": "infinite",
        "setApprovalForAll(address,bool)": "infinite",
        "setApprovalForAllFor(address,address,bool)": "infinite",
        "supportsInterface(bytes4)": "736",
        "symbol()": "infinite",
        "test(uint256,uint256)": "infinite",
        "tokenURI(uint256)": "infinite",
        "trainer(uint256,uint256,uint256)": "infinite",
        "transferFrom(address,address,uint256)": "infinite"
      },
      "internal": {
        "uint2str(uint256)": "infinite"
      }
    },
    "methodIdentifiers": {
      "approve(address,uint256)": "095ea7b3",
      "approveFor(address,address,uint256)": "2b991746",
      "balanceOf(address)": "70a08231",
      "batchTransferFrom(address,address,uint256[],bytes)": "15ddc535",
      "burn(uint256)": "42966c68",
      "burnFrom(address,uint256)": "79cc6790",
      "getApproved(uint256)": "081812fc",
      "initneural(uint256,uint256)": "2bb0b304",
      "isApprovedForAll(address,address)": "e985e9c5",
      "mint(uint256)": "a0712d68",
      "name()": "06fdde03",
      "ownerOf(uint256)": "6352211e",
      "postUpgrade(string)": "b1441ce6",
      "safeBatchTransferFrom(address,address,uint256[],bytes)": "28cfbd46",
      "safeTransferFrom(address,address,uint256)": "42842e0e",
      "safeTransferFrom(address,address,uint256,bytes)": "b88d4fde",
      "setApprovalForAll(address,bool)": "a22cb465",
      "setApprovalForAllFor(address,address,bool)": "eeb5a5d1",
      "supportsInterface(bytes4)": "01ffc9a7",
      "symbol()": "95d89b41",
      "test(uint256,uint256)": "eb8ac921",
      "tokenURI(uint256)": "c87b56dd",
      "trainer(uint256,uint256,uint256)": "8cb8a0f7",
      "transferFrom(address,address,uint256)": "23b872dd"
    }
  },
  "storageLayout": {
    "storage": [
      {
        "astId": 715,
        "contract": "src/Neuro721.sol:Neuro721",
        "label": "_numNFTPerAddress",
        "offset": 0,
        "slot": "0",
        "type": "t_mapping(t_address,t_uint256)"
      },
      {
        "astId": 719,
        "contract": "src/Neuro721.sol:Neuro721",
        "label": "_owners",
        "offset": 0,
        "slot": "1",
        "type": "t_mapping(t_uint256,t_uint256)"
      },
      {
        "astId": 725,
        "contract": "src/Neuro721.sol:Neuro721",
        "label": "_operatorsForAll",
        "offset": 0,
        "slot": "2",
        "type": "t_mapping(t_address,t_mapping(t_address,t_bool))"
      },
      {
        "astId": 729,
        "contract": "src/Neuro721.sol:Neuro721",
        "label": "_operators",
        "offset": 0,
        "slot": "3",
        "type": "t_mapping(t_uint256,t_address)"
      },
      {
        "astId": 1988,
        "contract": "src/Neuro721.sol:Neuro721",
        "label": "_lastId",
        "offset": 0,
        "slot": "4",
        "type": "t_uint256"
      },
      {
        "astId": 1990,
        "contract": "src/Neuro721.sol:Neuro721",
        "label": "_prefix",
        "offset": 0,
        "slot": "5",
        "type": "t_string_storage"
      },
      {
        "astId": 1995,
        "contract": "src/Neuro721.sol:Neuro721",
        "label": "neuralState",
        "offset": 0,
        "slot": "6",
        "type": "t_mapping(t_uint256,t_array(t_int256)dyn_storage)"
      },
      {
        "astId": 2001,
        "contract": "src/Neuro721.sol:Neuro721",
        "label": "w",
        "offset": 0,
        "slot": "7",
        "type": "t_mapping(t_uint256,t_mapping(t_uint256,t_int256))"
      }
    ],
    "types": {
      "t_address": {
        "encoding": "inplace",
        "label": "address",
        "numberOfBytes": "20"
      },
      "t_array(t_int256)dyn_storage": {
        "base": "t_int256",
        "encoding": "dynamic_array",
        "label": "int256[]",
        "numberOfBytes": "32"
      },
      "t_bool": {
        "encoding": "inplace",
        "label": "bool",
        "numberOfBytes": "1"
      },
      "t_int256": {
        "encoding": "inplace",
        "label": "int256",
        "numberOfBytes": "32"
      },
      "t_mapping(t_address,t_bool)": {
        "encoding": "mapping",
        "key": "t_address",
        "label": "mapping(address => bool)",
        "numberOfBytes": "32",
        "value": "t_bool"
      },
      "t_mapping(t_address,t_mapping(t_address,t_bool))": {
        "encoding": "mapping",
        "key": "t_address",
        "label": "mapping(address => mapping(address => bool))",
        "numberOfBytes": "32",
        "value": "t_mapping(t_address,t_bool)"
      },
      "t_mapping(t_address,t_uint256)": {
        "encoding": "mapping",
        "key": "t_address",
        "label": "mapping(address => uint256)",
        "numberOfBytes": "32",
        "value": "t_uint256"
      },
      "t_mapping(t_uint256,t_address)": {
        "encoding": "mapping",
        "key": "t_uint256",
        "label": "mapping(uint256 => address)",
        "numberOfBytes": "32",
        "value": "t_address"
      },
      "t_mapping(t_uint256,t_array(t_int256)dyn_storage)": {
        "encoding": "mapping",
        "key": "t_uint256",
        "label": "mapping(uint256 => int256[])",
        "numberOfBytes": "32",
        "value": "t_array(t_int256)dyn_storage"
      },
      "t_mapping(t_uint256,t_int256)": {
        "encoding": "mapping",
        "key": "t_uint256",
        "label": "mapping(uint256 => int256)",
        "numberOfBytes": "32",
        "value": "t_int256"
      },
      "t_mapping(t_uint256,t_mapping(t_uint256,t_int256))": {
        "encoding": "mapping",
        "key": "t_uint256",
        "label": "mapping(uint256 => mapping(uint256 => int256))",
        "numberOfBytes": "32",
        "value": "t_mapping(t_uint256,t_int256)"
      },
      "t_mapping(t_uint256,t_uint256)": {
        "encoding": "mapping",
        "key": "t_uint256",
        "label": "mapping(uint256 => uint256)",
        "numberOfBytes": "32",
        "value": "t_uint256"
      },
      "t_string_storage": {
        "encoding": "bytes",
        "label": "string",
        "numberOfBytes": "32"
      },
      "t_uint256": {
        "encoding": "inplace",
        "label": "uint256",
        "numberOfBytes": "32"
      }
    }
  },
  "userdoc": {
    "kind": "user",
    "methods": {
      "approve(address,uint256)": {
        "notice": "Approve an operator to spend tokens on the senders behalf."
      },
      "approveFor(address,address,uint256)": {
        "notice": "Approve an operator to spend tokens on the sender behalf."
      },
      "balanceOf(address)": {
        "notice": "Get the number of tokens owned by an address."
      },
      "batchTransferFrom(address,address,uint256[],bytes)": {
        "notice": "Transfer many tokens between 2 addresses."
      },
      "burn(uint256)": {
        "notice": "Burns token `id`."
      },
      "burnFrom(address,uint256)": {
        "notice": "Burn token`id` from `from`."
      },
      "getApproved(uint256)": {
        "notice": "Get the approved operator for a specific token."
      },
      "isApprovedForAll(address,address)": {
        "notice": "Check if the sender approved the operator."
      },
      "ownerOf(uint256)": {
        "notice": "Get the owner of a token."
      },
      "safeBatchTransferFrom(address,address,uint256[],bytes)": {
        "notice": "Transfer many tokens between 2 addresses, while ensuring the receiving contract has a receiver method."
      },
      "safeTransferFrom(address,address,uint256)": {
        "notice": "Transfer a token between 2 addresses letting the receiver know of the transfer."
      },
      "safeTransferFrom(address,address,uint256,bytes)": {
        "notice": "Transfer a token between 2 addresses letting the receiver knows of the transfer."
      },
      "setApprovalForAll(address,bool)": {
        "notice": "Set the approval for an operator to manage all the tokens of the sender."
      },
      "setApprovalForAllFor(address,address,bool)": {
        "notice": "Set the approval for an operator to manage all the tokens of the sender."
      },
      "supportsInterface(bytes4)": {
        "notice": "Check if the contract supports an interface. 0x01ffc9a7 is ERC-165. 0x80ac58cd is ERC-721 0x5b5e139f is ERC-721 Metadata (tokenURI, symbol, name)"
      },
      "transferFrom(address,address,uint256)": {
        "notice": "Transfer a token between 2 addresses."
      }
    },
    "version": 1
  },
  "argsData": "0x0000000000000000000000004de5649e33bad507c496fa3c82b784900ea18cde00000000000000000000000038b96257b53d2d33bbd4376fb3b732459f28a87200000000000000000000000000000000000000000000000000000000000000600000000000000000000000000000000000000000000000000000000000000000",
  "nonce": "0xf",
  "txOrigin": "0x38b96257b53d2d33bbd4376fb3b732459f28a872",
  "_format": "hh-sol-artifact-1"
}